:020000040800F2
:1000000088330024AD020008AD4F0008E548000821
:10001000A54E0008150C0008CB6900080000000080
:10002000000000000000000000000000A9610008BE
:10003000170C00080000000081530008AB610008A5
:10004000C7020008C7020008C7020008C70200086C
:10005000C7020008C7020008C7020008C70200085C
:10006000C7020008C7020008C7020008C70200084C
:10007000C7020008C7020008C7020008C70200083C
:10008000C7020008C7020008C7020008C70200082C
:10009000C7020008C7020008C7020008C70200081C
:1000A000C7020008C7020008C7020008C70200080C
:1000B000C7020008C7020008C7020008C7020008FC
:1000C000C7020008C7020008C7020008C7020008EC
:1000D000C7020008C7020008C7020008C7020008DC
:1000E000C7020008C702000800000000C70200089D
:1000F000C7020008C7020008C7020008C7020008BC
:10010000C702000849560008C7020008C7020008D5
:10011000C7020008C7020008C7020008C70200089B
:10012000C7020008C7020008C7020008C70200088B
:10013000C7020008C7020008C7020008C70200087B
:1001400000000000000000000000000000000000AF
:10015000C7020008C7020008C7020008C70200085B
:10016000C7020008C7020008C7020008C70200084B
:10017000C7020008C7020008C7020008000000000C
:10018000C7020008C7020008C7020008C70200082B
:10019000C7020008C7020008C7020008C70200081B
:1001A000C7020008C7020008C7020008C70200080B
:1001B000C7020008C7020008C7020008C7020008FB
:1001C000C7020008C7020008C7020008C7020008EB
:1001D000C7020008C7020008C7020008C7020008DB
:1001E000C7020008C7020008C7020008C7020008CB
:1001F000C7020008C7020008C7020008C7020008BB
:10020000C7020008C7020008C7020008C7020008AA
:10021000C7020008C7020008C7020008C70200089A
:10022000C7020008C70200087D4B0008000000005C
:10023000C7020008C702000800000000C70200084B
:10024000C7020008C7020008C7020008C70200086A
:10025000C7020008C7020008C7020008C70200085A
:10026000C7020008C7020008C7020008C70200084A
:10027000C7020008C7020008C7020008000000000B
:10028000C7020008C7020008C702000800000000FB
:1002900000000000C7020008DFF80CD000F032F9BF
:1002A00000480047BD8C000888330024064880477A
:1002B00006480047FEE7FEE7FEE7FEE7FEE7FEE74B
:1002C000FEE7FEE7FEE7FEE7B562000899020008D8
:1002D0002DE9F05F0546002092469B46884606467B
:1002E000814640241BE0284641464746224600F00E
:1002F000EEF853465A46C01A914110D3114618469B
:10030000224600F0D5F82D1A67EB01084F46224629
:100310000120002100F0CCF817EB00094E41201E0F
:10032000A4F10104DFDC484631462A464346BDE8D5
:10033000F09F10B5431A934209D28318881803E03E
:1003400010F8011D03F8011D521EF9D210BD40EA3C
:1003500001039B0703D009E008C9121F08C0042A43
:10036000FAD203E011F8013B00F8013B521EF9D22A
:1003700010BDD2B201E000F8012B491EFBD270473C
:100380000022F6E710B513460A4604461946FFF761
:10039000F0FF204610BD30B504460020034600E0C3
:1003A0005B1C934203D2E05CCD5C401BF8D030BDB7
:1003B0000FB400B589B00BA800906A4603480A99AB
:1003C00000F096F809B05DF814FB0000000000246E
:1003D0002DE9FF5FD2E901A74FF000089169994626
:1003E0001446DDF838B0464601988847054659EA74
:1003F0000B0005D009E0A169761C019888470546E5
:10040000216A284688470028F5D1681C03D05FEA96
:10041000CA7005D015E04FF0FF3004B0BDE8F09F82
:100420002068011D2160D0F800800AE05FEACA70F0
:1004300001D108F8015BA169761C7F1E01988847ED
:100440000546002F1ADD681C18D0B9F1000F0DD039
:10045000E81705EBD060421120F01F0059F8221078
:100460002A1A012090400142E0D107E0BBF1000FC1
:10047000DCD1216A284688470028D7D0E169019855
:100480008847BBF1000F07D1002E05DD5FEACA7077
:1004900002D1002188F80010A068B84203DDBBF14A
:1004A000000F03D017B16FF00100B6E73046B4E794
:1004B000202A04DB203A00FA02F100207047914024
:1004C000C2F1200320FA03F3194390407047202A19
:1004D00004DB203A21FA02F00021704721FA02F3EE
:1004E000D040C2F1200291400843194670470000F5
:1004F000024B9361024BD36100F032B8E9840008EB
:1005000045050008064C074D06E0E06840F0010391
:1005100094E8070098471034AC42F6D3FFF7C0FECA
:10052000B0A70008D0A70008094910B508784C1CEE
:1005300018B1401E0870205C10BD00210720ABBE22
:10054000207010BD02490878421C0A7070470000F4
:1005500008000024026811441378016018467047AF
:10056000D1600449516104491162002111611146B1
:1005700000F00AB8550500087D050008C0B24FF428
:10058000F05100F097B900002DE9F34F8BB04FF018
:10059000000801F10C000C464FF0010B46460DF12E
:1005A000080A01906269012101989047051E2DD02B
:1005B000252D2CD0216A8847C0B16269012101989C
:1005C0009047216A88470028F7D1411E6269019847
:1005D000904700E0761CA1690B988847216A8847FC
:1005E0000028F7D1E1690B988847DBE7A1690B98F0
:1005F00088470746A84201D1761CD3E7E1690B98EA
:1006000088477F1C02D1B8F1000F6FD046E1002768
:1006100062693D463946019890472A2804D16269AB
:100620000121019890470125DFF884926269012138
:1006300001989047A0F130010A290AD24F45E5DC24
:1006400007EB870100EB4107303FDFD445F0100591
:10065000ECE7E90601D46FF000476C280AD04C287B
:1006600014D0682815D06A280DD074281CD07A2898
:100670001AD01DE062690121019890476C2802D0D0
:1006800045F0040514E045F002050DE045F02005B5
:100690000AE06269012101989047682802D045F07C
:1006A000080505E045F4006562690121019890475D
:1006B000C4E9015765283DD019DC58287AD00CDCF4
:1006C000452837D004DC252826D0412831D131E017
:1006D00046282FD047282CD12CE05B2877D06128E2
:1006E00028D063287CD0642823D15AE0D0E06F283A
:1006F00048D008DC66281DD067281BD0692821D087
:100700006E2816D127E0702845D0732868D0752848
:1007100047D078280DD14DE0A1690B988847054650
:1007200025283FF469AFE1690B9888476D1C3FF4B9
:100730006AAFB3E023466A466FF001000B99AFF34E
:1007400000809EE045F040006060A80723464FF01F
:10075000000236D43EE0E8077FF447AF2068011D71
:1007600021600068290501D506701BE7290701D51E
:10077000068017E7A90703D5F117C0E9006111E763
:1007800006600FE745F040006060A80723464FF081
:10079000080216D41EE040F60E0125EA0100606052
:1007A00016E045F040006060A80723464FF00A02BB
:1007B00007D40FE045F040006060A80708D5234645
:1007C00010226FF001000B99AFF3008059E007E0B1
:1007D000234610226FF001000B99AFF3008050E028
:1007E0004FF000094F464B46632802D05B2806D0E5
:1007F00040E0E80601D40120A06001273AE06269E8
:100800000121019890475E2805D14FF001096269E6
:10081000494601989047216939B900210A46534653
:1008200043F82120491C0829FADBB0B3216969B9D2
:10083000C11700EBD16253110AEB830122F01F02B2
:10084000821A01200B68904003430B60626901210A
:10085000019890475D28E8D1B9F1000F09D0002038
:10086000514651F82020D24341F82020401C08284E
:10087000F7DB02AB224600976FF001000B99FFF700
:10088000A7FD00280CDA401C08D1BBF1000F05D0F1
:100890004FF0FF300DB0BDE8F08FFFE74046F9E7BD
:1008A000E90701D108F1010806444FF0000B79E691
:1008B000CCCCCC0C7F2801D9002208E0064A02EB00
:1008C0005002C007127800D1120902F00F02012075
:1008D00090400840704700002C9600082DE9F8432E
:1008E00000204FF0000804F02FF9DFF81091D9F83C
:1008F00000004000424FB8474248434EB047D9F845
:100900000000B8474148B04705F024FA4048B047D6
:10091000D9F80000B8473F48B04708F071FA3E48A0
:10092000B047D9F80000B847D9F80000B8473B48AD
:10093000B0473B4C2046B0473A48B04704F0B4FAC1
:100940002046B0473848B04700F094FA2046B047F8
:100950003648B04736A000F035FC2046B047354851
:10096000B047354D4FF4FC610B220F23284600F0B1
:100970009DFC2046B0473148B047284600F0C6FBF2
:100980002046B0472E48B047284600F019FB2046C5
:10099000B0472C48B047284600F00AFA2046B04736
:1009A0002948B047D9F80000B8472848B04704F0B4
:1009B0000BFB04F049FB264A002110780023C0F10C
:1009C000800000EBD070C0F3470004F0F0FA21A2E1
:1009D000234B2020CDF80080302104F052FB04F09E
:1009E000A5FC20A0B0472046B0472BA0B04720462A
:1009F000B047002001B0BDE8F08300BF1C00002418
:100A0000791300084BA000086591000818A200089F
:100A10008C9F000848A200080AA000087FA00008D8
:100A200081A2000837A1000891A10008BEA100081A
:100A3000303A2F000FA1000884A20008E7A00008A8
:100A400064A10008C3A00008C19F0008E9A1000834
:100A5000649F00084C4946544E4F44450000000036
:100A60007C9F00085B494E495449414C495A4154C6
:100A7000494F4E5D204F4C454420496E6974696171
:100A80006C697A6174696F6E202D2046494E495316
:100A90004845440A0D0000005B494E495449414C09
:100AA000495A4154494F4E5D2042535020496E6986
:100AB0007469616C697A6174696F6E202D20464992
:100AC0004E49534845440A0D000000004D49024676
:100AD0000846114603F0DAB880B54A4803F0E7F853
:100AE000043818BF012080BD80B500F013F801283C
:100AF00004D1444803F0E2FA10B180BD022080BD69
:100B000040484FF4804102F033FF002818BF012015
:100B100080BD00BF81B001208DF803009DF8030067
:100B200001B070472DE9F8430023354C63609446CB
:100B3000BFF34F8F27688846C7F34E33C7F3C90703
:100B400081466FEA070EBD0743F6E07000EA4316E0
:100B50002F46724647EA06010132C4F8EC1107F14C
:100B60004047F7D1002BA3F10103EFD1BFF34F8F23
:100B7000BFF36F8F234849464246634603F094FC17
:100B8000002818BF012001B0BDE8F0830148012111
:100B900001607047080500242DE9F8430023184C34
:100BA00063609446BFF34F8F27688846C7F34E3380
:100BB000C7F3C90781466FEA070EBD0743F6E07029
:100BC00000EA43162F46724647EA06010132C4F88E
:100BD000EC1107F14047F7D1002BA3F10103EFD14E
:100BE000BFF34F8FBFF36F8F0648494642466346B7
:100BF00003F0C4FC002818BF012001B0BDE8F08359
:100C000080ED00E0340800240148012101607047B4
:100C100040070024FEE77047EFF3108072B6FEE74E
:100C2000002200F001B8000080B5DFF848E09EF82F
:100C30000930002B01D0012080BD9EF80930844688
:100C400000200EF803009EF809300EEB8303C3F872
:100C500004C09EF8093073441A729EF80920531C90
:100C600030328EF809300A7042F63A72A1F801204B
:100C7000C87080BD4407002410B50B6802460468A4
:100C8000002BD1E907E0D1F824C00ED024F4F843BA
:100C900040EA0E00184340EA0C00106047F6FF736C
:100CA00052F8040F98434B6809E047F6FF7324EAB3
:100CB000030340EA0E0018434B6840EA0C00184357
:100CC000D1E9023418430B6920434C691843896900
:100CD000204301430020116010BD0246406943F6E5
:100CE000FE73984340EA410100205161704710B5FE
:100CF000044600696FF315000B68D1F808E06FF047
:100D00001F0C4A6818430CEB4E1CC968104340EA9C
:100D10000C0040EA41210020216110BDB0B504461D
:100D20001F4D54F808CF002ACB681E4A05EB033E3E
:100D30004B6902EB035210D01B4B42EA0E0203EA4E
:100D40000C031A43826050F80C2F04460B6802F023
:100D50007042013B43EA020C08E00CF070400B6863
:100D600042EA0E02013B104340EA030C0B690F4DAF
:100D70006FF0FF0205EB03438D68886902EB0522E3
:100D800049686FF00F0505EB011141EA0C011143B1
:100D90000138194341EA006100202160B0BD00BF65
:100DA00000F0FFFF0000F0FFFF0F0FFF0000FFFF4C
:100DB00010B5ADF50C7D04460FA0214608F0D2F920
:100DC00068460022214606F041FF28B9684606F031
:100DD00049FB10A008F018FC204607F002FA20B1E9
:100DE000014611A008F0BEF902E019A008F00CFCC1
:100DF0000DF50C7D10BD00BF0D0A2A2A2A2044657E
:100E00006C6574652046696C653A2025732A2A2A28
:100E10000D0A00004F70656E207375636365737310
:100E200066756C6C79210D0046696C652064656C93
:100E30006574696F6E206661696C65642C206572EB
:100E4000726F7220636F64653A2025640D0A00009A
:100E50005468652066696C65207761732064656CF1
:100E600065746564207375636365737366756C6C14
:100E700079210D002DE9FE4322A001A902AA06F066
:100E800012FB20B120A008F0BFFBBDE8FE83234881
:100E9000DFF88C80C0470298816942890239019B42
:100EA00003FB02F5204C01FB02F701781D484FEAD5
:100EB000D529FE0AA0471D48C0471D48A0471DA0D0
:100EC0004FF40071A047029841891C48A04702983E
:100ED0008069811E1A48A0471A483946A0477A0DF2
:100EE00019483146A047019918A0A0471EA02946DD
:100EF000A0476A0D23A04946A0472BA0C047BDE8E4
:100F0000FE8300BF303A0000665F676574667265F5
:100F1000652829206572726F720D00004DA30008CC
:100F20000996000803A400086591000890A3000832
:100F3000EDA3000825640D0A00000000AFA2000820
:100F400016A3000832A300088DA20008467265654A
:100F500020636C757374657220636F756E74203DC9
:100F600020256C640D0A0000467265652073656378
:100F7000746F7220636F756E74203D20256C640D54
:100F80000A00000046726565207370616365203D4C
:100F900020256C64284D4229203D20256C6428477B
:100FA00042290D0A00000000476574204641542084
:100FB0006469736B20696E666F204F4B0D000000F3
:100FC000B0B5C6B0054614A0294608F0CBF86C466B
:100FD0002846214607F09BF8042814D00146B0B9F2
:100FE000009916A01C4DA8479DF808101BA0A84703
:100FF00004F116011FA0A847BDF80400BDF80610B3
:1010000000F054F806E00C4808F0FEFA02E01EA0DA
:1010100008F0A8F846B0B0BD0D0A2A2A2A20466971
:101020006C6520696E666F206F663A202573202AF2
:101030002A2A0D0A00000000B6A3000846696C6564
:101040002073697A6528627974657329203D2025AB
:101050006C640D0A000000006591000846696C652B
:1010600020617474726962757465203D2030782542
:10107000780D0A0046696C65204E616D65203D2043
:1010800025730D0A00000000665F737461742829DF
:10109000206572726F722C206572726F7220636F9E
:1010A00064653A2025640D0A0000000010B540F286
:1010B000BC7202EB502CC0F343120C4600F01F032D
:1010C00006A0614608F04EF8E10AC4F3451204F0A8
:1010D0001F0308A0BDE8104008F044B846696C65DD
:1010E0002064617465203D2025642F25642F2564CC
:1010F0000D0A000046696C652074696D65203D200D
:1011000025643A25643A25640D0A000070B5ADF5F2
:10111000267D044616A0214608F024F81AA80122CC
:10112000214606F093FD042814D00146B0B901AC65
:101130001AAD19A608E0642120462A4606F02FFAC7
:101140003046214608F00EF81D9820998142F2D1D0
:1011500012A000E00F4808F057FA02E010A008F0D3
:1011600001F81AA806F07EF90DF5267D70BD00BFC6
:101170000D0A2A2A2A2052656164696E6720545834
:10118000542066696C653A202573202A2A2A0D0AA4
:1011900000000000B6A30008257300000D00000049
:1011A000665F6F70656E2829206572726F722C20E1
:1011B0006572726F7220636F64653A2025640D0A50
:1011C000000000002DE9F041D4B0044647A82146B4
:1011D00006F058FE40B1054647A806F055F916A09E
:1011E000294607F0BFFF24E01DA0214607F0BAFF03
:1011F00001AC04F1160547AE0FF2940821A70CE0EC
:101200009DF81A0078B19DF80C00C00601D4404644
:1012100000E03846294607F0A5FF3046214606F093
:101220004BFF0028ECD01DA008F0EEF947A806F00F
:101230002BF954B0BDE8F0810D0A665F6F70656EE2
:101240006469722829206572726F722C206572722F
:101250006F7220636F64653A2025640D0A000000F8
:101260000D0A2A2A2A20416C6C20656E7472696509
:101270007320696E206469723A202573202A2A2A15
:101280000D0A00004449523A2025730D0A0000005F
:1012900046494C453A2025730D0A00005363616EA0
:1012A00020646972204F4B0D0000000010B5ADF5B1
:1012B000127D044613A0214607F054FF06A80A2217
:1012C000214606F0C3FC10B1014617A012E01FA092
:1012D000D0E901C2D0E9033140690590CDE903317D
:1012E000CDE901C2194806A90090684606F012FE31
:1012F0001CA0214607F036FF06A806F0B3F80DF54E
:10130000127D10BD0D0A2A2A2A2043726561746974
:101310006E67205458542066696C653A2025732006
:101320002A2A2A0D0A0000004F70656E2066696C3B
:1013300065206572726F722C206572726F72206305
:101340006F64653A2025640D0A0000004C696E65E3
:10135000313A2048656C6C6F2C2046617446732AC4
:101360002A2A0A0057726974652066696C65204FE5
:101370004B3A2025730D0A00B0B5044600F0E6F89C
:101380000549621C0978054618BF0C4400F0DEF8D8
:10139000401BA042FAD3B0BD0C0000242DE9FC4F45
:1013A0005F4A0A275F4C02444FEAB223A04208BFBB
:1013B0000927092B38BF4FEAB2274FF0000C0097DE
:1013C00001274FF0000E00269EE007FA06F912EA08
:1013D000090B00F094804A6802F00308A8F1010AA2
:1013E000BAF1010F13D80324856804FA0EF325EA35
:1013F0000303CD6805FA0EF52B4383604368C2F3FF
:10140000001523EA0903B5402B43436004E0B8F11B
:10141000030F4FF003041FD0C36804FA0EF5AB436B
:101420008D6805FA0EF52B43B8F1020FC36013D196
:101430006FF0030202EA560202440CF01C03D2F8D9
:1014400020800F259D4028EA05080D6905FA03F361
:1014500043EA080313624A68036804FA0EF5AB43D3
:1014600002F0030505FA0EF52B4312F4403F03602A
:1014700045D0294A13462C4C12680F2542F002022F
:101480001A601A6802F00202019226F00302019B20
:101490000CF00C0352F804809D40009F28EA0505DB
:1014A00007FA03F32B4313514FF0B048D8F800204C
:1014B0004B6842EA0B05DF0258BF22EA0B05174AC8
:1014C0001446C8F800509F02126842EA0B0558BF44
:1014D00022EA0B059F0325604FF00107D4F8802016
:1014E00042EA0B0558BF22EA0B05DB03C4F8805023
:1014F000E26F42EA0B0558BF22EA0B05E5670136A9
:101500000EF1020E0CF1040C0A6832FA06F47FF4B4
:101510005CAFBDE8FC8F00BFF444025804000058E3
:101520000000FEA700240258080400580069084083
:1015300018BF01207047002A08BF09048161704765
:1015400001480068000C70470010005CCA48006841
:10155000704700BF90F84120202A03D190F8402026
:10156000012A01D1022118E0242280F841200268DA
:10157000136823F001031360136823F4805313608E
:10158000136819431160116841F0010111602021B5
:1015900080F84110002180F840100846704790F80C
:1015A0004120202A03D190F84020012A01D10221B4
:1015B00017E0242280F841200268136823F0010319
:1015C0001360136823F4706343EA0121116011680A
:1015D00041F001011160202180F84110002180F8C4
:1015E000401008467047000020B310B5044690F83C
:1015F000410028B9002084F84000204600F0F2F8AD
:10160000242084F8410094E80910E268012A016866
:1016100021F00101016023F070610161816821F412
:101620000041816008D14CF400418160014651F8CD
:10163000042F0CE0012070474CF404418160014606
:10164000022A51F8042F02D142F4006201E022F490
:1016500000620A600F4A04F11003416811434160BF
:10166000C16821F40041C1600ECB1143E26941EA37
:101670000321C160216A11430160016841F0010149
:10168000016000202021606484F84110206384F808
:10169000420010BD008000022DE9F843044690F896
:1016A0004100202803D194F84000012804D10225EC
:1016B000284601B0BDE8F08301251E4684F840505D
:1016C00017468846FFF742FF814600904FF40041DD
:1016D00001221923204603F0A5F90028E8D1212092
:1016E00084F84100102084F84200002060646762A2
:1016F00066856063608DB0F5807F04D3FF20208510
:101700004FF0807305E0608D0028208553D04FF0A6
:10171000007317F8011B22689162C2B26762618D83
:1017200001396185411E21852C48009041462046A3
:1017300003F064F90025089FFF2631E02046394672
:101740004A4603F0D5F9A0BB606A10F8011B226875
:1017500091626062608D01386085208D411E218517
:101760000904608D1CD1D8B18021CDF800900022F1
:1017700020463B4603F056F9D8B9608DB0F5807F1E
:1017800004D3FF2226854FF0807304E0608D4FF074
:1017900000732085C2B220460095414603F02EF921
:1017A000608D0028CAD1204639464A4603F078F9B0
:1017B00028B101257CE700224FF00073B4E72068D0
:1017C0002021C161064B002542681A40426084F81E
:1017D000411084F8425084F8405069E700200080AE
:1017E00000E800FEB0B5B8B0044633A81421FEF7F7
:1017F000C7FD02A8C021FEF7C3FD20681749884233
:1018000029D108200024029002A80394239400F018
:1018100067FD08B1FFF700FA114D286833A940F0C1
:1018200002002860286800F0020001900198C020A2
:1018300033901220CDE934040420369437900948BF
:10184000FFF7ACFDA86840F40010A860A86800F499
:1018500000100190019838B0B0BD00BF00540040A6
:10186000E0440258000402582A48007802490A68F5
:1018700010440860704700BF800B002480B503202F
:1018800000F00CFA01F044FB0F490A68C2F303228E
:1018900009680E4B01F00F019A5C595C02F01F02BF
:1018A000D0400B4A01F01F0120FA01F1116092496A
:1018B00008600F2000F00EF808B1012080BD00F094
:1018C000AFF9002080BD00BF184402586C96000894
:1018D0001800002470B50F4E3178C1B104464FF4A2
:1018E0007A70B0FBF1F084490968B1FBF0F002F0C6
:1018F000ADFE0F2C4FF001050AD848B94FF0FF306C
:1019000000222146002500F0A9F9746000E00125BD
:10191000284670BD0C000024002806D090F83C300A
:10192000012B05D14FF0020C27E04FF0010C24E011
:101930004FF0010C80F83CC090F83D30012B19D1DC
:10194000D0F800C0DCF810305B000AD4CCF83010BE
:101950000029CCF83420DCF8101005D041F000410B
:1019600004E04FF0010C05E021F00041CCF810102C
:101970004FF0000C002180F83C10604670470000DA
:10198000BCB500210191044600684FF0A4435A49B8
:1019900000F5F8620D68C2F38411012202FA01F128
:1019A0001A6811426DD00168C90729D0C16889073A
:1019B00026D5C16821F00201C16081680A06A36EC4
:1019C0004FF0020258BF01221A438B05A26603D5CD
:1019D000A26E42F00402A266CA0503D5A26E42F0CE
:1019E0000802A2664A0503D5A26E42F01002A26662
:1019F000090503D5A16E41F02001A16601214160D6
:101A00000168C90644BFC1685FEA81613AD40168D0
:101A1000090744BFC1685FEAC1613CD40168490756
:101A200044BFC1685FEA01713ED40168890744BFC1
:101A3000C1685FEA417140D4A06E10B34FF41650F4
:101A4000B5FBF0F1042084F83D002068C26822F064
:101A50000102C260019A01328A42019202D8C26830
:101A6000D207F7D1002184F83C10C068C0074FF0BE
:101A7000030008BF012084F83D00616D09B12046D4
:101A80008847BCBD10214160A16C0029BFD0204611
:101A900088472068BBE708214160E16C0029BDD080
:101AA000204688472068B9E704214160216D00295C
:101AB000BBD0204688472068B7E7C16821F03E01C7
:101AC000C16094F83D10042907D1002084F83C003F
:101AD000012084F83D00A16DD0E702214160002083
:101AE00084F83C00012084F83D00616C0029A3D0FB
:101AF00020468847A0E700BF14000024B0B5044684
:101B0000FFF724FD002C51D00546002084F83C004E
:101B1000022084F83D002068C16821F00101C16005
:101B200005E0FFF713FD401B052841D82068C16878
:101B3000C907F6D1D4E903231A43D4E901C5C26029
:101B4000BCF1804FD4E9052342EA0302E36942EA8B
:101B50000302236A42EA0302636AE16A42EA030279
:101B6000236B41EA0201A26A41EA03011E4B03EB27
:101B7000824241EA050141EA0201016103D10169A2
:101B800041F04041016100214161626BB2F1FF3FD0
:101B900004DC4169524241F48021416191B2016209
:101BA000A26BB2F1FF3F07DD12040CE00120B0BDD3
:101BB00001200322402113E04169002341F4002168
:101BC0004161A3EB0242016A11435FFA8CF20162A8
:101BD00000218262012241620020C4E9171161667E
:101BE000A16684F83D20B0BD0000FCFFBFF35F8F0D
:101BF0000A48016821F480310160002101677047C3
:101C000040F0010005490867086840F4803008602A
:101C1000BFF34F8FBFF36F8F704700BF24ED00E01D
:101C200081B00648016841F002010160006800F0DF
:101C300002000090009801B0704700BFF4440258C1
:101C4000002808DB00F01F01012202FA01F1024A1C
:101C5000400942F82010704700E100E080B5154BC4
:101C60001B68C3F3022C8CF0070EBEF1040F28BFD3
:101C70004FF0040EBCF103034FF0FF3C38BF0023CC
:101C80000CFA0EFE21EA0E0199400CFA03F39A4376
:101C90001143BDE8804004F0B3BE00BF05490A68A7
:101CA0004FF6FF031A4060F30A220348104308600E
:101CB000704700BF0CED00E00000FA05B0B5104D14
:101CC00029684907296805D401F00701081A18BFD7
:101CD0000120B0BD21F0070108432860FFF736FC62
:101CE000044655F8080C800407D4FFF72FFC001BAE
:101CF000B0F57A7FF5D90120B0BD0020B0BD00BF9E
:101D00000C48025880B501F0C3F80549054A096836
:101D1000C1F30211515C01F01F01C84080BD00BF3A
:101D2000204402586C96000810B53D4CA36AA26A84
:101D3000C2F3051CE26A616B02F00102C1F3CC013F
:101D4000BCF1000F11FB02F100EE101AB8EE400AD0
:101D50000CD003F00303022B0CD0012B0DD013B9D0
:101D6000216889060CD49FED311A13E00021C0E9E7
:101D7000001153E09FED2C1A0CE09FED2A1A09E0A8
:101D800021682B4AC1F3C10122FA01F101EE101AB8
:101D9000B8EE411A02EE10CA9FED263AB8EE422A7A
:101DA000216B6FF35F2181EE021A02EE101AB8EE7A
:101DB000422A216BC1F3462100EE032AB7EE000A46
:101DC00003EE101A32EE002AB8EE433A21EE021A60
:101DD00033EE002A81EE022ABCEEC22A80ED002AF0
:101DE000216BC1F3064102EE101AB8EE422A32EE20
:101DF000002A81EE022ABCEEC22A80ED012A216B64
:101E0000C1F3066102EE101AB8EE422A32EE000A61
:101E100081EE000ABCEEC00A10EE101A816010BDFF
:101E2000004402580024744A20BCBE4B0024744C69
:101E30000090D0030000003910B53C4CA36AA26AA0
:101E4000C2F3053CE26AC2F30012E16BC1F3CC01BC
:101E5000BCF1000F11FB02F100EE101AB8EE400ABF
:101E60000AD003F00303022B0AD063B92168890664
:101E70000CD49FED311A13E00021C0E9001153E0AA
:101E80009FED2C1A0CE09FED2A1A09E021682B4ADD
:101E9000C1F3C10122FA01F101EE101AB8EE411AA4
:101EA00002EE10CA9FED263AB8EE422AA16B6FF3FC
:101EB0005F2181EE021A02EE101AB8EE422AA16BDF
:101EC000C1F3462100EE032AB7EE000A03EE101A12
:101ED00032EE002AB8EE433A21EE021A33EE002A1F
:101EE00081EE022ABCEEC22A80ED002AA16BC1F36A
:101EF000064102EE101AB8EE422A32EE002A81EEB6
:101F0000022ABCEEC22A80ED012AA16BC1F3066150
:101F100002EE101AB8EE422A32EE000A81EE000AF2
:101F2000BCEEC00A10EE101A816010BD00440258C9
:101F30000024744A20BCBE4B0024744C0090D00393
:101F40000000003910B53C4CA36AA26AC2F3055CDC
:101F5000E26AC2F30022616CC1F3CC01BCF1000F54
:101F600011FB02F100EE101AB8EE400A0AD003F09D
:101F70000303022B0AD063B9216889060CD49FEDB4
:101F8000311A13E00021C0E9001153E09FED2C1A33
:101F90000CE09FED2A1A09E021682B4AC1F3C10128
:101FA00022FA01F101EE101AB8EE411A02EE10CA3F
:101FB0009FED263AB8EE422A216C6FF35F2181EE45
:101FC000021A02EE101AB8EE422A216CC1F3462121
:101FD00000EE032AB7EE000A03EE101A32EE002AD2
:101FE000B8EE433A21EE021A33EE002A81EE022ABD
:101FF000BCEEC22A80ED002A216CC1F3064102EE3C
:10200000101AB8EE422A32EE002A81EE022ABCEE05
:10201000C22A80ED012A216CC1F3066102EE101A7A
:10202000B8EE422A32EE000A81EE000ABCEEC00A87
:1020300010EE101A816010BD004402580024744A4A
:1020400020BCBE4B0024744C0090D003000000392B
:10205000F8B580F400220A4300F07F8080F400721B
:102060000A4332D080F480620A4300F0878080F413
:1020700000620A4338D080F480520A4300F08B801B
:1020800080F400520A4300F0948080F480420A43B6
:1020900037D080F400420A4342D080F480320A43B1
:1020A0004ED080F48070084340F0DF808749086D8F
:1020B00000F00702042A00F2D8808848DFE812F016
:1020C000770087008E00D60096008049086DC0F327
:1020D0008212042A00F2C9808048DFE812F068000A
:1020E00078007F00C70087007849886DC0F30262DE
:1020F000042A00F2BA807948DFE802F0596970B822
:1021000078007248816DC1F30271052900F2AD803B
:10211000DFE801F003869198A28DFFF7F3FDA5E0BB
:102120006A48016D01F04051B1F1005F00F0788024
:10213000B1F1805F00F09680002940F0968076E053
:102140006248C16CC903006840F18D80000140F114
:102150008C8001A8FFF770FEA1E05C48816D01F45E
:102160004031B1F5003F00F08880B1F5803F00F0CC
:102170009080002940F07980006829E05349886DFB
:10218000C0F34252042A00F270805448DFE802F0A3
:102190000F1F266E2E004D49086DC0F30232042A2F
:1021A00063D84E48DFE802F003131A622200086881
:1021B00059E04648016DC1F30241052955D8DFE8D1
:1021C00001F0032F3A414B3600F082FE4EE00868E2
:1021D00000014AD501A8FFF72FFE05E0086880003E
:1021E00043D501A8FFF7AEFE01983FE0C86C10F0A0
:1021F00040520B68086802D113F0040326D1B2F1F3
:10220000805F02D110F4807051D1086810F4003062
:102210001CBF47F64000C0F27D10B2F1005F52E0F3
:102220000068000121D501A8FFF706FE23E0006841
:102230002749800313E00068800016D501A8FFF746
:1022400081FE18E0016849070FD50068C0F3C1009E
:10225000214921FA00F009E000681E49C00501EAA1
:10226000E07003E00068800102D4002004B080BD6B
:1022700001A8FFF759FD0298F8E7C16C11F0405131
:10228000036802680DD113F004030AD0C2F3C10041
:10229000DEE700688000E8D501A8FFF753FE039849
:1022A000E4E7B1F1805F04D112F4807201D00948F3
:1022B000DCE7006810F400301CBF47F64000C0F2B5
:1022C0007D10B1F1005F18BF0020CFE70044025835
:1022D00040787D0100093D000090D0030080BB00E4
:1022E0002DE9F0470446C078B04F000722D5A06E14
:1022F0004FEA3051032908D8DFE801F002090F172F
:10230000F96941F40031F9610FE0012613E004F1AD
:102310000800022103F036F804E004F1280002214D
:1023200003F0B0F8064630B9A06E396C21F44011C4
:102330000843386400266078BA46C00701D13546A4
:102340002AE0A06D04280BD83546DFE800F0030C26
:1023500012181800F869354640F40030F8610EE0B4
:102360000125012719E004F10800002103F00AF813
:1023700004E004F12800002103F084F80546002D54
:102380002F460AD1DAF84000002520F00700A16DA1
:1023900008435246CAF840003746607880072DD57A
:1023A000E06D4FEAB01004280CD8DFE800F0030E0F
:1023B000141A1A00DAF81C00514640F40030CAF82A
:1023C0001C000EE00125012619E004F1080000219F
:1023D00002F0D8FF04E004F12800002103F052F8D5
:1023E0000546002D2E460AD1DAF84000002520F4DB
:1023F000E070E16D08435246CAF840003E466078FE
:10240000400702D4B04657462CE0D4F8A8005746FF
:102410004FEA7050042809D8DFE800F0030C1218C6
:102420001800F86940F40030F8610FE001254FF022
:10243000010817E004F10800002102F0A3FF04E006
:1024400004F12800002103F01DF80546002DA846E0
:1024500008D1B86C002520F46000D4F8A810084317
:10246000B046B864607800072CD5D4F8AC004FEAC9
:102470003060042809D8DFE800F0030B11171700BB
:10248000F86940F40030F8610EE0012501271AE0F8
:1024900004F10800002102F075FF04E004F12800B7
:1024A000002102F0EFFF0546002D2F460BD1DAF890
:1024B0004800002520F0E060D4F8AC1008435246F4
:1024C000CAF848004746E078800726D5E06C4FEA16
:1024D000301003280BD8DFE800F013020D13DAF8F0
:1024E0001C00514640F40030CAF81C0008E00125E9
:1024F000012613E004F10800022102F043FF054623
:10250000002D2E460AD1DAF83C00002520F03000DC
:10251000E16C08435246CAF83C003E466078C0066B
:102520002DD5206E4FEA303004280CD8DFE800F0BB
:10253000030E141A1A00DAF81C00514640F4003059
:10254000CAF81C000EE00125012719E004F108007B
:10255000002102F017FF04E004F12800002102F03E
:1025600091FF0546002D2F460AD1DAF840000025DC
:1025700020F4E040216E08435246CAF84000374636
:102580006078800627D5606E4FEA304005280AD86B
:10259000DFE800F014030E14141404F10800012104
:1025A00002F0F0FE09E00125012615E01044025872
:1025B00004F12800012102F065FF0546002D2E469A
:1025C0000AD1DAF84000002520F4E020616E0843CB
:1025D0005246CAF840003E466078400627D5D4F8F7
:1025E000B0004FEA307005280AD8DFE800F0120387
:1025F0000C12121204F10800012102F0C3FE07E0E0
:102600000125012714E004F12800012102F03AFF1E
:102610000546002D2F460BD1DAF84800002520F0A2
:10262000E040D4F8B01008435246CAF84800374694
:102630006078000622D5206F98B1B0F1005F0AD013
:10264000B0F1805F2ED1DAF81C00514640F4003022
:10265000CAF81C0005E004F10800012102F092FE16
:102660000546002D2E460AD1DAF84000002520F05C
:102670004050216F08435246CAF840003E46E07879
:10268000C00702D1B046574624E0A06C5746032845
:102690000BD8DFE800F014020E14F86940F40030A3
:1026A000F8610CE001250126E9E701254FF001085A
:1026B00010E004F10800022102F064FE0546002D3E
:1026C000A84607D1F86B002520F00300A16C084351
:1026D000B046F863A078400601D4474617E0D7F823
:1026E000F00340F48070C7F8F003FEF72FFF0646B2
:1026F000D7F8F003C00507D4FEF728FF801B642835
:10270000F6D90325032702E0002D2F4612D02078AA
:10271000C00750D0E06F4FEAF000052835D8DFE859
:1027200000F03D03373D3D3D04F10800012102F07A
:1027300029FE32E0DAF860105346D4F8B400414084
:1027400011F4407F0BD0196E1A6E21F4407142F4DF
:1027500080321A661A6E22F480321A661966B0F553
:10276000807F40F07282FEF7F1FE064641F2883922
:1027700003250327DAF86000800700F16382FEF783
:10278000E5FE801B4845F5D9C1E70125012613E088
:1027900004F12800012102F075FE0546002D2E46A9
:1027A0000AD1DAF84400002520F03800E16F084330
:1027B0005246CAF844003E462078800723D5A06FD1
:1027C00005280AD8DFE800F012030C12121204F1F7
:1027D0000800012102F0D6FD07E00125012713E0E2
:1027E00004F12800012102F04DFE0546002D2F4680
:1027F0000AD1DAF84400002520F00700A16F084351
:102800005246CAF8440037462078400725D5D4F808
:10281000940005280AD8DFE800F012030C12121207
:1028200004F10800012102F0ADFD07E001250126B9
:1028300014E004F12800012102F024FE0546002DD9
:102840002E460BD1DAF84800002520F00700D4F816
:10285000941008435246CAF848003E462078800645
:1028600027D5D4F890004FEA307005280AD8DFE861
:1028700000F012030C12121204F10800002102F001
:1028800081FD07E00125012714E004F12800022161
:1028900002F0F8FD0546002D2F460BD1DAF8440072
:1028A000002520F0E040D4F8901008435246CAF8C2
:1028B000440037462078400627D5D4F89C004FEADC
:1028C000B02005280AD8DFE800F012030C1212121B
:1028D00004F10800002102F055FD07E00125012662
:1028E00014E004F12800022102F0CCFD0546002D81
:1028F0002E460BD1DAF84800002520F4E050D4F839
:102900009C1008435246CAF848003E46207800060C
:1029100027D5D4F8A0004FEA703005280AD8DFE8A0
:1029200000F012030C12121204F10800002102F050
:1029300029FD07E00125012714E004F12800022108
:1029400002F0A0FD0546002D2F460BD1DAF8480015
:10295000002520F46040D4F8A01008435246CAF87D
:10296000480037462068010717D5D4F88410B1F520
:10297000805F0AD104F12800022102F083FD0028C3
:10298000206818BF0127D4F88410DAF84420534691
:1029900022F440521143CAF84410C10617D5D4F8A6
:1029A0009810B1F5807F0AD104F12800022102F0CD
:1029B00069FD0028206818BF0127D4F89810DAF8BC
:1029C0004820534622F440721143CAF848100003CD
:1029D00022D5D4F8A400B0F5003F0FD0B0F5803F69
:1029E00006D088BB04F10800002102F0CBFC04E013
:1029F00004F12800022102F045FD0546002D2E4677
:102A00000BD1DAF84800002520F44030D4F8A410A7
:102A100008435246CAF848003E46A07840072AD5E7
:102A2000D4F88800B0F5401F17D0B0F5001F0ED0C5
:102A3000B0F5801F40F00181DAF81C00514640F4E7
:102A40000030CAF81C0008E001250126E5E704F182
:102A50002800012102F016FD0546002D2F460BD15E
:102A6000DAF84400002520F44010D4F88810084318
:102A70005246CAF844003746A078C00701D13E4606
:102A800022E0206DB0F5803F08D0D8B9DAF81C00FC
:102A9000514640F40030CAF81C0005E004F108007B
:102AA000022102F06FFC0546002D2E460CD1DAF80B
:102AB0003C00002520F48030216D08435246CAF8BE
:102AC0003C00DCE7012501262168880001D460680C
:102AD00009E004F12800022102F0D4FC002818BF0C
:102AE0000126D4E900108A031BD5D4F880206FF0AA
:102AF000010303EB3223022B0BD34FEA322343B102
:102B0000012B40F09D80DAF81C3043F40033CAF802
:102B10001C303DB9DAF8443023F440731A43CAF844
:102B200044203546CA0207D5DAF8402022F0004298
:102B3000636F1A43CAF84020CA0008D5DAF80020AB
:102B400022F48042D4F8B8301A43CAF800208A022E
:102B500007D5DAF8402022F08072E36E1A43CAF8F3
:102B600040204A000CD5DAF8002022F40042CAF8CE
:102B70000020D4F8BC20DAF800301A43CAF800204C
:102B8000B1F1FF3F07DCDAF83C2022F04052636DE0
:102B90001A43CAF83C20090208D5DAF8441021F497
:102BA0004001D4F88C201143CAF84410C10708D062
:102BB00004F10800002102F0E5FB002818BF0546DB
:102BC0006068810708D504F10800012102F0DAFBF2
:102BD000002818BF05466068410708D504F10800C1
:102BE000022102F0CFFB002818BF054660680107EC
:102BF00008D504F12800002102F044FC002818BF89
:102C000005466068C10608D504F12800012102F0DC
:102C100039FC002818BF05466068800603D44DB112
:102C20000120BDE8F08704F12800022102F02AFC0F
:102C30002843F5D10020BDE8F087012501271BE7D7
:102C400001256FE75346D4F8B40000F440711A68C8
:102C5000B1F5407F22F47C5103D1064A02EA1012FA
:102C6000114319606FF31F30196E00250843186671
:102C700033E500BFCFFFFF002DE9F843002800F047
:102C8000FE800446804B186800F00F00884688429A
:102C90000BD2186820F00F0040EA0800186018688E
:102CA00000F00F00404540F0EA802068CF4F410718
:102CB0000AD52169BA6902F07002914204D9BA6951
:102CC00022F070021143B96101070AD56169FA69FE
:102CD00002F07002914204D9FA6922F070021143A5
:102CE000F961C1060AD5A169FA6902F4E06291426C
:102CF00004D9FA6922F4E0621143F96181060AD528
:102D0000E1693A6A02F07002914204D93A6A22F00B
:102D100070021143396281070AD5E168BA6902F08D
:102D20000F02914204D9BA6922F00F021143B9612E
:102D3000C10736D0B86920F47061D4E901021143AB
:102D40000328B96105D0022807D1396889030DD459
:102D500095E03968890109D491E00128396802D1E8
:102D6000C90503D48BE0490740F189803969994648
:102D700021F0070108433861FEF7E8FB064641F2FF
:102D80008835386900F038006168B0EBC10F06D0B3
:102D9000FEF7DCFB801BA842F3D9032070E020681B
:102DA0004B4681070AD5E168BA6902F00F029142E9
:102DB00004D2BA6922F00F021143B961196801F017
:102DC0000F0141450AD9196821F00F0141EA0801B4
:102DD0001960196801F00F01414550D141070AD52A
:102DE0002169BA6902F07002914204D2BA6922F0F4
:102DF00070021143B96101070AD56169FA6902F0ED
:102E00007002914204D2FA6922F070021143F96112
:102E1000C1060AD5A169FA6902F4E062914204D2BE
:102E2000FA6922F4E0621143F96180060AD5E0698B
:102E3000396A01F07001884204D2396A21F07001C8
:102E40000843386200F064F8B969C1F303212F4ADE
:102E5000515CBB6903F00F03D25C01F01F0120FA43
:102E600001F102F01F00184A21FA00F01060174A21
:102E7000064800681160BDE8F843FEF72BBD01204D
:102E800001B0BDE8F08300BF002000521000002414
:102E900080B500F03DF80B490A68C2F303220968C7
:102EA0001A4B01F00F019A5C595C02F01F0220FAE4
:102EB00002F201F01F00044922FA00F00860034901
:102EC0000A6080BD18440258180000241400002431
:102ED00080B5FFF7DDFF0C490C4A0968C1F3021108
:102EE000515C01F01F01C84080BD00BF80B5FFF7F5
:102EF000CFFF0549054A0968C1F30221515C01F081
:102F00001F01C84080BD00BF1C4402586C960008D9
:102F100036490869C0F3C20003280CD0022828D023
:102F200048BB08688006374858BF70470968C1F336
:102F3000C101C84070478A6A886AC0F3051CCB6A21
:102F4000486B03F00103C0F3CC00BCF1000F10FB91
:102F500003F000EE100AB8EE400A0ED002F00302B1
:102F6000022A0CD072B9086880060ED49FED241A8C
:102F700015E0204870471E487047002070479FEDBD
:102F80001F1A0CE09FED1C1A09E008681D4AC0F3E7
:102F9000C10022FA00F001EE100AB8EE411A02EE6A
:102FA00010CA9FED193AB8EE422A086B6FF35F2002
:102FB00081EE021A02EE100AB8EE422A086BC0F344
:102FC000462000EE032AB7EE000A013032EE000A76
:102FD00021EE000A01EE100AB8EE411A80EE010A55
:102FE000BCEEC00A10EE100A704700BF0044025841
:102FF00000093D0040787D010024744A20BCBE4B8E
:103000000024744C0090D00300000039F8B500286B
:1030100000F0B48104460078D74EC00721D1207853
:10302000800740F1B180306910F03801B06A3CD0BF
:10303000182908BF5FEA807037D0E068002831683F
:103040005CD021F0190108433060FEF77FFA054695
:103050003068400743D4FEF779FA401B0228F7D9BD
:10306000A0E1306900F03801B06A102905D01829B4
:103070000AD100F00300022806D130688003CED5C3
:1030800060680028CBD179E16068002847D0B0F5AE
:10309000803F06D0B0F5A02F30685ED140F480208C
:1030A0003060306840F480305DE030684007E068B0
:1030B00002D5002800F06281316821F0190108432F
:1030C0003060FEF743FA05463068400707D4FEF744
:1030D0003DFA401B02284FF00300F5D963E1FEF7EB
:1030E0002FFA41F20301884230D8206971684028E4
:1030F00021F47C3145D141F4003044E021F001005D
:103100003060FEF723FA0546306840073CD5FEF7ED
:103110001DFA401B02284FF00300F5D943E1306847
:1031200020F480303060306820F480203060FEF77A
:103130000DFA0546306880037FF571AFFEF706FA99
:10314000401B64284FF00300F4D92CE1706820F094
:10315000FE40216940EA016015E020F480303060D3
:10316000306820F480203060FEF7F0F905463068C2
:1031700080033FF554AFFEF7E9F9401B6428F6D908
:1031800010E141EA003070602078C00653D5306904
:1031900000F03801B06A082905D018290BD100F0D9
:1031A0000300012807D13068C00519D5E0698028DF
:1031B00040F0E48014E0E0690028306827D040F057
:1031C00080003060FEF7C2F905463068C00507D4BC
:1031D000FEF7BCF9401B02284FF00300F5D9E2E0EE
:1031E000FEF7AEF941F20301884208D8206A7168FF
:1031F000202821F0F8411BD141F080401AE0F0680E
:1032000020F07C50216A40EA0160F06013E020F079
:1032100080003060FEF79AF905463068C0050AD58F
:10322000FEF794F9401B02284FF00300F5D9BAE0ED
:1032300041EA806070602078000723D5606900282B
:10324000706F0ED040F001007067FEF77FF9054601
:10325000706F800716D4FEF779F9401B0228F7D962
:10326000A0E020F001007067FEF770F90546706F6E
:10327000800707D5FEF76AF9401B02284FF00300CC
:10328000F5D990E02078800623D5A0690028306821
:103290000ED040F480503060FEF758F90546306893
:1032A000800416D4FEF752F9401B0228F7D979E0C2
:1032B00020F480503060FEF749F9054630688004FC
:1032C00007D5FEF743F9401B02284FF00300F5D95C
:1032D00069E02078400753D4656A002D00F00D8125
:1032E000306900F0380018286ED1B16A012D306BBA
:1032F00044D001F00302A36A9A423FD1C1F3051101
:10330000E26A91423AD10146226B6FF35F21013AA2
:10331000914233D1C0F34621626B013A91422DD1E3
:10332000C0F30641A26B013A914227D1C0F3066077
:10333000E16B0139884221D1706BC0F3CC00A16CE4
:10334000814200F0DA80F06A20F00100F062FEF7BE
:10335000FDF80546FEF7FAF8A842FBD0706B4FF671
:10336000F8718843A16C40EAC1007063F06A40F0D4
:103370000100F062C1E000BF00440258012012E0E9
:10338000D6F8000440F48070C6F80004FEF7DEF8BA
:103390000546D6F80004C00507D4FEF7D7F8401B51
:1033A0006428F6D9032001B0F0BDA06860B30128FD
:1033B00006D00528306F40F0A28040F0040030674E
:1033C000306F40F00100A0E0306820F08070306085
:1033D000FEF7BCF8022D05460AD1306880012CD5D5
:1033E000FEF7B4F8401B02284FF00300F5D9DAE7E6
:1033F0003068800140F18180FEF7A8F8401B022868
:103400004FF00300F4D9CEE7306F20F001003067B1
:10341000306F20F004003067FEF798F8054641F25F
:103420008837306F80077FF557AFFEF78FF8401B66
:10343000B8424FF00300F4D9B5E7B06A40F2F33177
:103440008843A16A226B0843511E626B4FF47E438E
:1034500003EB4222E36A6FF35F2192B240EA03106A
:10346000B0625018A16B4FF4FE0202EB014101F46F
:10347000FE010844E16B4FF0FE4202EB016101F0F6
:10348000FE41084430634FF6F871F06A20F0010005
:10349000F062706B8843A16C40EAC1007063F06A0F
:1034A00020F00C00216C0843F062F06A20F002006A
:1034B000616C0843F062F06A40F48030F062F06AB8
:1034C00040F40030F062F06A40F48020F062F06A6C
:1034D00040F00100F062306840F080703060FEF72C
:1034E00035F804463068800107D4FEF72FF8001B3A
:1034F00002284FF00300F5D955E7002053E720F0EC
:1035000001003067306F20F004003067FEF71EF8CE
:10351000054641F28837306F80073FF5DDAEFEF794
:1035200015F8401BB8424FF00300F4D93BE7000008
:10353000B0B588B3044690F8210028B9002084F87B
:103540002000204600F03EF8022084F82100206888
:10355000C168C9062FD4CA21416253214162204665
:1035600002F028F8A0B994E80310E368144D8268CB
:103570002A40826022691143A26911438268114383
:10358000816043EA0C410161204602F035F828B120
:103590002168FF224A62B0BD0120B0BD2068616988
:1035A000E269C36C114323F00303C364C26C11438B
:1035B000C164FF214162012084F821000020B0BDD8
:1035C000BFFF8FFF10B5B0B004466846C021FCF7BE
:1035D000D7FE20680B49884212D1002001904FF499
:1035E000800000904FF400702D906846FEF778FE42
:1035F00008B1FDF711FB0448016841F40041016086
:1036000030B010BD00400058704402582DE9F84316
:10361000044690F8200001284FF0020047D0012313
:1036200084F82030002A84F8210091F800804F7837
:103630008D78C87803D0000440EA072612E0FA0625
:1036400004D507F0EF0202F10A074F70DFF8389156
:10365000C8470646F8B2C847000240EA0646284670
:10366000C84705462068CA2141625321416220466D
:1036700001F0A0FF0028216802D0FF224A6213E077
:1036800046EA05024FEA483022F0C0021043486083
:10369000204601F0B1FFFF2122680028516203D1CA
:1036A000012084F821000020002184F8201001B0BE
:1036B000BDE8F0832DE9F047044690F8200001288A
:1036C0004FF002005ED00D46012184F82010CA217F
:1036D00084F8210016462068416253214162204649
:1036E00001F068FF0028276802D0FF21796246E0D8
:1036F000B868002E00F0400004D040B1E8784FEAEE
:10370000805908E070B1E8784FEA80590EE04FF038
:10371000000985F8039069782A78A878090241EAB7
:10372000024610E04FF0000985F803902878DFF892
:1037300058A0D047697880460846D0470102A8784B
:1037400041EA0846D0473043104940EA09000840A2
:103750003860B86820F48020B860D5E903010843D8
:10376000B9680843B860204601F046FFFF2122688F
:103770000028516203D1012084F82100002000219B
:1037800084F82010BDE8F087895500087F7F7F000E
:10379000B0B5044600680949C160FDF7D7FE05468B
:1037A0002068C068800607D4FDF7D0FE401BB0F546
:1037B0007A7FF5D90320B0BD0020B0BD5FFF0300C4
:1037C000704770477047704708B3B0B5044690F82B
:1037D0002C000D4628B9002084F82D00204600F06A
:1037E0001BF8022084F82C00211D2068FDF744FA04
:1037F000D4E900022946FDF791FA0648016841F034
:1038000000410160012084F82C000020B0BD01209F
:10381000704700BF004000522DE9F047B8B033A810
:103820001421FCF7ADFD3348017800295ED1012158
:1038300002AC017004F10800B821FCF7A1FD4FF0C3
:1038400080704FF0000802902046CDF80C80CDF833
:103850005080FEF745FD08B1FDF7DEF92648016806
:1038600033AD41F48051254C254E01604FF00209E3
:1038700000684FF0030A00F4805001900C27019873
:1038800029464FF63F00339004F50060CDE93498A7
:10389000CDF8D8A03797B0472C20CDE9330904F5EF
:1038A00080502946CDE9358A3797B04748F237101E
:1038B000CDE9330904F540602946CDE9358A3797CB
:1038C000B0474FF68370CDE9330904F5806029468F
:1038D000CDE9358A3797B0474CF20370CDE933090B
:1038E00020462946CDE9358A3797B04738B0BDE83C
:1038F000F08700BF60000024D4440258000C025836
:103900009D130008B0B5054690F82C00022801D19F
:1039100002240DE095F82C000124012808D1022092
:1039200085F82C002868FDF7D8F985F82C4000248C
:103930002046B0BDB0B5044690F82C000D460528D1
:1039400003D002280ED001280BD1022084F82C00CD
:1039500029462068FDF7CBF92868022803D1052005
:1039600002E00120B0BD012084F82C000020B0BD91
:103970002DE9FF41032280F830200446806B0D467C
:1039800003280BD14FF08050616BBF4F0843606339
:10399000606B40B320688763012596E0002D4CD012
:1039A000B5F5004FEED0B5F5804F5CD10020CDE9E4
:1039B00002002068002102F08FF9800156D402A98C
:1039C000204602F02DFA0028DED19DF80E004007B7
:1039D00046D5616C2068090401F03CFE0028D3D173
:1039E000206802215AE04FF480300021FEF730FBBE
:1039F000F0B13F49B0FBF1F36669D4E90112D4F8A4
:103A000010C09E425AD2BE46A76DB7F5007F54D073
:103A1000B7F5807F2DD1002E354B42D07700B0FB1B
:103A2000F7F79F42774649D9334BB0FBF3F645E0B1
:103A3000606B40F000606063AEE70020CDE90200FB
:103A40002068002102F048F980010FD402A9204625
:103A500002F0E6F9002897D19DF80E00C00713D1B7
:103A60004FF0806090E74FF000608DE74FF400600A
:103A70008AE7002E1F4F1AD0B8467700B0FBF7F048
:103A8000404588BF1E4618E0616C2068090401F0BB
:103A9000E1FD00287FF478AF2068002101F022FECC
:103AA00072E7984208D9144BB0FBF3F605E0B84230
:103AB00098BF00231E4600E00026774620682B466C
:103AC000CDE900C602F00CF9002520684FF4007122
:103AD00001F0EFFD28B1216801258F63616B084378
:103AE0006063012084F83000284604B0BDE8F0810E
:103AF00080F0FA0240787D0100E1F5057047000092
:103B000080B5D0F838C0D0E9173E9A0F0A70C3F3D9
:103B10008362BCF1010F4A70C3F301628A704FEAFD
:103B20001342CA704FEA13220A714FEA1E524B71B8
:103B30004FF00003CA80CEF303420A72CEF3C032C4
:103B40004A72CEF380328A72CEF34032CA72CEF31A
:103B500000320A734B7337D0BCF1000F40F08780FE
:103B600040F6FC72436E02EA8E0242EA93720A61E8
:103B7000426EC2F3C2630B75C2F302634B75C2F3AC
:103B800042538B75C2F38243CB75C2F3C2330B76BB
:103B9000D1F810C00B7E0CF1010C03F007030233C7
:103BA0000CFA03FCC0F848C00B7A03F00F0E012397
:103BB00003FA0EFE4FEA5E2303FB0CF3C0E913E3A6
:103BC0004FF40073436512E0B0F866200EF03F0337
:103BD00042EA03420A614FF480630A6903EB8222DE
:103BE0004FF40073C0E91223C0E91423426EC2F3FC
:103BF00080334B76C2F3C61302F07F028B76CA760F
:103C0000806EC20F0A77C0F341724A77C0F38262B6
:103C10008A77C0F38352CA77C0F3405281F82020DC
:103C2000002281F82120C0F3004381F82230C0F344
:103C3000C03381F82330C0F3803381F82430C0F3DF
:103C4000403381F82530C0F3003381F82630C0F3CB
:103C5000812381F82730C0F30123C0B281F82830D6
:103C6000400881F82900012081F82A0009E0016854
:103C70007A4A8A630122416B41F08051416380F8A6
:103C80003020104680BD00BFFF0FE01F80B500F15F
:103C9000380E9EE80C5081E80C50826C0A61C26CB0
:103CA0004A61026D8A61426D0020CA6180BD10B513
:103CB000416C04460068090401F000FE20B1616B0C
:103CC00008436063002010BD2068002102F004F862
:103CD000C0F3432010BD00002DE9F04397B0044627
:103CE00090F83000032801D1012543E00D465B4EDA
:103CF000FDF72CFC80462068002101F0EDFF8001DB
:103D000023D42068402101F0D4FCD0B9616C206834
:103D1000090401F09FFCA0B94FF0FF301190402042
:103D20001290602013900220149000201590012022
:103D3000169011A9206801F06BFE206801F0F0FDDB
:103D4000E0B10146606B606301E04FF40061206800
:103D500001258663626B1143616384F830504FF430
:103D6000007101F0A6FC28B1216801258E63606313
:103D700084F83050284617B0BDE8F08301AFB14653
:103D80002068416B11F4957F416B16D108040BD567
:103D9000002605E0206801F0BEFF47F82600013646
:103DA000082EF7D120374E46FDF7D0FBA0EB0800D8
:103DB00001304FF00041E3D1C9E7090747D4416B17
:103DC000890746D4416B89060CD52021BFE701F055
:103DD000A2FF3860FDF7BAFBA0EB080001303AD033
:103DE00004372068416BC904F1D4B34981636FF093
:103DF000FF0EDDE9011CCBB2DDE903769A092A70DA
:103E0000C3F340120EEA112343EA11616A7069801C
:103E10009CFA8CF16960390A2F72F2B26972C7F3A9
:103E200003510EEA1743A972D118A981C6F385215F
:103E3000A973C6F30121E9731109297406F00F0172
:103E400069744E469DF81710A974002587E708216C
:103E50007DE702217BE74FF0004178E7FF0FE01F8D
:103E6000F8B504460068E56A15F00806416B18BF0E
:103E700011F400415ED1416BC90579D4002E416B2C
:103E800018BF11F4804140F0C080416B11F03A0F2F
:103E9000416B00F0E080890703D5616B41F00201BE
:103EA0006163416B090703D5616B41F008016163F0
:103EB000416B890603D5616B41F020016163416B61
:103EC000C90603D5616B41F0100161637A498163D2
:103ED000C16B21F49D71C163C16821F04001C160D3
:103EE000C16A41F40051C162C16841F08001C16002
:103EF00001F030FD2168002E626B40EA0200606331
:103F00004FF40062C86820F08000C8608A6340F007
:103F1000A580280640F1A180606B002800F09D80FC
:103F2000C86B20F08050C86300200865012084F829
:103F3000300098E0A06A2028C0F08F80656A0026D3
:103F40000CE0206805EB860701F0E5FE010A3870F9
:103F50007970010C000EB970F8700136082EF0D19E
:103F600005F12000A16A6062A1F12000A062F8BD05
:103F70004FF4807181634CF23A12C16B002E21EA3A
:103F80000201C163C16B21F08051C163C16821F09E
:103F90004001C1601ED129065FD5002615F0220F11
:103FA0008662C662066508D001F0D4FC28B1616B58
:103FB000084360632046FFF7A1FD012015F0300F94
:103FC00084F83000E66202D0204600F0D5FAA80757
:103FD00016D142E015F0220F08D001F0BBFC28B149
:103FE000616B084360632046FFF788FD2068324913
:103FF000012281630020A90784F83020E06237D0D5
:104000002046BDE8F84000F0B5BA206A202824D345
:104010000027E6696D4614E006EB87000178009101
:10402000427841EA02210091827841EA02410091FE
:10403000C07841EA006000902946206801F084FEC3
:104040000137082FE8D106F12000216AE061A1F1D3
:1040500020002062F8BDC9000FD4F8BD012084F80B
:1040600030000020E0622046BDE8F840FFF746BD82
:104070002046BDE8F84000F07FBA4FF080518163E0
:10408000006D400705F0200005D450B12046BDE882
:10409000F840FFF798BB48B12046BDE8F840FFF76D
:1040A00091BB2046BDE8F840FFF78BBB2046BDE83A
:1040B000F840FFF785BB00BF3A0F0018B0B586B0D7
:1040C00050B3044690F8300020B9002020762046F6
:1040D00000F082F9042084F83000204600F03CF81B
:1040E000D0B901A92046FFF7F7FDA8B99DF8140043
:1040F0009DF81510A26B012A04D1084304D04FF497
:10410000007003E0002001E04FF48070A0652046BD
:10411000E168FFF72DFC10B1012006B0B0BDFDF73E
:1041200015FA05462046FFF7C2FD04280CD0FDF71E
:104130000DFA401B0130F5D14FF0004060630120C3
:1041400084F830000320E8E7002001216063E0628A
:1041500084F83010E1E700002DE9F0438FB081468C
:104160004FF4803000210027FDF772FFD8B3964C42
:10417000B0FBF4F60546D9F80000002100970022B4
:104180000023019601F0ACFDD9F8000001F0BCFD60
:10419000A54205D3B5EB460F08D37000B5FBF0F58B
:1041A0008A48B0FBF5F00130FDF7E6F800200490F6
:1041B000D9F8000001F0B0FA002871D1D9F8000058
:1041C00001F0D4FAB0F1004F13D10020C9F83C003F
:1041D000D9F8000001F0A0FA002861D1D9F83C001C
:1041E000012809D00FE001214FF0006089F830105C
:1041F0005CE00120C9F83C00D9F80000002101F082
:1042000029FA00284AD10021724D4FF6FE7600208F
:1042100010E0D9F80000294601F035FAF0BBD9F8D2
:104220000000002101F058FD049901310491C0F310
:104230008071C00F0028049809D1B04207D8D9F87E
:104240000000002101F006FA0028E2D028E00498DE
:104250004FF6FF72904202D34FF0807020E00020B2
:10426000C9F83810ADF80E00FDF770F90546D9F819
:10427000000001F02DFDF8B1D9F8380003281ED157
:10428000D9F80000042101F027FD000DC9F8400015
:1042900004A94846FFF734FC002871D04FF0805045
:1042A000012189F83010D9F834201043C9F83400BE
:1042B00008460FB0BDE8F0834FF08060F0E7D9F812
:1042C000000001F0B6FA0028EAD1D9F80000002178
:1042D000DFF8FC80C047C9F86C000421D9F8000061
:1042E000C047C9F870000821D9F80000C047C9F8D4
:1042F00074000C21D9F80000C047D9F83810032900
:10430000C9F87800BCD000200DF10E0641F28737C5
:104310000DE0D9F80000314601F0E9FA0028BFD1DC
:10432000FDF714F9401BB8424AD8BDF80E0000282A
:10433000EFD0D9F838100329A2D081B2C9F84410BF
:104340000904D9F8000001F08AFA0028A8D1D9F8A8
:1043500000000021C047C9F85C000421D9F8000022
:10436000C047C9F860000821D9F80000C047C9F863
:1043700064000C21D9F80000C047C9F868007FE745
:10438000D9F84410D9F80000090401F039FA0028DE
:104390007FF486AFD9F800004FF4007101F089F97D
:1043A00060B1D9F80010A84A8A63D9F834100843DC
:1043B0000121C9F8340089F8301079E7002177E746
:1043C0004FF000406CE700BF00350C0010210100E9
:1043D000D95C0008000010C12DE9F043B7B00446D5
:1043E00032A81421FBF7CCFF02A8C021FBF7C8FFBD
:1043F00020682A4988424ED14FF480304FF000089F
:10440000029002A8CDF80C80CDF85880FDF768FF27
:1044100008B1FCF701FC2248016832AC41F480315C
:10442000204D01604FF002090168032601F480313C
:1044300001910C270199C16841F00401C160C16874
:1044400001F0040101910199C16841F00801C160C6
:104450002146C06800F00800019001984FF4F85020
:1044600032902846CDE9339835963697FCF796FF7B
:104470000420CDE9320905F580602146CDE9348676
:104480003697FCF78BFF312000210022FDF7E6FB79
:104490003120FDF7D5FB37B0BDE8F0830070005246
:1044A000D444025800080258F0B587B000290446E9
:1044B00010D094F83000012812D10E46002161631B
:1044C00015469818226D1F4690420BD9606B40F03C
:1044D000007002E0606B40F000606063012046E025
:1044E000022044E0032084F830004FF0FF332068BE
:1044F000A26BC162012A01934FEA4723C4E9096311
:1045000002934FF0900303934FF00203049305913D
:1045100018BF6D02069101A901F07AFA2068022FF6
:10452000C16841F04001C1604FF00101866501653D
:1045300005D38221E162294601F030F904E08121AE
:10454000E162294601F043F9002821680AD03E4A79
:104550008A63616B084360630120002184F83000A6
:10456000E16204E0C86B40F49570C863002007B0B6
:10457000F0BD00BFFCF70ABBFCF746BB2DE9F041DC
:1045800086B00029044610D094F83000012812D1DA
:104590000E460021616315469818226D1F46904211
:1045A0000BD9606B40F0007002E0606B40F000607F
:1045B0006063012044E0022042E0032084F83000E0
:1045C0004FF0FF3320684FF09008A26BC162012AC0
:1045D00000934FEA4723C4E907630193CDE90281C1
:1045E000049118BF6D020591694601F011FA206827
:1045F000022FC16841F04001C1604FF001018665A2
:10460000016505D3A021E162294601F0CFF904E05C
:104610002946C4F82C8001F0E2F9002821680AD06C
:10462000094A8A63616B084360630120002184F8B2
:104630003000E16204E0C86B40F48D70C863002074
:1046400006B0BDE8F08100BFFF0FE01F411E002053
:10465000B0EB116F01D001207047044A5160F02186
:10466000034B1970072190601160704710E000E063
:1046700023ED00E090F88410012901D1022112E01D
:104680002421C0F8881002681368116823F00053D1
:1046900021F0010111600021416613602022C0F861
:1046A000882080F8841008467047B0B5044690F81A
:1046B0008400012801D10220B0BD012084F88400CB
:1046C0002420C4F8880020680568026822F00102EE
:1046D0000260826822F0606211438160204601F02E
:1046E00043FE206805602020C4F88800002084F87C
:1046F0008400B0BDB0B5044690F88400012801D113
:104700000220B0BD012084F884002420C4F8880071
:1047100020680568026822F001020260826822F0C7
:10472000604211438160204601F01EFE2068056052
:104730002020C4F88800002084F88400B0BD10B5A3
:10474000E0B10446D0F8880028B9002084F884003D
:10475000204600F027F82420C4F888002068A16AC9
:104760000268002922F00102026002D0204601F016
:1047700025FE204601F00EFF012801D1012010BDC9
:104780002068416821F490414160816821F02A014C
:104790008160016841F0010101602046BDE81040E0
:1047A00001F070BE10B5B8B0044633A81421FBF771
:1047B000E7FD02A8C021FBF7E3FD20681749884206
:1047C0002AD101200024029002A803942194FDF72D
:1047D00087FD08B1FCF720FA1148016941F010018A
:1047E0000161016901F0100101910199016841F035
:1047F0000101016033A9006800F0010001900198F7
:104800004FF4C06033900220CDE934040720369481
:1048100037900448FCF7C2FD38B010BD00100140CD
:10482000E0440258000002582DE9FC410446D0F84B
:10483000880020284DD10E4600294FF001004ED0AF
:104840001746002A4BD04FF000082120C4F8908072
:104850001D46C4F88800FCF779FEA4F85470A4F84B
:1048600056700746A168B1F5805F1FD12069002806
:1048700014BF3046B046064618E08021009500225D
:1048800020463B4602F054F828BB002E206802D098
:1048900016F8011B04E038F8021B00266FF35F21B5
:1048A0008162B4F856000138A4F85600B4F85600F6
:1048B0000028E2D140210095002220463B4602F02C
:1048C00037F800284FF0200118BF0320C4F88810E3
:1048D00005E0022003E02020C4F88800032002B095
:1048E000BDE8F081FEE700688169890701D50021F4
:1048F00081628169C90718BF7047816941F0010170
:10490000816170472DE9F041044600688369DB0648
:1049100002D4002500213DE00D4610211646C1615C
:104920004FF000086F1C002129E037B3FCF70EFEA2
:1049300015B1801BA84220D92068416894F8422014
:10494000202A82690CD011F4804109D112F400416F
:1049500006D0416841F480414160FCF7F7FD06460E
:1049600020688069800608D4FCF7F0FD801B1A28B7
:10497000F6D348F02008012100E000212068826978
:1049800002F020020A43D0D009B92021C16148F0C9
:10499000040501218269D30505D54FF4807145F0E6
:1049A0000105C1610121530505D54FF4806145F032
:1049B0000805C1610121920503D439B90020BDE881
:1049C000F0814FF4007145F00205C1612046FFF708
:1049D0008AFF2068084A416811404160606C2843A2
:1049E0006064202084F84100002084F8420084F8AC
:1049F00040000120BDE8F08100E800FE6FF39F2138
:104A000000681943009B41EA02414268194322EAC7
:104A10005352034B21F000411A401143416070474B
:104A2000009C00FC2DE9F8431D46DDF82080164669
:104A30000F46044603F10109206880693840C01B15
:104A4000B0FA80F04009B04226D1204629464246BD
:104A5000FFF758FFF0B9B9F1000FEDD0FCF776FD84
:104A60001DB1A0EB0800A842E6D920688069384053
:104A7000C01BB0FA80F04009B042DDD1606C40F05C
:104A800020006064202084F84100002084F8420067
:104A900084F84000012000E0002001B0BDE8F08370
:104AA00070B515460E4604462068806980061DD400
:104AB000204631462A46FFF725FFA8B9FCF746FDF8
:104AC00016B1401BB042EFD9206880698006EBD454
:104AD000606C40F020006064202084F841000020D9
:104AE00084F8420084F84000012070BD002070BDB1
:104AF000F8B515460E4604464F1C206880698007AD
:104B00001FD4204631462A46FFF7FCFEB8B9002FD5
:104B1000F3D0FCF71BFD16B1401BB042EDD9206865
:104B200080698007E9D4606C40F020006064202038
:104B300084F84100002084F8420084F840000120FD
:104B400000E0002001B0F0BD00285F484FF0800178
:104B50000CBF01220022FCF7EEBC00BF10B5802183
:104B6000594C2046FCF7E2FCC0F10100C2B28021A2
:104B70002046BDE81040FCF7DEBC00BF8748FCF7CC
:104B8000FFBE00BF10B5034C611C0348FCF748F89A
:104B9000207010BD480000240C97000880B588B034
:104BA000164817490022016001214FF0080C4260AD
:104BB00010238160C0F80CC04FF0400E03614FF429
:104BC000C073C0E905E34FF40063C2614FF4805E37
:104BD000C0E9083E01910921029106218262CDE9D6
:104BE000031C0321CDE90511079101A9FEF7ECFD96
:104BF00008B1FCF711F808B080BD00BFB008002470
:104C000040410052B0B586B000202F4C05902D4891
:104C100000220168802541F004010160016801F073
:104C2000040100910099016841F0200101600168D0
:104C300001F0200100910099016841F080010160BC
:104C4000016801F0800100910099016841F0400184
:104C50000160016801F0400100910099016841F094
:104C600010010160016801F01001009100990168D4
:104C700041F008010160016801F00801009100990C
:104C8000016841F001010160016801F0010100913A
:104C90000099016841F0020101608021006800F084
:104CA0000200009000982046FCF745FC0120019589
:104CB000CDE902000220049001A92046FCF76EFB1A
:104CC00006B0B0BDE0440258001C025810B5124CAA
:104CD000124813492060002061600121C4E90201EB
:104CE00004F110001421FBF74BFB2046FCF77CFC81
:104CF00008B1FBF791FF08480021FCF72BFC08B135
:104D0000FBF78AFF04480021FCF749FC18B1BDE815
:104D10001040FBF781BF10BD500700240054004035
:104D2000B1757030E0B51C4801681D2241F00101E9
:104D300001601B490823006800F001000190019800
:104D4000164801600021C0E901210222C160016111
:104D5000C0E905234FF00072C16101230162C0E97F
:104D60000923C0E90B11C0E90D11FCF7C7FE08B11A
:104D7000FBF752FF002109480022FCF7CDFD08B1E6
:104D8000FBF74AFF7A2000210022FCF767FF7A2018
:104D9000BDE88C40FCF754BFD4440258A40700245B
:104DA0004000005210B586B001A81421FBF7E8FAC4
:104DB00016481749002401607F21FF22009400F16A
:104DC0000803446016C3C0E90544C461FEF7B0FBA4
:104DD00008B1FBF721FF01A90C480122ADF80440FE
:104DE0008DF80640CDE90444FEF764FC08B1FBF7FA
:104DF00013FF08480090694604480122FEF706FCAC
:104E000008B1FBF709FF06B010BD00BF1008002471
:104E10000040005801010100064807490022C0E98E
:104E200000124FF48041C0E902210221C0E90421AF
:104E3000704700BF340800240070005210B5174CB2
:104E400017484FF4E13120600020C4E901100C2123
:104E5000E060C4E9040104F118001421FBF790FAA2
:104E60002046FFF76CFC08B1FBF7D6FE0B4800218B
:104E7000FFF740FC08B1FBF7CFFE08480021FFF721
:104E800014FC08B1FBF7C8FE0448FFF7F3FB18B1A8
:104E9000BDE81040FBF7C0BE10BD00BFE408002411
:104EA00000100140FEE70000E0B51D4801221D4949
:104EB00002F0A2FEB0B101460D2818D11AA004F0EC
:104EC000A3FB4FF4006C17480221204B0022CDF8C1
:104ED00000C002F091FB78B101461DA0BDE88C40F6
:104EE00004F040B92F48BDE88C4004F08DBB2E483B
:104EF000BDE88C4004F036B91FA004F085FB0848DB
:104F00000122084902F078FE28B101462348BDE895
:104F10008C4004F027B92248BDE88C4004F074BBF3
:104F20000C050024490000240D0A4E6F2066696CB0
:104F3000652073797374656D2C20737461727420AD
:104F4000666F726D617474696E670D00840B002466
:104F5000466F726D617474696E67206661696C6515
:104F6000642C206572726F7220636F6465203D202F
:104F700025640D0A00000000466F726D617474694B
:104F80006E67207375636365656465642C20726564
:104F90006D6F756E74696E670D000000CCA200081D
:104FA00066A30008CBA30008EEA20008FEE7E0B568
:104FB00092F800C092F801E05268CDE900E3634640
:104FC00000F046F98CBD000010B5EC4CAE20A047B7
:104FD0000220A0471020A0474020A047B020A047B3
:104FE0008120A047CF20A047A120A047A620A0470E
:104FF000A820A0473F20A047AD20A0478B20A04776
:105000003320A047C820A047D320A0470020A047B6
:10501000D520A047C020A047D920A0471F20A047E7
:10502000DA20A0471220A047DB20A0474020A0475D
:10503000D1484FF48061FBF7A3F900F077F9AF2076
:105040002146BDE81040084780B5CB484FF4806149
:10505000FBF796F980BD00BFBCB593F800E0203A9D
:1050600093F801C00EF107045B68E408069D12FB8B
:105070000CF202FB04326346CDE900E500F0E8F8EB
:10508000BCBD2DE9F04F89B01C461B782646049123
:10509000073316F8017FDB0803967B4305929146A0
:1050A00004335FFA83FB8046CBF104004FF0000A23
:1050B000029054E019FA8AF7384601F087FC00287C
:1050C00053D0CDE9065A94F8089006464FF0FF3ABF
:1050D000CDF8208000200AF1010ACA451CD265687B
:1050E00000EB0B08291838463246FBF754F9002824
:1050F0004046F0D102982178284400EB0802DDF800
:10510000208063785FFA88F00091129901910499E8
:1051100000F09EF803981BE0012EE3680CD1DDF847
:1051200020805FFA88F0129900910499069AFFF79F
:1051300093FFE06801260AE0DDF8208020225FFA74
:1051400088F0129900910499FFF786FFE06801301A
:105150000078DDF81CA0DDF81490B24480441FFAFA
:105160008AF019F80050002DA4D109B0BDE8F08FE5
:10517000E0B50B46024604484FF0FF3C7821CDF8DD
:1051800000C0FCF789FA8CBD50070024024A0221B6
:1051900050701046FFF7ECBF840400242DE9FC4159
:1051A00001F00706054602FA06F0CC08174607216B
:1051B000C2B29846CDE9001320462946334600F096
:1051C00087F876B1C6F10801CDF80480721E27FA7F
:1051D00001F1D3B2CAB2601C00930023294600F04B
:1051E00077F8BDE8FC812DE9FE4301F00705DDF805
:1051F00028805C19CE088146092C02FA05F01BD3E1
:1052000017460721C2B2CDE90018304649462B4661
:1052100000F05EF8C5F10801CDF80480A4F10902A0
:1052200027FA01F1D3B2CAB2701C00930023494699
:1052300000F04EF8BDE8FE83611EC9B2C2B2CDE9EE
:105240000018304649462B4600F042F8BDE8FE8380
:105250002DE9FE4F0C9E99460F46DDF834B0F50857
:1052600001920026029015E002984FF000083418D1
:10527000DDF804A00BE007EBC8001AF80620C1B265
:10528000E0B25B46FFF78AFF08F10108CA44A8456F
:10529000F1D301364E45E7D10C9810F0070415D034
:1052A00000F0F8003844C7B2019815FB0905002644
:1052B0000AE0029839463044AA5DC0B2CDF800B089
:1052C0002346FFF790FF0136B145F2D1BDE8FE8FCE
:1052D00007282AD84FFA81FCBCF1000FB8BF7047ED
:1052E00010B5DDF80CC04FF4FF7EBCF1000FDDF807
:1052F00008C00EFA0CFC204CC3F1080E18BFD243B4
:10530000FF2323FA0EF304EBC01043EA0C03445CC2
:10531000134323406FF0FF0444FA0EF424EA0C0414
:1053200022401A434254BDE8104070472DE9F04135
:10533000DFF84080402000270F4D104C08F1010697
:1053400088F8000012E0A7F15000C0B2A047022088
:10535000A0471020A047802230462946FAF7E9FFEF
:1053600081214046FFF704FF01378035082FEAD13D
:10537000BDE8F08186040024840000248D510008DB
:1053800070470000F8B57F4FBA6A02F00302032AA3
:1053900001D1012074E00546386820F080600C4699
:1053A0003860FCF7D3F806463868000105D5FCF7ED
:1053B000CDF8801B0228F7D95FE0B86A4FF47E432E
:1053C000696820F47C30AA68013903EB42222B681B
:1053D0006FF35F2192B240EA03301144EA684FF460
:1053E000FE03B86203EB024202F4FE028818296948
:1053F0004FF0FE4202EB016101F0FE410844B86348
:10540000002CF86A20F0C000696940EA0100F862E7
:10541000F86A20F02000A96940EA0100F8624FF61E
:10542000F871F86A20F01000F862F86B20EA0100C9
:10543000E96940EAC100F863F86A40F01000F862D8
:1054400005D0012CF86A06D140F4801005E0F86A16
:1054500040F4002001E040F40010F862386840F0A9
:1054600080603860FCF772F804463868000106D4A2
:10547000FCF76CF8001B0328F7D3032000E00020A2
:1054800001B0F0BDF8B53F4FBA6A02F00302032A3B
:1054900001D1012074E00546386820F080500C46A8
:1054A0003860FCF753F806463868800005D5FCF7ED
:1054B0004DF8801B0228F7D95FE0B86A4FF47E43AD
:1054C000696820F07C70AA68013903EB42222B68DE
:1054D0006FF35F2192B240EA03501144EA684FF43F
:1054E000FE03B86203EB024202F4FE028818296947
:1054F0004FF0FE4202EB016101F0FE4108443864C6
:10550000002CF86A20F44060696940EA0100F86202
:10551000F86A20F40070A96940EA0100F8624FF6C9
:10552000F871F86A20F48070F862786C20EA010063
:10553000E96940EAC1007864F86A40F48070F86272
:1055400005D0012CF86A06D140F4000005E0F86AA5
:1055500040F4800001E040F08070F862386840F06C
:1055600080503860FBF7F2FF04463868800006D4AC
:10557000FBF7ECFF001B0328F7D3032000E000201B
:1055800001B0F0BD00440258C143CAB20A23F62A52
:1055900098BF6FF0090101440A31CAB2B2FBF3F2BD
:1055A00002EB8203A1EB4303591A084440EA0210BC
:1055B000C0B2704770B504460068C168490618D487
:1055C0004FF0FF31C1600026FBF7C0FF05460BE03E
:1055D00010F040000ED1FBF7B9FF401BB0F57A7F09
:1055E00002D9032684F821602068032EC068EFD119
:1055F00000E00026F0B270BDB0B5124D69680446F7
:1056000021F0800169602968890609D42046FEF7E7
:10561000BFF800280EBF0020032084F82100B0BD91
:10562000286820F0200028602046FEF7B1F818B165
:10563000032084F8210000E00020296841F02001C7
:105640002960B0BD084000580148FEF709BC00BF02
:105650003408002410B586B00191372102914FF42F
:1056600080710391002104914FF48051059101A9AB
:10567000044600F053FB372141F28832204600F007
:10568000DDF906B010BD10B586B001912921029157
:105690004FF480710391002104914FF480510591E2
:1056A00001A9044600F03AFB204600F07DFA06B05E
:1056B00010BD10B586B00191102102914FF4807198
:1056C0000391002104914FF48051059101A90446F2
:1056D00000F024FB102141F28832204600F0AEF9A0
:1056E00006B010BD10B586B00191062102914FF4AD
:1056F00080710391002104914FF48051059101A91B
:10570000044600F00BFB062141F28832204600F0EF
:1057100095F906B010BD000010B586B00021CDE9A6
:105720000311CDE901114FF48051059101A90446FF
:1057300000F0F4FA0B484FF4FA510068B0FBF1F0B6
:1057400041F288314843C043013006D0616B0906FD
:10575000FAD50548A063002001E04FF0004006B0F4
:1057600010BD00BF14000024C500200010B586B095
:105770004FF4D5710191082102914FF4807103918A
:10578000002104914FF48051059101A9044600F0D5
:10579000C5FA204600F070FA06B010BD10B586B00C
:1057A0000191122102914FF4807103910021049123
:1057B0004FF48051059101A9044600F0AFFA12217F
:1057C00041F28832204600F039F906B010BD10B51C
:1057D00086B00191112102914FF480710391002153
:1057E00004914FF48051059101A9044600F096FA06
:1057F000112141F28832204600F020F906B010BD98
:1058000010B586B00191072102914FF48071039188
:10581000002104914FF48051059101A9044600F044
:105820007DFA072141F28832204600F007F906B0E0
:1058300010BD10B586B000210222019102924FF4F2
:105840004072CDE903214FF48051059101A904462E
:1058500000F064FA204600F081F906B010BD10B5E2
:1058600086B00191092102914FF44071039100210A
:1058700004914FF48051059101A9044600F04EFABD
:10588000204600F06BF906B010BD10B586B00021BF
:105890003322019102924FF48072CDE903214FF43B
:1058A0008051059101A9044600F038FA332141F2F4
:1058B0008832204600F0C2F806B010BD10B586B0A0
:1058C00001910D2102914FF4807103910021049107
:1058D0004FF48051059101A9044600F01FFA0D21F3
:1058E00041F28832204600F0A9F806B010BDB0B5EC
:1058F00086B000220323019202934FF48073CDE916
:1059000003324FF480520C46059201A9054600F07F
:1059100005FA03212846224600F068F906B0B0BD1A
:1059200010B586B000210D22019102924FF48072D1
:10593000CDE903214FF48051059101A9044600F0FF
:10594000EDF90D2141F28832204600F077F806B0DB
:1059500010BD000010B586B000210C22019102920A
:105960004FF48072CDE903214FF480510591044634
:10597000C06801A940F08000E060E06820F04000CD
:10598000E060204600F0CAF90C21074A204600F0EA
:1059900055F8E168B0F1007F21F0800108BF00F107
:1059A0007E40E16006B010BD00E1F50510B586B09F
:1059B0000191192102914FF480710391002104910A
:1059C0004FF48051059101A9044600F0A7F919216F
:1059D00041F28832204600F031F806B010BD10B513
:1059E00086B00191182102914FF48071039100213A
:1059F00004914FF48051059101A9044600F08EF9FD
:105A0000182141F28832204600F018F806B010BD87
:105A100010B591E80850CC6802464362C0F828C02F
:105A200044EA0E000B69184349690843D16A21F022
:105A3000FF0101430020D16210BD000010B5A34B4F
:105A40004FF4FA541B68B3FBF4F3424C5343024641
:105A5000DB4301333FD0506B2042FAD010F40050AA
:105A6000F7D1506B400739D4506BC00739D104F1DE
:105A7000800090631069C0B2884235D150693649C0
:105A8000084233D0002833DB410034D4810034D4C1
:105A9000C10034D4010135D4410136D4C10137D419
:105AA000010238D4410239D481023AD4C1023BD434
:105AB00041033CD481033DD4C1033ED401043FD40F
:105AC000410440D4810441D400074FF4000058BF82
:105AD0004FF4803010BD4FF0004010BD04209063A3
