:020000040800F2
:10000000A82E0024AD0200086949000869450008CF
:1000100061480008B50B0008B35F0008000000004D
:1000200000000000000000000000000091570008E0
:10003000B70B0008000000006B4900089357000848
:10004000C7020008C7020008C7020008C70200086C
:10005000C7020008C7020008C7020008C70200085C
:10006000C7020008C7020008C7020008C70200084C
:10007000C7020008C7020008C7020008C70200083C
:10008000C7020008C7020008C7020008C70200082C
:10009000C7020008C7020008C7020008C70200081C
:1000A000C7020008C7020008C7020008C70200080C
:1000B000C7020008C7020008C7020008C7020008FC
:1000C000C7020008C7020008C7020008C7020008EC
:1000D000C7020008C7020008C7020008C7020008DC
:1000E000C7020008C702000800000000C70200089D
:1000F000C7020008C7020008C7020008C7020008BC
:10010000C7020008314C0008C7020008C7020008F7
:10011000C7020008C7020008C7020008C70200089B
:10012000C7020008C7020008C7020008C70200088B
:10013000C7020008C7020008C7020008C70200087B
:1001400000000000000000000000000000000000AF
:10015000C7020008C7020008C7020008C70200085B
:10016000C7020008C7020008C7020008C70200084B
:10017000C7020008C7020008C7020008000000000C
:10018000C7020008C7020008C7020008C70200082B
:10019000C7020008C7020008C7020008C70200081B
:1001A000C7020008C7020008C7020008C70200080B
:1001B000C7020008C7020008C7020008C7020008FB
:1001C000C7020008C7020008C7020008C7020008EB
:1001D000C7020008C7020008C7020008C7020008DB
:1001E000C7020008C7020008C7020008C7020008CB
:1001F000C7020008C7020008C7020008C7020008BB
:10020000C7020008C7020008C7020008C7020008AA
:10021000C7020008C7020008C7020008C70200089A
:10022000C7020008C7020008A1450008000000003E
:10023000C7020008C702000800000000C70200084B
:10024000C7020008C7020008C7020008C70200086A
:10025000C7020008C7020008C7020008C70200085A
:10026000C7020008C7020008C7020008C70200084A
:10027000C7020008C7020008C7020008000000000B
:10028000C7020008C7020008C702000800000000FB
:1002900000000000C7020008DFF80CD000F026F9CB
:1002A0000048004771820008A82E002406488047B5
:1002B00006480047FEE7FEE7FEE7FEE7FEE7FEE74B
:1002C000FEE7FEE7FEE7FEE79D58000899020008FA
:1002D0002DE9F05F0546002092469B46884606467B
:1002E000814640241BE0284641464746224600F00E
:1002F000E2F853465A46C01A914110D311461846A7
:10030000224600F0C9F82D1A67EB01084F46224635
:100310000120002100F0C0F817EB00094E41201E1B
:10032000A4F10104DFDC484631462A464346BDE8D5
:10033000F09F10B5431A934209D28318881803E03E
:1003400010F8011D03F8011D521EF9D210BD40EA3C
:1003500001039B0703D009E008C9121F08C0042A43
:10036000FAD203E011F8013B00F8013B521EF9D22A
:1003700010BDD2B201E000F8012B491EFBD270473C
:100380000022F6E710B513460A4604461946FFF761
:10039000F0FF204610BD00000FB400B589B00BA8D7
:1003A00000906A4603480A9900F096F809B05DF893
:1003B00014FB0000000000242DE9FF5FD2E901A733
:1003C0004FF00008916999461446DDF838B046466A
:1003D00001988847054659EA0B0005D009E0A16954
:1003E000761C019888470546216A284688470028D8
:1003F000F5D1681C03D05FEACA7005D015E04FF054
:10040000FF3004B0BDE8F09F2068011D2160D0F8E6
:1004100000800AE05FEACA7001D108F8015BA169B7
:10042000761C7F1E019888470546002F1ADD681C40
:1004300018D0B9F1000F0DD0E81705EBD0604211CC
:1004400020F01F0059F822102A1A01209040014282
:10045000E0D107E0BBF1000FDCD1216A28468847D4
:100460000028D7D0E16901988847BBF1000F07D178
:10047000002E05DD5FEACA7002D1002188F8001065
:10048000A068B84203DDBBF1000F03D017B16FF0D5
:100490000100B6E73046B4E7202A04DB203A00FA30
:1004A00002F1002070479140C2F1200320FA03F3CB
:1004B000194390407047202A04DB203A21FA02F0C9
:1004C0000021704721FA02F3D040C2F1200291408E
:1004D0000843194670470000024B9361024BD361F9
:1004E00000F032B89D7A00082D050008064C074D33
:1004F00006E0E06840F0010394E8070098471034F4
:10050000AC42F6D3FFF7CCFE0C9500082C95000802
:10051000094910B508784C1C18B1401E0870205CC1
:1005200010BD00210720ABBE207010BD0249087825
:10053000421C0A7070470000080000240268114441
:100540001378016018467047D1600449516104492D
:10055000116200211161114600F00AB83D05000842
:1005600065050008C0B24FF4F05100F097B90000E3
:100570002DE9F34F8BB04FF0000801F10C000C4651
:100580004FF0010B46460DF1080A01906269012106
:1005900001989047051E2DD0252D2CD0216A884723
:1005A000C0B16269012101989047216A88470028FB
:1005B000F7D1411E62690198904700E0761CA1695D
:1005C0000B988847216A88470028F7D1E1690B9882
:1005D0008847DBE7A1690B9888470746A84201D105
:1005E000761CD3E7E1690B9888477F1C02D1B8F1EC
:1005F000000F6FD046E1002762693D4639460198F9
:1006000090472A2804D16269012101989047012569
:10061000DFF884926269012101989047A0F13001CE
:100620000A290AD24F45E5DC07EB870100EB4107B9
:10063000303FDFD445F01005ECE7E90601D46FF058
:1006400000476C280AD04C2814D0682815D06A2896
:100650000DD074281CD07A281AD01DE062690121BF
:10066000019890476C2802D045F0040514E045F04D
:1006700002050DE045F020050AE0626901210198BC
:100680009047682802D045F0080505E045F400656C
:100690006269012101989047C4E9015765283DD05E
:1006A00019DC58287AD00CDC452837D004DC252802
:1006B00026D0412831D131E046282FD047282CD1EF
:1006C0002CE05B2877D0612828D063287CD0642870
:1006D00023D15AE0D0E06F2848D008DC66281DD02E
:1006E00067281BD0692821D06E2816D127E07028F2
:1006F00045D0732868D0752847D078280DD14DE0B3
:10070000A1690B988847054625283FF469AFE16940
:100710000B9888476D1C3FF46AAFB3E023466A46E6
:100720006FF001000B99AFF300809EE045F04000B0
:100730006060A80723464FF0000236D43EE0E80789
:100740007FF447AF2068011D21600068290501D5AD
:1007500006701BE7290701D5068017E7A90703D50F
:10076000F117C0E9006111E706600FE745F04000AE
:100770006060A80723464FF0080216D41EE040F63A
:100780000E0125EA0100606016E045F0400060605F
:10079000A80723464FF00A0207D40FE045F04000B7
:1007A0006060A80708D5234610226FF001000B995E
:1007B000AFF3008059E007E0234610226FF00100FC
:1007C0000B99AFF3008050E04FF000094F464B46C5
:1007D000632802D05B2806D040E0E80601D401205F
:1007E000A06001273AE062690121019890475E28E4
:1007F00005D14FF001096269494601989047216986
:1008000039B900210A46534643F82120491C0829DA
:10081000FADBB0B3216969B9C11700EBD16253119A
:100820000AEB830122F01F02821A01200B6890401C
:1008300003430B6062690121019890475D28E8D16C
:10084000B9F1000F09D00020514651F82020D243C1
:1008500041F82020401C0828F7DB02AB2246009715
:100860006FF001000B99FFF7A7FD00280CDA401C80
:1008700008D1BBF1000F05D04FF0FF300DB0BDE83F
:10088000F08FFFE74046F9E7E90701D108F10108D9
:1008900006444FF0000B79E6CCCCCC0C7F2801D974
:1008A000002208E0064A02EB5002C007127800D18D
:1008B000120902F00F02012090400840704700002A
:1008C000DC8B00082DE9F041002003F04FFEDFF83B
:1008D000CC80D8F800004000314FB8473148324E44
:1008E000B047D8F80000B8473048B04704F026FDBC
:1008F0002F48B047D8F80000B8472E48B04707F057
:1009000057FD2D48B047D8F80000B847D8F8000088
:10091000B8472A48B0472A4C2046B0472948B04734
:1009200003F0A0FF2046B0472748B04700F072FA16
:100930002046B0472548B04725A000F013FC2046CC
:10094000B0472448B047244D4FF4FC610B220F23DD
:10095000284600F07BFC2046B0472048B047284698
:1009600000F0A4FB2046B0471DA0B047284600F089
:10097000F7FA2046B04726A0B047284600F0E8F92D
:100980002046B0472B48B047D8F80000B8472AA007
:10099000B0472046B0470020BDE8F0811C0000248D
:1009A00019130008B78E0008158700080490000886
:1009B000F88D000834900008768E0008EB8E000851
:1009C0006D9000087F8F0008AC8F0008D98F000859
:1009D000303A2F00578F0008709000082F8F0008C2
:1009E0005B494E495449414C495A4154494F4E5D27
:1009F0002047657474696E672066696C6520696E4E
:100A0000666F726D6174696F6E2E0A0D00000000D2
:100A10005B494E495449414C495A4154494F4E5DF6
:100A20002044656C6574696E6720612066696C6539
:100A30002E0A0D002D8E00085B494E495449414C49
:100A4000495A4154494F4E5D2042535020496E69E6
:100A50007469616C697A6174696F6E202D204649F2
:100A60004E49534845440A0D000000004D490246D6
:100A70000846114602F04EBF80B54A4802F05BFFBF
:100A8000043818BF012080BD80B500F013F801289C
:100A900004D1444803F056F910B180BD022080BD56
:100AA00040484FF4804102F0A7FD002818BF012004
:100AB00080BD00BF81B001208DF803009DF80300C8
:100AC00001B070472DE9F8430023354C636094462C
:100AD000BFF34F8F27688846C7F34E33C7F3C90764
:100AE00081466FEA070EBD0743F6E07000EA431641
:100AF0002F46724647EA06010132C4F8EC1107F1AD
:100B00004047F7D1002BA3F10103EFD1BFF34F8F83
:100B1000BFF36F8F234849464246634603F008FB04
:100B2000002818BF012001B0BDE8F0830148012171
:100B300001607047840000242DE9F8430023184C1D
:100B400063609446BFF34F8F27688846C7F34E33E0
:100B5000C7F3C90781466FEA070EBD0743F6E07089
:100B600000EA43162F46724647EA06010132C4F8EE
:100B7000EC1107F14047F7D1002BA3F10103EFD1AE
:100B8000BFF34F8FBFF36F8F064849464246634617
:100B900003F038FB002818BF012001B0BDE8F08346
:100BA00080ED00E05C0300240148012101607047F2
:100BB000BC020024FEE77047EFF3108072B6FEE738
:100BC000002200F001B8000080B5DFF848E09EF890
:100BD0000930002B01D0012080BD9EF809308446E9
:100BE00000200EF803009EF809300EEB8303C3F8D3
:100BF00004C09EF8093073441A729EF80920531CF1
:100C000030328EF809300A7042F63A72A1F80120AB
:100C1000C87080BDC002002410B50B68024604688D
:100C2000002BD1E907E0D1F824C00ED024F4F8431A
:100C300040EA0E00184340EA0C00106047F6FF73CC
:100C400052F8040F98434B6809E047F6FF7324EA13
:100C5000030340EA0E0018434B6840EA0C001843B7
:100C6000D1E9023418430B6920434C691843896960
:100C7000204301430020116010BD0246406943F645
:100C8000FE73984340EA410100205161704710B55E
:100C9000044600696FF315000B68D1F808E06FF0A7
:100CA0001F0C4A6818430CEB4E1CC968104340EAFD
:100CB0000C0040EA41210020216110BDB0B504467E
:100CC0001F4D54F808CF002ACB681E4A05EB033E9F
:100CD0004B6902EB035210D01B4B42EA0E0203EAAF
:100CE0000C031A43826050F80C2F04460B6802F084
:100CF0007042013B43EA020C08E00CF070400B68C4
:100D000042EA0E02013B104340EA030C0B690F4D0F
:100D10006FF0FF0205EB03438D68886902EB052243
:100D200049686FF00F0505EB011141EA0C01114311
:100D30000138194341EA006100202160B0BD00BFC5
:100D400000F0FFFF0000F0FFFF0F0FFF0000FFFFAC
:100D500010B5ADF50C7D04460FA0214607F0DAFC76
:100D600068460022214606F04BFA28B9684605F08D
:100D700053FE10A007F020FF204606F00CFD20B126
:100D8000014611A007F0C6FC02E019A007F014FF0D
:100D90000DF50C7D10BD00BF0D0A2A2A2A204465DE
:100DA0006C6574652046696C653A2025732A2A2A89
:100DB0000D0A00004F70656E207375636365737371
:100DC00066756C6C79210D0046696C652064656CF4
:100DD0006574696F6E206661696C65642C2065724C
:100DE000726F7220636F64653A2025640D0A0000FB
:100DF0005468652066696C65207761732064656C52
:100E000065746564207375636365737366756C6C74
:100E100079210D002DE9FE4322A001A902AA05F0C7
:100E20001CFE20B120A007F0C7FEBDE8FE832348CA
:100E3000DFF88C80C0470298816942890239019BA2
:100E400003FB02F5204C01FB02F701781D484FEA35
:100E5000D529FE0AA0471D48C0471D48A0471DA030
:100E60004FF40071A047029841891C48A04702989E
:100E70008069811E1A48A0471A483946A0477A0D52
:100E800019483146A047019918A0A0471EA029463D
:100E9000A0476A0D23A04946A0472BA0C047BDE844
:100EA000FE8300BF303A0000665F67657466726556
:100EB000652829206572726F720D00003991000853
:100EC000B98B0008EF910008158700087C91000895
:100ED000D991000825640D0A000000009B900008CD
:100EE000029100081E91000879900008467265651D
:100EF00020636C757374657220636F756E74203D2A
:100F000020256C640D0A00004672656520736563D8
:100F1000746F7220636F756E74203D20256C640DB4
:100F20000A00000046726565207370616365203DAC
:100F300020256C64284D4229203D20256C642847DB
:100F400042290D0A000000004765742046415420E4
:100F50006469736B20696E666F204F4B0D00000053
:100F6000B0B5C6B0054614A0294607F0D3FB6C46C1
:100F70002846214606F0A5FB042814D00146B0B946
:100F8000009916A01C4DA8479DF808101BA0A84763
:100F900004F116011FA0A847BDF80400BDF8061013
:100FA00000F054F806E00C4807F006FE02E01EA030
:100FB00007F0B0FB46B0B0BD0D0A2A2A2A204669C8
:100FC0006C6520696E666F206F663A202573202A53
:100FD0002A2A0D0A00000000A291000846696C65EB
:100FE0002073697A6528627974657329203D20250C
:100FF0006C640D0A000000001587000846696C65E6
:1010000020617474726962757465203D20307825A2
:10101000780D0A0046696C65204E616D65203D20A3
:1010200025730D0A00000000665F7374617428293F
:10103000206572726F722C206572726F7220636FFE
:1010400064653A2025640D0A0000000010B540F2E6
:10105000BC7202EB502CC0F343120C4600F01F038D
:1010600006A0614607F056FBE10AC4F3451204F0FE
:101070001F0308A0BDE8104007F04CBB46696C6533
:101080002064617465203D2025642F25642F25642C
:101090000D0A000046696C652074696D65203D206D
:1010A00025643A25643A25640D0A000070B5ADF553
:1010B000267D044616A0214607F02CFB1AA8012223
:1010C000214606F09DF8042814D00146B0B901ACC1
:1010D0001AAD19A608E0642120462A4605F039FD1C
:1010E0003046214607F016FB1D9820998142F2D127
:1010F00012A000E00F4807F05FFD02E010A007F02B
:1011000009FB1AA805F088FC0DF5267D70BD00BF0F
:101110000D0A2A2A2A2052656164696E6720545894
:10112000542066696C653A202573202A2A2A0D0A04
:1011300000000000A2910008257300000D000000CF
:10114000665F6F70656E2829206572726F722C2041
:101150006572726F7220636F64653A2025640D0AB0
:10116000000000002DE9F041D4B0044647A8214614
:1011700006F062F940B1054647A805F05FFC16A0ED
:10118000294607F0C7FA24E01DA0214607F0C2FA5D
:1011900001AC04F1160547AE0FF2940821A70CE04C
:1011A0009DF81A0078B19DF80C00C00601D44046A5
:1011B00000E03846294607F0ADFA3046214606F0F1
:1011C00055FA0028ECD01DA007F0F6FC47A805F062
:1011D00035FC54B0BDE8F0810D0A665F6F70656E36
:1011E0006469722829206572726F722C2065727290
:1011F0006F7220636F64653A2025640D0A00000059
:101200000D0A2A2A2A20416C6C20656E7472696569
:101210007320696E206469723A202573202A2A2A75
:101220000D0A00004449523A2025730D0A000000BF
:1012300046494C453A2025730D0A00005363616E00
:1012400020646972204F4B0D0000000010B5ADF511
:10125000127D044613A0214607F05CFA06A80A2274
:10126000214605F0CDFF10B1014617A012E01FA0E6
:10127000D0E901C2D0E9033140690590CDE90331DD
:10128000CDE901C2194806A90090684606F01CF98C
:101290001CA0214607F03EFA06A805F0BDFB0DF59F
:1012A000127D10BD0D0A2A2A2A20437265617469D5
:1012B0006E67205458542066696C653A2025732067
:1012C0002A2A2A0D0A0000004F70656E2066696C9C
:1012D00065206572726F722C206572726F72206366
:1012E0006F64653A2025640D0A0000004C696E6544
:1012F000313A2048656C6C6F2C2046617446732A25
:101300002A2A0A0057726974652066696C65204F45
:101310004B3A2025730D0A00B0B5044600F0E4F8FE
:101320009E49621C0978054618BF0C4400F0DCF8A1
:10133000401BA042FAD3B0BD2DE9FC4F5F4A0A27FB
:101340005F4C02444FEAB223A04208BF0927092B91
:1013500038BF4FEAB2274FF0000C009701274FF03B
:10136000000E00269EE007FA06F912EA090B00F0CB
:1013700094804A6802F00308A8F1010ABAF1010F4B
:1013800013D80324856804FA0EF325EA0303CD6815
:1013900005FA0EF52B4383604368C2F3001523EA78
:1013A0000903B5402B43436004E0B8F1030F4FF04D
:1013B00003041FD0C36804FA0EF5AB438D6805FA29
:1013C0000EF52B43B8F1020FC36013D16FF0030287
:1013D00002EA560202440CF01C03D2F820800F25CA
:1013E0009D4028EA05080D6905FA03F343EA08035E
:1013F00013624A68036804FA0EF5AB4302F0030572
:1014000005FA0EF52B4312F4403F036045D0294AFC
:1014100013462C4C12680F2542F002021A601A681B
:1014200002F00202019226F00302019B0CF00C0371
:1014300052F804809D40009F28EA050507FA03F34F
:101440002B4313514FF0B048D8F800204B6842EAC4
:101450000B05DF0258BF22EA0B05174A1446C8F8ED
:1014600000509F02126842EA0B0558BF22EA0B05A2
:101470009F0325604FF00107D4F8802042EA0B0556
:1014800058BF22EA0B05DB03C4F88050E26F42EA42
:101490000B0558BF22EA0B05E56701360EF1020E77
:1014A0000CF1040C0A6832FA06F47FF45CAFBDE874
:1014B000FC8F00BFF4440258040000580000FEA74F
:1014C00000240258080400580069084018BF012091
:1014D0007047002A08BF090481617047014800680D
:1014E000000C70470010005C05480068704700BFA2
:1014F0002A48007802490A6810440860704700BF13
:10150000A006002480B5032000F00CFA01F044FB93
:101510000F490A68C2F3032209680E4B01F00F015C
:101520009A5C595C02F01F02D0400B4A01F01F0187
:1015300020FA01F11160924908600F2000F00EF8C6
:1015400008B1012080BD00F0AFF9002080BD00BFD0
:10155000184402581C8C00081800002470B50F4E67
:101560003178C1B104464FF47A70B0FBF1F0844990
:101570000968B1FBF0F002F0ADFE0F2C4FF0010551
:101580000AD848B94FF0FF3000222146002500F06C
:10159000A9F9746000E00125284670BD0C00002404
:1015A000002806D090F83C30012B05D14FF0020CFA
:1015B00027E04FF0010C24E04FF0010C80F83CC014
:1015C00090F83D30012B19D1D0F800C0DCF8103074
:1015D0005B000AD4CCF830100029CCF83420DCF8B9
:1015E000101005D041F0004104E04FF0010C05E07F
:1015F00021F00041CCF810104FF0000C002180F8D1
:101600003C10604670470000BCB5002101910446C3
:1016100000684FF0A4435A4900F5F8620D68C2F320
:101620008411012202FA01F11A6811426DD0016899
:10163000C90729D0C168890726D5C16821F00201F0
:10164000C16081680A06A36E4FF0020258BF0122F2
:101650001A438B05A26603D5A26E42F00402A2666D
:10166000CA0503D5A26E42F00802A2664A0503D558
:10167000A26E42F01002A266090503D5A16E41F0E8
:101680002001A166012141600168C90644BFC1680B
:101690005FEA81613AD40168090744BFC1685FEA23
:1016A000C1613CD40168490744BFC1685FEA017168
:1016B0003ED40168890744BFC1685FEA417140D4E4
:1016C000A06E10B34FF41650B5FBF0F1042084F86F
:1016D0003D002068C26822F00102C260019A013216
:1016E0008A42019202D8C268D207F7D1002184F859
:1016F0003C10C068C0074FF0030008BF012084F809
:101700003D00616D09B120468847BCBD1021416094
:10171000A16C0029BFD0204688472068BBE708217C
:101720004160E16C0029BDD0204688472068B9E7B8
:1017300004214160216D0029BBD0204688472068E4
:10174000B7E7C16821F03E01C16094F83D1004295B
:1017500007D1002084F83C00012084F83D00A16DF1
:10176000D0E702214160002084F83C00012084F889
:101770003D00616C0029A3D020468847A0E700BF48
:1017800014000024B0B50446FFF7AEFE002C51D083
:101790000546002084F83C00022084F83D002068C3
:1017A000C16821F00101C16005E0FFF79DFE401B0B
:1017B000052841D82068C168C907F6D1D4E90323B8
:1017C0001A43D4E901C5C260BCF1804FD4E90523B6
:1017D00042EA0302E36942EA0302236A42EA03029D
:1017E000636AE16A42EA0302236B41EA0201A26AE8
:1017F00041EA03011E4B03EB824241EA050141EA43
:101800000201016103D1016941F040410161002100
:101810004161626BB2F1FF3F04DC4169524241F425
:101820008021416191B20162A26BB2F1FF3F07DDFD
:1018300012040CE00120B0BD01200322402113E07E
:101840004169002341F400214161A3EB0242016A96
:1018500011435FFA8CF2016200218262012241622F
:101860000020C4E917116166A16684F83D20B0BD6F
:101870000000FCFFBFF35F8F0A48016821F480314C
:10188000016000210167704740F0010005490867C9
:10189000086840F480300860BFF34F8FBFF36F8F4C
:1018A000704700BF24ED00E081B00648016841F0B8
:1018B00002010160006800F002000090009801B091
:1018C000704700BFF4440258002808DB00F01F01F5
:1018D000012202FA01F1024A400942F82010704741
:1018E00000E100E080B5154B1B68C3F3022C8CF0BF
:1018F000070EBEF1040F28BF4FF0040EBCF1030326
:101900004FF0FF3C38BF00230CFA0EFE21EA0E0117
:1019100099400CFA03F39A431143BDE8804004F068
:1019200049BB00BF05490A684FF6FF031A4060F340
:101930000A22034810430860704700BF0CED00E026
:101940000000FA05B0B5104D29684907296805D48B
:1019500001F00701081A18BF0120B0BD21F00701EE
:1019600008432860FFF7C0FD044655F8080C8004C2
:1019700007D4FFF7B9FD001BB0F57A7FF5D9012038
:10198000B0BD0020B0BD00BF0C48025880B501F0CA
:10199000C3F80549054A0968C1F30211515C01F019
:1019A0001F01C84080BD00BF204402581C8C0008A5
:1019B00010B53D4CA36AA26AC2F3051CE26A616BD2
:1019C00002F00102C1F3CC01BCF1000F11FB02F1E6
:1019D00000EE101AB8EE400A0CD003F00303022BFD
:1019E0000CD0012B0DD013B9216889060CD49FEDC2
:1019F000311A13E00021C0E9001153E09FED2C1AC9
:101A00000CE09FED2A1A09E021682B4AC1F3C101BD
:101A100022FA01F101EE101AB8EE411A02EE10CAD4
:101A20009FED263AB8EE422A216B6FF35F2181EEDB
:101A3000021A02EE101AB8EE422A216BC1F34621B7
:101A400000EE032AB7EE000A03EE101A32EE002A67
:101A5000B8EE433A21EE021A33EE002A81EE022A52
:101A6000BCEEC22A80ED002A216BC1F3064102EED2
:101A7000101AB8EE422A32EE002A81EE022ABCEE9B
:101A8000C22A80ED012A216BC1F3066102EE101A11
:101A9000B8EE422A32EE000A81EE000ABCEEC00A1D
:101AA00010EE101A816010BD004402580024744AE0
:101AB00020BCBE4B0024744C0090D00300000039C1
:101AC00010B53C4CA36AA26AC2F3053CE26AC2F3B9
:101AD0000012E16BC1F3CC01BCF1000F11FB02F16C
:101AE00000EE101AB8EE400A0AD003F00303022BEE
:101AF0000AD063B9216889060CD49FED311A13E02E
:101B00000021C0E9001153E09FED2C1A0CE09FED7D
:101B10002A1A09E021682B4AC1F3C10122FA01F116
:101B200001EE101AB8EE411A02EE10CA9FED263AE5
:101B3000B8EE422AA16B6FF35F2181EE021A02EE2A
:101B4000101AB8EE422AA16BC1F3462100EE032A17
:101B5000B7EE000A03EE101A32EE002AB8EE433A4E
:101B600021EE021A33EE002A81EE022ABCEEC22ACE
:101B700080ED002AA16BC1F3064102EE101AB8EE07
:101B8000422A32EE002A81EE022ABCEEC22A80ED01
:101B9000012AA16BC1F3066102EE101AB8EE422AC7
:101BA00032EE000A81EE000ABCEEC00A10EE101AF6
:101BB000816010BD004402580024744A20BCBE4B12
:101BC0000024744C0090D0030000003910B53C4C48
:101BD000A36AA26AC2F3055CE26AC2F30022616CE6
:101BE000C1F3CC01BCF1000F11FB02F100EE101AA1
:101BF000B8EE400A0AD003F00303022B0AD063B9FF
:101C0000216889060CD49FED311A13E00021C0E948
:101C1000001153E09FED2C1A0CE09FED2A1A09E009
:101C200021682B4AC1F3C10122FA01F101EE101A19
:101C3000B8EE411A02EE10CA9FED263AB8EE422ADB
:101C4000216C6FF35F2181EE021A02EE101AB8EEDA
:101C5000422A216CC1F3462100EE032AB7EE000AA6
:101C600003EE101A32EE002AB8EE433A21EE021AC1
:101C700033EE002A81EE022ABCEEC22A80ED002A51
:101C8000216CC1F3064102EE101AB8EE422A32EE80
:101C9000002A81EE022ABCEEC22A80ED012A216CC4
:101CA000C1F3066102EE101AB8EE422A32EE000AC3
:101CB00081EE000ABCEEC00A10EE101A816010BD61
:101CC000004402580024744A20BCBE4B0024744CCB
:101CD0000090D00300000039F8B580F400220A43D8
:101CE00000F07F8080F400720A4332D080F480627A
:101CF0000A4300F0878080F400620A4338D080F401
:101D000080520A4300F08B8080F400520A4300F0B6
:101D1000948080F480420A4337D080F400420A4322
:101D200042D080F480320A434ED080F48070084361
:101D300040F0DF808749086D00F00702042A00F2B6
:101D4000D8808848DFE812F0770087008E00D60040
:101D500096008049086DC0F38212042A00F2C980FF
:101D60008048DFE812F0680078007F00C700870035
:101D70007849886DC0F30262042A00F2BA8079487B
:101D8000DFE802F0596970B878007248816DC1F3DC
:101D90000271052900F2AD80DFE801F00386919819
:101DA000A28DFFF7F3FDA5E06A48016D01F04051F7
:101DB000B1F1005F00F07880B1F1805F00F09680B3
:101DC000002940F0968076E06248C16CC903006843
:101DD00040F18D80000140F18C8001A8FFF770FE7A
:101DE000A1E05C48816D01F44031B1F5003F00F0A5
:101DF0008880B1F5803F00F09080002940F0798024
:101E0000006829E05349886DC0F34252042A00F269
:101E100070805448DFE802F00F1F266E2E004D49F7
:101E2000086DC0F30232042A63D84E48DFE802F09E
:101E300003131A622200086859E04648016DC1F395
:101E40000241052955D8DFE801F0032F3A414B360E
:101E500000F082FE4EE0086800014AD501A8FFF7B5
:101E60002FFE05E00868800043D501A8FFF7AEFE0D
:101E700001983FE0C86C10F040520B68086802D12E
:101E800013F0040326D1B2F1805F02D110F4807008
:101E900051D1086810F400301CBF47F64000C0F272
:101EA0007D10B2F1005F52E00068000121D501A869
:101EB000FFF706FE23E000682749800313E000686F
:101EC000800016D501A8FFF781FE18E001684907D8
:101ED0000FD50068C0F3C100214921FA00F009E0E4
:101EE00000681E49C00501EAE07003E00068800157
:101EF00002D4002004B080BD01A8FFF759FD02986C
:101F0000F8E7C16C11F04051036802680DD113F07D
:101F100004030AD0C2F3C100DEE700688000E8D500
:101F200001A8FFF753FE0398E4E7B1F1805F04D105
:101F300012F4807201D00948DCE7006810F4003028
:101F40001CBF47F64000C0F27D10B1F1005F18BF22
:101F50000020CFE70044025840787D0100093D0091
:101F60000090D0030080BB002DE9F0470446C07804
:101F7000B04F000722D5A06E4FEA3051032908D890
:101F8000DFE801F002090F17F96941F40031F96146
:101F90000FE0012613E004F10800022102F0E6FC44
:101FA00004E004F12800022102F060FD064630B989
:101FB000A06E396C21F44011084338640026607823
:101FC000BA46C00701D135462AE0A06D04280BD8D7
:101FD0003546DFE800F0030C12181800F8693546A2
:101FE00040F40030F8610EE00125012719E004F10A
:101FF0000800002102F0BAFC04E004F128000021EE
:1020000002F034FD0546002D2F460AD1DAF84000D3
:10201000002520F00700A16D08435246CAF8400091
:102020003746607880072DD5E06D4FEAB010042860
:102030000CD8DFE800F0030E141A1A00DAF81C00BE
:10204000514640F40030CAF81C000EE0012501267C
:1020500019E004F10800002102F088FC04E004F11A
:102060002800002102F002FD0546002D2E460AD16F
:10207000DAF84000002520F4E070E16D0843524694
:10208000CAF840003E466078400702D4B046574642
:102090002CE0D4F8A80057464FEA7050042809D81D
:1020A000DFE800F0030C12181800F86940F4003063
:1020B000F8610FE001254FF0010817E004F1080076
:1020C000002102F053FC04E004F12800002102F09A
:1020D000CDFC0546002DA84608D1B86C002520F49B
:1020E0006000D4F8A8100843B046B86460780007D0
:1020F0002CD5D4F8AC004FEA3060042809D8DFE8CA
:1021000000F0030B11171700F86940F40030F86174
:102110000EE0012501271AE004F10800002102F079
:1021200025FC04E004F12800002102F09FFC054694
:10213000002D2F460BD1DAF84800002520F0E06092
:10214000D4F8AC1008435246CAF848004746E07835
:10215000800726D5E06C4FEA301003280BD8DFE863
:1021600000F013020D13DAF81C00514640F4003061
:10217000CAF81C0008E00125012613E004F108005C
:10218000022102F0F3FB0546002D2E460AD1DAF8B3
:102190003C00002520F03000E16C08435246CAF8AC
:1021A0003C003E466078C0062DD5206E4FEA3030A8
:1021B00004280CD8DFE800F0030E141A1A00DAF82D
:1021C0001C00514640F40030CAF81C000EE0012506
:1021D000012719E004F10800002102F0C7FB04E028
:1021E00004F12800002102F041FC0546002D2F4695
:1021F0000AD1DAF84000002520F4E040216E0843BF
:102200005246CAF8400037466078800627D5606E8F
:102210004FEA304005280AD8DFE800F014030E1416
:10222000141404F10800012102F0A0FB09E00125CB
:10223000012615E01044025804F12800012102F0A3
:1022400015FC0546002D2E460AD1DAF8400000257F
:1022500020F4E020616E08435246CAF840003E4632
:102260006078400627D5D4F8B0004FEA30700528D2
:102270000AD8DFE800F012030C12121204F1080071
:10228000012102F073FB07E00125012714E004F1AE
:102290002800012102F0EAFB0546002D2F460BD154
:1022A000DAF84800002520F0E040D4F8B0100843E8
:1022B0005246CAF8480037466078000622D5206F9B
:1022C00098B1B0F1005F0AD0B0F1805F2ED1DAF89A
:1022D0001C00514640F40030CAF81C0005E004F12F
:1022E0000800012102F042FB0546002D2E460AD1CE
:1022F000DAF84000002520F04050216F0843524694
:10230000CAF840003E46E078C00702D1B0465746C2
:1023100024E0A06C574603280BD8DFE800F0140235
:102320000E14F86940F40030F8610CE00125012634
:10233000E9E701254FF0010810E004F1080002214F
:1023400002F014FB0546002DA84607D1F86B0025C6
:1023500020F00300A16C0843B046F863A078400663
:1023600001D4474617E0D7F8F00340F48070C7F86F
:10237000F003FFF7B9F80646D7F8F003C00507D415
:10238000FFF7B2F8801B6428F6D90325032702E083
:10239000002D2F4612D02078C00750D0E06F4FEAB2
:1023A000F000052835D8DFE800F03D03373D3D3D1E
:1023B00004F10800012102F0D9FA32E0DAF86010E5
:1023C0005346D4F8B400414011F4407F0BD0196E4D
:1023D0001A6E21F4407142F480321A661A6E22F4A9
:1023E00080321A661966B0F5807F40F07282FFF77E
:1023F0007BF8064641F2883903250327DAF86000A6
:10240000800700F16382FFF76FF8801B4845F5D91C
:10241000C1E70125012613E004F12800012102F0A3
:1024200025FB0546002D2E460AD1DAF8440000258A
:1024300020F03800E16F08435246CAF844003E4697
:102440002078800723D5A06F05280AD8DFE800F0A0
:1024500012030C12121204F10800012102F086FA94
:1024600007E00125012713E004F12800012102F013
:10247000FDFA0546002D2F460AD1DAF84400002562
:1024800020F00700A16F08435246CAF844003746BF
:102490002078400725D5D4F8940005280AD8DFE82D
:1024A00000F012030C12121204F10800012102F0D4
:1024B0005DFA07E00125012614E004F1280001215E
:1024C00002F0D4FA0546002D2E460BD1DAF848006A
:1024D000002520F00700D4F8941008435246CAF8AB
:1024E00048003E462078800627D5D4F890004FEA71
:1024F000307005280AD8DFE800F012030C1212121F
:1025000004F10800002102F031FA07E0012501275B
:1025100014E004F12800022102F0A8FA0546002D7B
:102520002F460BD1DAF84400002520F0E040D4F823
:10253000901008435246CAF84400374620784006B7
:1025400027D5D4F89C004FEAB02005280AD8DFE848
:1025500000F012030C12121204F10800002102F024
:1025600005FA07E00125012614E004F12800022104
:1025700002F07CFA0546002D2E460BD1DAF8480011
:10258000002520F4E050D4F89C1008435246CAF8C5
:1025900048003E462078000627D5D4F8A0004FEA30
:1025A000703005280AD8DFE800F012030C1212126E
:1025B00004F10800002102F0D9F907E00125012704
:1025C00014E004F12800022102F050FA0546002D23
:1025D0002F460BD1DAF84800002520F46040D4F8EB
:1025E000A01008435246CAF8480037462068010741
:1025F00017D5D4F88410B1F5805F0AD104F1280012
:10260000022102F033FA0028206818BF0127D4F80D
:102610008410DAF84420534622F440521143CAF899
:102620004410C10617D5D4F89810B1F5807F0AD1AF
:1026300004F12800022102F019FA0028206818BFCE
:102640000127D4F89810DAF84820534622F4407253
:102650001143CAF84810000322D5D4F8A400B0F5FD
:10266000003F0FD0B0F5803F06D088BB04F10800D2
:10267000002102F07BF904E004F12800022102F0BD
:10268000F5F90546002D2E460BD1DAF84800002555
:1026900020F44030D4F8A41008435246CAF8480049
:1026A0003E46A07840072AD5D4F88800B0F5401FF0
:1026B00017D0B0F5001F0ED0B0F5801F40F001819B
:1026C000DAF81C00514640F40030CAF81C0008E05B
:1026D00001250126E5E704F12800012102F0C6F9F1
:1026E0000546002D2F460BD1DAF84400002520F4D2
:1026F0004010D4F8881008435246CAF844003746C0
:10270000A078C00701D13E4622E0206DB0F5803FA1
:1027100008D0D8B9DAF81C00514640F40030CAF8A5
:102720001C0005E004F10800022102F01FF9054633
:10273000002D2E460CD1DAF83C00002520F4803024
:10274000216D08435246CAF83C00DCE7012501260A
:102750002168880001D4606809E004F128000221A2
:1027600002F084F9002818BF0126D4E900108A037A
:102770001BD5D4F880206FF0010303EB3223022B2A
:102780000BD34FEA322343B1012B40F09D80DAF89E
:102790001C3043F40033CAF81C303DB9DAF8443039
:1027A00023F440731A43CAF844203546CA0207D5B9
:1027B000DAF8402022F00042636F1A43CAF8402042
:1027C000CA0008D5DAF8002022F48042D4F8B830E4
:1027D0001A43CAF800208A0207D5DAF8402022F00E
:1027E0008072E36E1A43CAF840204A000CD5DAF82A
:1027F000002022F40042CAF80020D4F8BC20DAF805
:1028000000301A43CAF80020B1F1FF3F07DCDAF8C4
:102810003C2022F04052636D1A43CAF83C20090262
:1028200008D5DAF8441021F44001D4F88C20114383
:10283000CAF84410C10708D004F10800002102F0D2
:1028400095F8002818BF05466068810708D504F18F
:102850000800012102F08AF8002818BF05466068C8
:10286000410708D504F10800022102F07FF8002892
:1028700018BF05466068010708D504F1280000214B
:1028800002F0F4F8002818BF05466068C10608D5B4
:1028900004F12800012102F0E9F8002818BF0546DC
:1028A0006068800603D44DB10120BDE8F08704F1D3
:1028B0002800022102F0DAF82843F5D10020BDE813
:1028C000F087012501271BE701256FE75346D4F860
:1028D000B40000F440711A68B1F5407F22F47C51D5
:1028E00003D1064A02EA1012114319606FF31F3038
:1028F000196E00250843186633E500BFCFFFFF00BF
:102900002DE9F843002800F0FE800446804B18684B
:1029100000F00F00884688420BD2186820F00F00A4
:1029200040EA08001860186800F00F00404540F0C9
:10293000EA802068CF4F41070AD52169BA6902F0C1
:102940007002914204D9BA6922F070021143B96150
:1029500001070AD56169FA6902F07002914204D94F
:10296000FA6922F070021143F961C1060AD5A16922
:10297000FA6902F4E062914204D9FA6922F4E06251
:102980001143F96181060AD5E1693A6A02F07002E1
:10299000914204D93A6A22F07002114339628107E8
:1029A0000AD5E168BA6902F00F02914204D9BA6906
:1029B00022F00F021143B961C10736D0B86920F483
:1029C0007061D4E9010211430328B96105D00228DE
:1029D00007D1396889030DD495E03968890109D494
:1029E00091E00128396802D1C90503D48BE0490779
:1029F00040F189803969994621F00701084338611F
:102A0000FEF772FD064641F28835386900F038005D
:102A10006168B0EBC10F06D0FEF766FD801BA842CF
:102A2000F3D9032070E020684B4681070AD5E1689E
:102A3000BA6902F00F02914204D2BA6922F00F0281
:102A40001143B961196801F00F0141450AD91968AC
:102A500021F00F0141EA08011960196801F00F0126
:102A6000414550D141070AD52169BA6902F0700287
:102A7000914204D2BA6922F070021143B961010790
:102A80000AD56169FA6902F07002914204D2FA69CA
:102A900022F070021143F961C1060AD5A169FA69F1
:102AA00002F4E062914204D2FA6922F4E062114336
:102AB000F96180060AD5E069396A01F0700188423F
:102AC00004D2396A21F070010843386200F064F8DA
:102AD000B969C1F303212F4A515CBB6903F00F03AD
:102AE000D25C01F01F0120FA01F102F01F00184A28
:102AF00021FA00F01060174A064800681160BDE82E
:102B0000F843FEF72BBD012001B0BDE8F08300BF04
:102B1000002000521000002480B500F03DF80B4961
:102B20000A68C2F3032209681A4B01F00F019A5C8C
:102B3000595C02F01F0220FA02F201F01F00044962
:102B400022FA00F0086003490A6080BD1844025868
:102B5000180000241400002480B5FFF7DDFF0C49A5
:102B60000C4A0968C1F30211515C01F01F01C84011
:102B700080BD00BF80B5FFF7CFFF0549054A096852
:102B8000C1F30221515C01F01F01C84080BD00BFAC
:102B90001C4402581C8C000836490869C0F3C20066
:102BA00003280CD0022828D048BB08688006374884
:102BB00058BF70470968C1F3C101C84070478A6AAD
:102BC000886AC0F3051CCB6A486B03F00103C0F3AD
:102BD000CC00BCF1000F10FB03F000EE100AB8EEC1
:102BE000400A0ED002F00302022A0CD072B9086823
:102BF00080060ED49FED241A15E0204870471E4829
:102C00007047002070479FED1F1A0CE09FED1C1AC3
:102C100009E008681D4AC0F3C10022FA00F001EE85
:102C2000100AB8EE411A02EE10CA9FED193AB8EE3A
:102C3000422A086B6FF35F2081EE021A02EE100A3F
:102C4000B8EE422A086BC0F3462000EE032AB7EE26
:102C5000000A013032EE000A21EE000A01EE100AED
:102C6000B8EE411A80EE010ABCEEC00A10EE100A5E
:102C7000704700BF0044025800093D0040787D01C4
:102C80000024744A20BCBE4B0024744C0090D00336
:102C900000000039F8B5002800F0B481044600783F
:102CA000D74EC00721D12078800740F1B18030692C
:102CB00010F03801B06A3CD0182908BF5FEA807074
:102CC00037D0E068002831685CD021F01901084352
:102CD0003060FEF709FC05463068400743D4FEF734
:102CE00003FC401B0228F7D9A0E1306900F038014D
:102CF000B06A102905D018290AD100F00300022873
:102D000006D130688003CED560680028CBD179E148
:102D10006068002847D0B0F5803F06D0B0F5A02FFE
:102D200030685ED140F480203060306840F48030FC
:102D30005DE030684007E06802D5002800F062815D
:102D4000316821F0190108433060FEF7CDFB0546DC
:102D50003068400707D4FEF7C7FB401B02284FF03E
:102D60000300F5D963E1FEF7B9FB41F203018842A4
:102D700030D820697168402821F47C3145D141F474
:102D8000003044E021F001003060FEF7ADFB054665
:102D9000306840073CD5FEF7A7FB401B02284FF0E8
:102DA0000300F5D943E1306820F4803030603068AA
:102DB00020F480203060FEF797FB054630688003E2
:102DC0007FF571AFFEF790FB401B64284FF00300C6
:102DD000F4D92CE1706820F0FE40216940EA0160DE
:102DE00015E020F480303060306820F480203060BE
:102DF000FEF77AFB0546306880033FF554AFFEF7D7
:102E000073FB401B6428F6D910E141EA0030706082
:102E10002078C00653D5306900F03801B06A08291F
:102E200005D018290BD100F00300012807D1306824
:102E3000C00519D5E069802840F0E48014E0E0691D
:102E40000028306827D040F080003060FEF74CFB4F
:102E500005463068C00507D4FEF746FB401B022834
:102E60004FF00300F5D9E2E0FEF738FB41F2030131
:102E7000884208D8206A7168202821F0F8411BD1C7
:102E800041F080401AE0F06820F07C50216A40EA6E
:102E90000160F06013E020F080003060FEF724FB5A
:102EA00005463068C0050AD5FEF71EFB401B022808
:102EB0004FF00300F5D9BAE041EA806070602078F5
:102EC000000723D560690028706F0ED040F0010024
:102ED0007067FEF709FB0546706F800716D4FEF792
:102EE00003FB401B0228F7D9A0E020F00100706727
:102EF000FEF7FAFA0546706F800707D5FEF7F4FA79
:102F0000401B02284FF00300F5D990E0207880069E
:102F100023D5A069002830680ED040F4805030607E
:102F2000FEF7E2FA05463068800416D4FEF7DCFAB4
:102F3000401B0228F7D979E020F480503060FEF77A
:102F4000D3FA05463068800407D5FEF7CDFA401B5A
:102F500002284FF00300F5D969E02078400753D4E8
:102F6000656A002D00F00D81306900F038001828E6
:102F70006ED1B16A012D306B44D001F00302A36A17
:102F80009A423FD1C1F30511E26A91423AD101461A
:102F9000226B6FF35F21013A914233D1C0F3462196
:102FA000626B013A91422DD1C0F30641A26B013A06
:102FB000914227D1C0F30660E16B0139884221D1EB
:102FC000706BC0F3CC00A16C814200F0DA80F06A33
:102FD00020F00100F062FEF787FA0546FEF784FA5A
:102FE000A842FBD0706B4FF6F8718843A16C40EAA1
:102FF000C1007063F06A40F00100F062C1E000BF00
:1030000000440258012012E0D6F8000440F4807019
:10301000C6F80004FEF768FA0546D6F80004C005B5
:1030200007D4FEF761FA401B6428F6D9032001B0EB
:10303000F0BDA06860B3012806D00528306F40F0CD
:10304000A28040F004003067306F40F00100A0E043
:10305000306820F080703060FEF746FA022D054699
:103060000AD1306880012CD5FEF73EFA401B0228B9
:103070004FF00300F5D9DAE73068800140F1818034
:10308000FEF732FA401B02284FF00300F4D9CEE7D6
:10309000306F20F001003067306F20F0040030679F
:1030A000FEF722FA054641F28837306F80077FF538
:1030B00057AFFEF719FA401BB8424FF00300F4D99E
:1030C000B5E7B06A40F2F3318843A16A226B084346
:1030D000511E626B4FF47E4303EB4222E36A6FF3AF
:1030E0005F2192B240EA0310B0625018A16B4FF416
:1030F000FE0202EB014101F4FE010844E16B4FF0D6
:10310000FE4202EB016101F0FE41084430634FF6DC
:10311000F871F06A20F00100F062706B8843A16CD6
:1031200040EAC1007063F06A20F00C00216C084393
:10313000F062F06A20F00200616C0843F062F06A0D
:1031400040F48030F062F06A40F40030F062F06ADF
:1031500040F48020F062F06A40F00100F0623068D4
:1031600040F080703060FEF7BFF90446306880019F
:1031700007D4FEF7B9F9001B02284FF00300F5D978
:1031800055E7002053E720F001003067306F20F052
:1031900004003067FEF7A8F9054641F28837306F22
:1031A00080073FF5DDAEFEF79FF9401BB8424FF0B8
:1031B0000300F4D93BE70000B0B588B3044690F8AB
:1031C000210028B9002084F82000204600F03EF8B5
:1031D000022084F821002068C168C9062FD4CA21C2
:1031E000416253214162204601F0D8FCA0B994E825
:1031F0000310E368144D82682A40826022691143FB
:10320000A269114382681143816043EA0C41016164
:10321000204601F0E5FC28B12168FF224A62B0BDDA
:103220000120B0BD20686169E269C36C114323F0DD
:103230000303C364C26C1143C164FF2141620120D6
:1032400084F821000020B0BDBFFF8FFF10B5B0B0E3
:1032500004466846C021FDF793F820680B49884270
:1032600012D1002001904FF4800000904FF40070C4
:103270002D906846FEF778FE08B1FDF79DFC0448E6
:10328000016841F40041016030B010BD00400058B9
:10329000704402582DE9F843044690F820000128B4
:1032A0004FF0020047D0012384F82030002A84F830
:1032B000210091F800804F788D78C87803D0000401
:1032C00040EA072612E0FA0604D507F0EF0202F101
:1032D0000A074F70DFF83891C8470646F8B2C8476A
:1032E000000240EA06462846C84705462068CA212B
:1032F000416253214162204601F050FC00282168C0
:1033000002D0FF224A6213E046EA05024FEA483043
:1033100022F0C00210434860204601F061FCFF210A
:1033200022680028516203D1012084F82100002086
:10333000002184F8201001B0BDE8F0832DE9F047AA
:10334000044690F8200001284FF002005ED00D46A0
:10335000012184F82010CA2184F821001646206833
:10336000416253214162204601F018FC0028276881
:1033700002D0FF21796246E0B868002E00F04000DC
:1033800004D040B1E8784FEA805908E070B1E8789D
:103390004FEA80590EE04FF0000985F803906978F4
:1033A0002A78A878090241EA024610E04FF00009A5
:1033B00085F803902878DFF858A0D04769788046D0
:1033C0000846D0470102A87841EA0846D047304372
:1033D000104940EA090008403860B86820F48020AD
:1033E000B860D5E903010843B9680843B8602046CE
:1033F00001F0F6FBFF2122680028516203D1012071
:1034000084F821000020002184F82010BDE8F08716
:10341000714B00087F7F7F00B0B504460068094902
:10342000C160FEF761F805462068C068800607D4D1
:10343000FEF75AF8401BB0F57A7FF5D90320B0BDEE
:103440000020B0BD5FFF03007047704770477047B2
:1034500008B3B0B5044690F82C000D4628B90020FA
:1034600084F82D00204600F01BF8022084F82C0080
:10347000211D2068FDF7D0FBD4E900022946FDF7A5
:103480001DFC0648016841F000410160012084F8FC
:103490002C000020B0BD0120704700BF004000524A
:1034A0002DE9F047B8B033A81421FCF769FF334881
:1034B000017800295ED1012102AC017004F10800FD
:1034C000B821FCF75DFF4FF080704FF000080290CC
:1034D0002046CDF80C80CDF85080FEF745FD08B1B0
:1034E000FDF76AFB2648016833AD41F48051254C55
:1034F000254E01604FF0020900684FF0030A00F406
:10350000805001900C27019829464FF63F003390D8
:1035100004F50060CDE93498CDF8D8A03797B047CE
:103520002C20CDE9330904F580502946CDE9358AB0
:103530003797B04748F23710CDE9330904F54060BA
:103540002946CDE9358A3797B0474FF68370CDE9E4
:10355000330904F580602946CDE9358A3797B047AD
:103560004CF20370CDE9330920462946CDE9358A6E
:103570003797B04738B0BDE8F08700BF600000243F
:10358000D4440258000C025839130008B0B505465F
:1035900090F82C00022801D102240DE095F82C00AF
:1035A0000124012808D1022085F82C002868FDF7A5
:1035B00064FB85F82C4000242046B0BDB0B504461D
:1035C00090F82C000D46052803D002280ED00128C3
:1035D0000BD1022084F82C0029462068FDF757FB08
:1035E0002868022803D1052002E00120B0BD012097
:1035F00084F82C000020B0BD2DE9FF41032280F8A3
:1036000030200446806B0D4603280BD14FF08050CC
:10361000616BBF4F08436063606B40B32068876392
:10362000012596E0002D4CD0B5F5004FEED0B5F554
:10363000804F5CD10020CDE902002068002101F01C
:103640003FFE800156D402A9204601F0DDFE00288D
:10365000DED19DF80E00400746D5616C2068090454
:1036600001F0ECFA0028D3D1206802215AE04FF48F
:1036700080300021FEF730FBF0B13F49B0FBF1F3A1
:103680006669D4E90112D4F810C09E425AD2BE46EF
:10369000A76DB7F5007F54D0B7F5807F2DD1002EF0
:1036A000354B42D07700B0FBF7F79F42774649D9B8
:1036B000334BB0FBF3F645E0606B40F000606063B5
:1036C000AEE70020CDE902002068002101F0F8FDFE
:1036D00080010FD402A9204601F096FE002897D160
:1036E0009DF80E00C00713D14FF0806090E74FF0B7
:1036F00000608DE74FF400608AE7002E1F4F1AD05C
:10370000B8467700B0FBF7F0404588BF1E4618E08A
:10371000616C2068090401F091FA00287FF478AF09
:103720002068002101F0D2FA72E7984208D9144BC0
:10373000B0FBF3F605E0B84298BF00231E4600E058
:103740000026774620682B46CDE900C601F0BCFD77
:10375000002520684FF4007101F09FFA28B121681C
:1037600001258F63616B08436063012084F830009A
:10377000284604B0BDE8F08180F0FA0240787D016F
:1037800000E1F5057047000080B5D0F838C0D0E9F9
:10379000173E9A0F0A70C3F38362BCF1010F4A709F
:1037A000C3F301628A704FEA1342CA704FEA1322D0
:1037B0000A714FEA1E524B714FF00003CA80CEF3DC
:1037C00003420A72CEF3C0324A72CEF380328A725A
:1037D000CEF34032CA72CEF300320A734B7337D045
:1037E000BCF1000F40F0878040F6FC72436E02EAA5
:1037F0008E0242EA93720A61426EC2F3C2630B7593
:10380000C2F302634B75C2F342538B75C2F382431A
:10381000CB75C2F3C2330B76D1F810C00B7E0CF11E
:10382000010C03F0070302330CFA03FCC0F848C094
:103830000B7A03F00F0E012303FA0EFE4FEA5E230C
:1038400003FB0CF3C0E913E34FF40073436512E08C
:10385000B0F866200EF03F0342EA03420A614FF4DB
:1038600080630A6903EB82224FF40073C0E91223DC
:10387000C0E91423426EC2F380334B76C2F3C61301
:1038800002F07F028B76CA76806EC20F0A77C0F391
:1038900041724A77C0F382628A77C0F38352CA7753
:1038A000C0F3405281F82020002281F82120C0F38B
:1038B000004381F82230C0F3C03381F82330C0F3D5
:1038C000803381F82430C0F3403381F82530C0F3D1
:1038D000003381F82630C0F3812381F82730C0F30C
:1038E0000123C0B281F82830400881F82900012066
:1038F00081F82A0009E001687A4A8A630122416B53
:1039000041F08051416380F83020104680BD00BFF7
:10391000FF0FE01F80B500F1380E9EE80C5081E8E3
:103920000C50826C0A61C26C4A61026D8A61426D00
:103930000020CA6180BD10B5416C044600680904CE
:1039400001F0B0FA20B1616B08436063002010BD44
:103950002068002101F0B4FCC0F3432010BD00003A
:103960002DE9F04397B0044690F83000032801D1C8
:10397000012543E00D465B4EFDF7B6FD804620680D
:10398000002101F09DFC800123D42068402101F03A
:1039900084F9D0B9616C2068090401F04FF9A0B92D
:1039A0004FF0FF30119040201290602013900220C1
:1039B0001490002015900120169011A9206801F0A4
:1039C0001BFB206801F0A0FAE0B10146606B606368
:1039D00001E04FF40061206801258663626B1143AA
:1039E000616384F830504FF4007101F056F928B14A
:1039F000216801258E63606384F83050284617B033
:103A0000BDE8F08301AFB1462068416B11F4957FAA
:103A1000416B16D108040BD5002605E0206801F0A3
:103A20006EFC47F826000136082EF7D120374E46A7
:103A3000FDF75AFDA0EB080001304FF00041E3D143
:103A4000C9E7090747D4416B890746D4416B89060A
:103A50000CD52021BFE701F052FC3860FDF744FD92
:103A6000A0EB080001303AD004372068416BC9044C
:103A7000F1D4B34981636FF0FF0EDDE9011CCBB2D5
:103A8000DDE903769A092A70C3F340120EEA112386
:103A900043EA11616A7069809CFA8CF16960390AA5
:103AA0002F72F2B26972C7F303510EEA1743A9727B
:103AB000D118A981C6F38521A973C6F30121E97341
:103AC0001109297406F00F0169744E469DF817100C
:103AD000A974002587E708217DE702217BE74FF0E5
:103AE000004178E7FF0FE01FF8B504460068E56A7B
:103AF00015F00806416B18BF11F400415ED1416B0F
:103B0000C90579D4002E416B18BF11F4804140F0F3
:103B1000C080416B11F03A0F416B00F0E0808907E3
:103B200003D5616B41F002016163416B090703D565
:103B3000616B41F008016163416B890603D5616BDC
:103B400041F020016163416BC90603D5616B41F00F
:103B5000100161637A498163C16B21F49D71C16376
:103B6000C16821F04001C160C16A41F40051C162E5
:103B7000C16841F08001C16001F0E0F92168002EC8
:103B8000626B40EA020060634FF40062C86820F094
:103B90008000C8608A6340F0A580280640F1A180BB
:103BA000606B002800F09D80C86B20F08050C863D7
:103BB00000200865012084F8300098E0A06A2028E1
:103BC000C0F08F80656A00260CE0206805EB860750
:103BD00001F095FB010A38707970010C000EB97084
:103BE000F8700136082EF0D105F12000A16A60625C
:103BF000A1F12000A062F8BD4FF4807181634CF206
:103C00003A12C16B002E21EA0201C163C16B21F09F
:103C10008051C163C16821F04001C1601ED12906F5
:103C20005FD5002615F0220F8662C662066508D0B1
:103C300001F084F928B1616B084360632046FFF707
:103C4000A1FD012015F0300F84F83000E66202D0AB
:103C5000204600F0D5FAA80716D142E015F0220F51
:103C600008D001F06BF928B1616B0843606320460E
:103C7000FFF788FD20683249012281630020A907EF
:103C800084F83020E06237D02046BDE8F84000F0EC
:103C9000B5BA206A202824D30027E6696D4614E0CF
:103CA00006EB870001780091427841EA02210091F9
:103CB000827841EA02410091C07841EA00600090B8
:103CC0002946206801F034FB0137082FE8D106F1BE
:103CD0002000216AE061A1F120002062F8BDC90046
:103CE0000FD4F8BD012084F830000020E0622046A7
:103CF000BDE8F840FFF746BD2046BDE8F84000F0BB
:103D00007FBA4FF080518163006D400705F02000BD
:103D100005D450B12046BDE8F840FFF798BB48B144
:103D20002046BDE8F840FFF791BB2046BDE8F840CB
:103D3000FFF78BBB2046BDE8F840FFF785BB00BF0F
:103D40003A0F0018B0B586B050B3044690F8300072
:103D500020B900202076204600F082F9042084F863
:103D60003000204600F03CF8D0B901A92046FFF70A
:103D7000F7FDA8B99DF814009DF81510A26B012A53
:103D800004D1084304D04FF4007003E0002001E0A8
:103D90004FF48070A0652046E168FFF72DFC10B15C
:103DA000012006B0B0BDFDF79FFB05462046FFF79A
:103DB000C2FD04280CD0FDF797FB401B0130F5D164
:103DC0004FF000406063012084F830000320E8E7F2
:103DD000002001216063E06284F83010E1E7000018
:103DE0002DE9F0438FB081464FF480300021002749
:103DF000FDF772FFD8B3964CB0FBF4F60546D9F840
:103E000000000021009700220023019601F05CFAD7
:103E1000D9F8000001F06CFAA54205D3B5EB460FC6
:103E200008D37000B5FBF0F58A48B0FBF5F001301F
:103E3000FDF772FA00200490D9F8000000F060FF4E
:103E4000002871D1D9F8000000F084FFB0F1004FD4
:103E500013D10020C9F83C00D9F8000000F050FF51
:103E6000002861D1D9F83C00012809D00FE00121D8
:103E70004FF0006089F830105CE00120C9F83C0088
:103E8000D9F80000002100F0D9FE00284AD1002115
:103E9000724D4FF6FE76002010E0D9F8000029465A
:103EA00000F0E5FEF0BBD9F80000002101F008FAAF
:103EB000049901310491C0F38071C00F0028049867
:103EC00009D1B04207D8D9F80000002100F0B6FEB1
:103ED0000028E2D028E004984FF6FF72904202D307
:103EE0004FF0807020E00020C9F83810ADF80E00C7
:103EF000FDF7FAFA0546D9F8000001F0DDF9F8B14E
:103F0000D9F8380003281ED1D9F80000042101F0A7
:103F1000D7F9000DC9F8400004A94846FFF734FC62
:103F2000002871D04FF08050012189F83010D9F865
:103F300034201043C9F8340008460FB0BDE8F083C0
:103F40004FF08060F0E7D9F8000000F066FF00282D
:103F5000EAD1D9F800000021DFF8FC80C047C9F899
:103F60006C000421D9F80000C047C9F8700008218E
:103F7000D9F80000C047C9F874000C21D9F8000036
:103F8000C047D9F838100329C9F87800BCD0002000
:103F90000DF10E0641F287370DE0D9F800003146E9
:103FA00000F099FF0028BFD1FDF79EFA401BB842F0
:103FB0004AD8BDF80E000028EFD0D9F838100329F0
:103FC000A2D081B2C9F844100904D9F8000000F069
:103FD0003AFF0028A8D1D9F800000021C047C9F84D
:103FE0005C000421D9F80000C047C9F8600008212E
:103FF000D9F80000C047C9F864000C21D9F80000C6
:10400000C047C9F868007FE7D9F84410D9F8000024
:10401000090400F0E9FE00287FF486AFD9F800001B
:104020004FF4007100F039FE60B1D9F80010A84AD1
:104030008A63D9F8341008430121C9F8340089F89B
:10404000301079E7002177E74FF000406CE700BFC0
:1040500000350C0010210100C1520008000010C101
:104060002DE9F043B7B0044632A81421FCF788F9D3
:1040700002A8C021FCF784F920682A4988424ED161
:104080004FF480304FF00008029002A8CDF80C8069
:10409000CDF85880FDF768FF08B1FCF78DFD224888
:1040A000016832AC41F48031204D01604FF00209CB
:1040B0000168032601F4803101910C270199C16840
:1040C00041F00401C160C16801F00401019101994E
:1040D000C16841F00801C1602146C06800F00800D5
:1040E000019001984FF4F85032902846CDE933986A
:1040F00035963697FDF720F90420CDE9320905F50C
:1041000080602146CDE934863697FDF715F93120D8
:1041100000210022FDF7E6FB3120FDF7D5FB37B08B
:10412000BDE8F08300700052D444025800080258E1
:10413000F0B587B00029044610D094F8300001286B
:1041400012D10E460021616315469818226D1F4654
:1041500090420BD9606B40F0007002E0606B40F061
:1041600000606063012046E0022044E0032084F800
:1041700030004FF0FF332068A26BC162012A019327
:104180004FEA4723C4E9096302934FF09003039376
:104190004FF002030493059118BF6D02069101A927
:1041A00000F02AFF2068022FC16841F04001C16081
:1041B0004FF001018665016505D38221E162294640
:1041C00000F0E0FD04E08121E162294600F0F3FD0A
:1041D000002821680AD03E4A8A63616B0843606305
:1041E0000120002184F83000E16204E0C86B40F453
:1041F0009570C863002007B0F0BD00BFFCF796BC07
:10420000FCF7D2BC2DE9F04186B00029044610D05D
:1042100094F83000012812D10E4600216163154642
:104220009818226D1F4690420BD9606B40F00070C9
:1042300002E0606B40F000606063012044E0022017
:1042400042E0032084F830004FF0FF3320684FF045
:104250009008A26BC162012A00934FEA4723C4E988
:1042600007630193CDE90281049118BF6D020591A6
:10427000694600F0C1FE2068022FC16841F040018C
:10428000C1604FF001018665016505D3A021E1629F
:10429000294600F07FFE04E02946C4F82C8000F097
:1042A00092FE002821680AD0094A8A63616B08439C
:1042B00060630120002184F83000E16204E0C86BF3
:1042C00040F48D70C863002006B0BDE8F08100BFE7
:1042D000FF0FE01F411E0020B0EB116F01D0012045
:1042E0007047044A5160F021034B19700721906018
:1042F0001160704710E000E023ED00E090F88410BA
:10430000012901D1022112E02421C0F8881002689D
:104310001368116823F0005321F00101116000219E
:10432000416613602022C0F8882080F88410084677
:104330007047B0B5044690F88400012801D10220EE
:10434000B0BD012084F884002420C4F888002068CF
:104350000568026822F001020260826822F0606251
:1043600011438160204601F0F3FA206805602020A7
:10437000C4F88800002084F88400B0BDB0B50446BD
:1043800090F88400012801D10220B0BD012084F8FA
:1043900084002420C4F8880020680568026822F0A0
:1043A00001020260826822F060421143816020466F
:1043B00001F0CEFA206805602020C4F888000020B3
:1043C00084F88400B0BD10B5E0B10446D0F8880090
:1043D00028B9002084F88400204600F027F8242023
:1043E000C4F888002068A16A0268002922F001024E
:1043F000026002D0204601F0D5FA204601F0BEFB53
:10440000012801D1012010BD2068416821F49041AC
:104410004160816821F02A018160016841F0010159
:1044200001602046BDE8104001F020BB10B5B8B0D7
:10443000044633A81421FBF7A3FF02A8C021FBF711
:104440009FFF2068174988422AD10120002402904A
:1044500002A803942194FDF787FD08B1FCF7ACFB9B
:104460009D48016941F010010161016901F01001ED
:1044700001910199016841F00101016033A90068CF
:1044800000F00100019001984FF4C06033900220C9
:10449000CDE934040720369437900348FCF74CFFED
:1044A00038B010BD00100140000002582DE9FC4159
:1044B0000446D0F8880020284DD10E4600294FF040
:1044C00001004ED01746002A4BD04FF000082120A3
:1044D000C4F890801D46C4F88800FDF705F8A4F8DC
:1044E0005470A4F856700746A168B1F5805F1FD1DB
:1044F0002069002814BF3046B046064618E08021E7
:104500000095002220463B4601F006FD28BB002E08
:10451000206802D016F8011B04E038F8021B0026C0
:104520006FF35F218162B4F856000138A4F8560099
:10453000B4F856000028E2D1402100950022204620
:104540003B4601F0E9FC00284FF0200118BF032092
:10455000C4F8881005E0022003E02020C4F8880099
:10456000032002B0BDE8F081FEE7000000285B48B0
:104570004FF080010CBF01220022FCF7AABF00BF50
:1045800010B58021554C2046FCF79EFFC0F101007C
:10459000C2B280212046BDE81040FCF79ABF00BFA0
:1045A0006D48FDF731B800BF10B5034C611C0348DE
:1045B000FCF706FB207010BD48000024BC8C0008EE
:1045C00080B588B0164817490022016001214FF0DC
:1045D000080C426010238160C0F80CC04FF0400E00
:1045E00003614FF4C073C0E905E34FF40063C26197
:1045F0004FF4805EC0E9083E019109210291062135
:104600008262CDE9031C0321CDE90511079101A9BF
:10461000FEF71EFF08B1FCF7CFFA08B080BD00BF5F
:10462000D803002440410052B0B586B000202B4C86
:104630000590294800220168802541F004010160AD
:10464000016801F0040100910099016841F0200126
:104650000160016801F0200100910099016841F0BA
:1046600080010160016801F08001009100990168FA
:1046700041F040010160016801F0400100910099A2
:10468000016841F010010160016801F01001009122
:104690000099016841F008010160016801F008011A
:1046A00000910099016841F00101016080210068DA
:1046B00000F00100009000982046FCF70AFF01205E
:1046C0000195CDE902000220049001A92046FCF7E3
:1046D00033FE06B0B0BD00BFE0440258001C0258D3
:1046E000E0B51C4801681D2241F0010101601B4931
:1046F0000823006800F0010001900198164801604D
:104700000021C0E901210222C1600161C0E9052345
:104710004FF00072C16101230162C0E90923C0E9C1
:104720000B11C0E90D11FDF72DF808B1FCF744FAA3
:10473000002109480022FCF733FF08B1FCF73CFADE
:104740007A2000210022FDF7CDF87A20BDE88C40C8
:10475000FDF7BAB8D4440258CC02002440000052FD
:1047600010B586B001A81421FBF70AFE16481749B8
:10477000002401607F21FF22009400F108034460BF
:1047800016C3C0E90544C461FEF716FD08B1FCF785
:1047900013FA01A90C480122ADF804408DF8064037
:1047A000CDE90444FEF7CAFD08B1FCF705FA084854
:1047B0000090694604480122FEF76CFD08B1FCF741
:1047C000FBF906B010BD00BF3803002400400058BC
:1047D00001010100064807490022C0E900124FF418
:1047E0008041C0E902210221C0E90421704700BFD5
:1047F0005C0300240070005210B5174C17484FF4AA
:10480000E13120600020C4E901100C21E060C4E91E
:10481000040104F118001421FBF7B2FD2046FFF754
:10482000D2FD08B1FCF7C8F90B480021FFF7A6FD3F
:1048300008B1FCF7C1F908480021FFF77AFD08B17B
:10484000FCF7BAF90448FFF759FD18B1BDE810406C
:10485000FCF7B2B910BD00BF0C04002400100140E9
:10486000FEE70000E0B51D4801221D4902F09EFC54
:10487000B0B101460D2818D11AA004F09DF94FF4EB
:10488000006C17480221204B0022CDF800C002F036
:104890008DF978B101461DA0BDE88C4003F03ABF08
:1048A0002F48BDE88C4004F087B92E48BDE88C4005
:1048B00003F030BF1FA004F07FF908480122084927
:1048C00002F074FC28B101462348BDE88C4003F097
:1048D00021BF2248BDE88C4004F06EB98800002456
:1048E000490000240D0A4E6F2066696C65207379BB
:1048F0007374656D2C20737461727420666F726DB1
:10490000617474696E670D00A4060024466F726DB1
:10491000617474696E67206661696C65642C2065DA
:1049200072726F7220636F6465203D2025640D0AEA
:1049300000000000466F726D617474696E672073C9
:1049400075636365656465642C2072656D6F756E53
:1049500074696E670D000000B8900008529100085D
:10496000B7910008DA900008FEE77047F8B57F4F6E
:10497000BA6A02F00302032A01D1012074E005465D
:10498000386820F080600C463860FCF7ADFD0646C4
:104990003868000105D5FCF7A7FD801B0228F7D970
:1049A0005FE0B86A4FF47E43696820F47C30AA68FF
:1049B000013903EB42222B686FF35F2192B240EA88
:1049C00003301144EA684FF4FE03B86203EB02427D
:1049D00002F4FE02881829694FF0FE4202EB0161E1
:1049E00001F0FE410844B863002CF86A20F0C000D2
:1049F000696940EA0100F862F86A20F02000A969BC
:104A000040EA0100F8624FF6F871F86A20F01000F1
:104A1000F862F86B20EA0100E96940EAC100F86336
:104A2000F86A40F01000F86205D0012CF86A06D14F
:104A300040F4801005E0F86A40F4002001E040F402
:104A40000010F862386840F080603860FCF74CFD78
:104A500004463868000106D4FCF746FD001B032815
:104A6000F7D3032000E0002001B0F0BDF8B53F4FC0
:104A7000BA6A02F00302032A01D1012074E005465C
:104A8000386820F080500C463860FCF72DFD064653
:104A90003868800005D5FCF727FD801B0228F7D970
:104AA0005FE0B86A4FF47E43696820F07C70AA68C2
:104AB000013903EB42222B686FF35F2192B240EA87
:104AC00003501144EA684FF4FE03B86203EB02425C
:104AD00002F4FE02881829694FF0FE4202EB0161E0
:104AE00001F0FE4108443864002CF86A20F440606C
:104AF000696940EA0100F862F86A20F40070A96967
:104B000040EA0100F8624FF6F871F86A20F480700C
:104B1000F862786C20EA0100E96940EAC100786433
:104B2000F86A40F48070F86205D0012CF86A06D16A
:104B300040F4000005E0F86A40F4800001E040F035
:104B40008070F862386840F080503860FCF7CCFC28
:104B500004463868800006D4FCF7C6FC001B032816
:104B6000F7D3032000E0002001B0F0BD004402585C
:104B7000C143CAB20A23F62A98BF6FF00901014463
:104B80000A31CAB2B2FBF3F202EB8203A1EB430398
:104B9000591A084440EA0210C0B2704770B5044682
:104BA0000068C168490618D44FF0FF31C160002683
:104BB000FCF79AFC05460BE010F040000ED1FCF724
:104BC00093FC401BB0F57A7F02D9032684F821605C
:104BD0002068032EC068EFD100E00026F0B270BD5F
:104BE000B0B5124D6968044621F0800169602968FA
:104BF000890609D42046FEF70FFC00280EBF0020CE
:104C0000032084F82100B0BD286820F0200028602F
:104C10002046FEF701FC18B1032084F8210000E0D3
:104C20000020296841F020012960B0BD08400058EB
:104C30000148FEF759BF00BF5C03002410B586B0E1
:104C40000191372102914FF4807103910021049169
:104C50004FF48051059101A9044600F053FB372120
:104C600041F28832204600F0DDF906B010BD10B5E3
:104C700086B00191292102914FF4807103910021A6
:104C800004914FF48051059101A9044600F03AFBCC
:104C9000204600F07DFA06B010BD10B586B0019137
:104CA000102102914FF480710391002104914FF47F
:104CB0008051059101A9044600F024FB102141F226
:104CC0008832204600F0AEF906B010BD10B586B0AF
:104CD0000191062102914FF480710391002104910A
:104CE0004FF48051059101A9044600F00BFB062109
:104CF00041F28832204600F095F906B010BD000060
:104D000010B586B00021CDE90311CDE901114FF4B2
:104D10008051059101A9044600F0F4FA0B484FF4C4
:104D2000FA510068B0FBF1F041F288314843C043CA
:104D3000013006D0616B0906FAD50548A063002052
:104D400001E04FF0004006B010BD00BF1400002489
:104D5000C500200010B586B04FF4D571019108212F
:104D600002914FF480710391002104914FF480511E
:104D7000059101A9044600F0C5FA204600F070FA3A
:104D800006B010BD10B586B00191122102914FF40A
:104D900080710391002104914FF48051059101A984
:104DA000044600F0AFFA122141F28832204600F0AA
:104DB00039F906B010BD10B586B0019111210291EC
:104DC0004FF480710391002104914FF480510591BB
:104DD00001A9044600F096FA112141F288322046DA
:104DE00000F020F906B010BD10B586B00191072182
:104DF00002914FF480710391002104914FF480518E
:104E0000059101A9044600F07DFA072141F288329C
:104E1000204600F007F906B010BD10B586B000219D
:104E20000222019102924FF44072CDE903214FF426
:104E30008051059101A9044600F064FA204600F073
:104E400081F906B010BD10B586B00191092102911B
:104E50004FF440710391002104914FF4805105916A
:104E600001A9044600F04EFA204600F06BF906B0A6
:104E700010BD10B586B000213322019102924FF48B
:104E80008072CDE903214FF48051059101A90446B8
:104E900000F038FA332141F28832204600F0C2F89F
:104EA00006B010BD10B586B001910D2102914FF4EE
:104EB00080710391002104914FF48051059101A963
:104EC000044600F01FFA0D2141F28832204600F01E
:104ED000A9F806B010BDB0B586B000220323019238
:104EE00002934FF48073CDE903324FF480520C46A5
:104EF000059201A9054600F005FA0321284622463D
:104F000000F068F906B0B0BD10B586B000210D22E2
:104F1000019102924FF48072CDE903214FF4805148
:104F2000059101A9044600F0EDF90D2141F2883206
:104F3000204600F077F806B010BD000010B586B02E
:104F400000210C22019102924FF48072CDE90321DD
:104F50004FF4805105910446C06801A940F08000DB
:104F6000E060E06820F04000E060204600F0CAF910
:104F70000C21074A204600F055F8E168B0F1007FA7
:104F800021F0800108BF00F17E40E16006B010BD55
:104F900000E1F50510B586B00191192102914FF499
:104FA00080710391002104914FF48051059101A972
:104FB000044600F0A7F9192141F28832204600F09A
:104FC00031F806B010BD10B586B0019118210291DC
:104FD0004FF480710391002104914FF480510591A9
:104FE00001A9044600F08EF9182141F288322046CA
:104FF00000F018F806B010BD10B591E80850CC6864
:1050000002464362C0F828C044EA0E000B69184308
:1050100049690843D16A21F0FF0101430020D162B0
:1050200010BD000010B5A34B4FF4FA541B68B3FB3E
:10503000F4F3424C53430246DB4301333FD0506B01
:105040002042FAD010F40050F7D1506B400739D409
:10505000506BC00739D104F1800090631069C0B271
:10506000884235D150693649084233D0002833DBB5
:10507000410034D4810034D4C10034D4010135D48A
:10508000410136D4C10137D4010238D4410239D4A8
:1050900081023AD4C1023BD441033CD481033DD4C4
:1050A000C1033ED401043FD4410440D4810441D41F
:1050B00000074FF4000058BF4FF4803010BD4FF090
:1050C000004010BD0420906310BD0120906310BD0E
:1050D000012010BD002010BD4FF0007010BD402019
:1050E00010BD802010BD4FF4807010BD4FF40070D3
:1050F00010BD4FF4806010BD4FF4006010BD4FF440
:10510000805010BD4FF4005010BD4FF4804010BDD2
:105110004FF4004010BD4FF4003010BD4FF480201C
:1051200010BD4FF4002010BD4FF4801010BD4FF49F
:10513000001010BD4FF4800010BD00BF45002000DE
:1051400008E0FFFD5B494FF4FA520968B1FBF2F148
:1051500041F288325143C943013110D0426B12F001
:10516000450FF9D012F40052F6D1416B490709D42A
:10517000416BC90708D139498163002106E04FF02E
:10518000004103E0042100E00121816308467047EB
:1051900048494FF4FA520968B1FBF2F141F2883202
:1051A0005143C943013110D0426B12F0450FF9D081
:1051B00012F40052F6D1416B042211F0040104BF35
:1051C000C522C0F22002826301E04FF00041084690
:1051D000704700BF80B5374BD3F800C04FF4FA5387
:1051E000BCFBF3FC41F288330CFB03F36FEA030EC4
:1051F0001EF1010E20D0D0F834C01CF0450FF7D0BE
:105200001CF40053F4D1436B5B0718D4436BDB07EA
:1052100017D10369DBB28B4217D110498163406912
:1052200010F4604F13D0410415D400044FF48050A3
:1052300058BF4FF4803080BD4FF0004103E004219F
:1052400000E001218163084680BD0121FBE7000CDD
:1052500010800021F7E74FF40051F4E7C50020006B
:1052600014494FF4FA520968B1FBF2F141F2883265
:105270005143C943013113D0426B12F0450FF9D0AD
:1052800012F40052F6D1416B49070CD4416BC907A7
:105290000BD1416B490601D540218163002106E015
:1052A0004FF0004103E0042100E001218163084642
:1052B000704700BF14000024006800F0030070472E
:1052C0000844406970470000844641EA02000099A2
:1052D0001843019A0843DCF804101043034A1140B4
:1052E00001430020CCF80410704700BF002CC0FF21
:1052F0000146006840F0030200200A607047D0F8C1
:105300008000704780B5D1E900EC8B680246C86820
:1053100043EA0C03C2F808E018430969034B084349
:10532000D168194001430020D16080BDC0E0FEFF7C
:10533000024609680020C2F8801070472DE9F84342
:105340001D4C4FF001081D4D10274FF000091C4E59
:105350004FF6FF7228462146C4E90087C4E9028956
:10536000B0470120FBF7D8FF022084E881034FF605
:10537000FF7228462146B047032020600820C4E978
:1053800001704FF6FF72C4F80C9028462146B047D2
:105390000420C4E900074FF40C70C4E902804FF602
:1053A000FF7228462146B04740F296312846BDE8B4
:1053B000F843FEF7EBB800BF50000024D8030024E8
:1053C000BD35000810B55E4C01202070FBF754FB82
:1053D00018B9207800F0FE002070207810BD00BFC2
:1053E000B0B5FCF781F8044647F22F55FCF77CF87E
:1053F000001BA84205D8FBF73FFB0028F6D1002090
:10540000B0BD4FF0FF30B0BD2DE9F04786B00C467F
:105410000546FCF769F8064628680821FFF73DFCB9
:10542000002855D1696C28680904FFF707FC00289B
:105430004ED14FF0FF3000900820019030200290B4
:1054400002200390002004900120059069462868FE
:10545000FFF7D2FD2868FFF70CFDC8BB002740F21C
:105460002A5A4FF000094FF000082968486B10EAEB
:105470000A0F486B14D100F40020384308D10846C5
:10548000FFF73DFF80462868FFF739FF8146012777
:10549000FCF72AF8801B01304FF00040E5D117E0FF
:1054A00000070FD4486B80070ED4486B80060DD4DC
:1054B0000948886398FA88F199FA89F0C4E90001EB
:1054C000002005E0082002E0022000E020208863A0
:1054D00006B0BDE8F08700BF3A0F001880B5FBF7B3
:1054E000D3FA18B9FFF76EFF154908701448007811
:1054F00080BD00BF10B58AB011480078C0070CD13C
:10550000084603290BD81446DFE800F018020B11F7
:1055100001A8FBF7ABFA07980EE003200EE0042089
:105520000CE001A8FBF7A2FA0898208005E001A88A
:10553000FBF79CFA0898400A206000200AB010BDD2
:10554000200000242DE9F84F1C4693468946FFF7BA
:1055500047FF002849DB5FEA897000943FD04FF095
:10556000000A8A4F404E47F23058874D2EE0012204
:1055700038465946FBF7A6FA58BB0BF1010BFBF76F
:10558000B3FF0446306820B9FBF7AEFF001B40456F
:10559000F8D330680028009C4FF0000019D030602C
:1055A000BFF34F8FC11920302960B0F5007FF9D1CA
:1055B000BFF34F8FBFF36F8F4FF4007248463946E9
:1055C000FAF7B7FE09F500790AF1010AA245CED330
:1055D00000208AEA0401084318BF012006E048467B
:1055E00059462246FBF76EFA18B1012001B0BDE81A
:1055F000F08F1D4C00202060FBF776FF064647F237
:105600003055206820B9FBF76FFF801BA842F8D304
:1056100020680028E9D000202060FBF765FF0646DF
:1056200047F22F54FBF760FF801BA042DDD8FBF749
:1056300023FA0028F6D129F01F00009AA9EB0001F7
:1056400001EB422101290CDBBFF34F8F4E4A203979
:105650001060002900F12000F9DCBFF34F8FBFF389
:105660006F8F0020C2E700BF84000024FFF7AABEAE
:105670002DE9F84F434F00209846386092460E4679
:10568000FFF7AEFE002858DBB0073CD0BFF34F8FCA
:1056900000213E4A3C488B1820310360B1F5007F61
:1056A000F9D1BFF34F8FBFF36F8F47F2305BDFF855
:1056B000DC9000251EE0002038604FF40072484660
:1056C0003146FAF736FE012248465146FBF734FAD6
:1056D00098B906F500760AF1010AFBF705FF0446C2
:1056E000386820B9FBF700FF001B5845F8D338682D
:1056F00010B101354545DED3002085EA0801084395
:1057000018BF01201AE026F01F00311A01EB4821D2
:1057100001290CDBBFF34F8F1B4A2039D0600029D1
:1057200000F12000F9DCBFF34F8FBFF36F8F3046DD
:1057300051464246FBF700FA18B1012001B0BDE81E
:10574000F08FFBF7D1FE044647F23055386820B998
:10575000FBF7CAFE001BA842F8D338680028ECD03B
:1057600000203860FBF7C0FE044647F22F55FBF7D8
:10577000BBFE001BA842E0D8FBF77EF90028F6D15B
:105780000020DBE7BC0200245CEF00E0A004002462
:105790007047FBF7ADBE0000B0B59CB009A83C4C0B
:1057A0003C4D4C21FAF7ECFD01A82021FAF7E8FD69
:1057B0000220FCF7C7F800200090286820F00100C4
:1057C0002860286800F001000090206840F4404004
:1057D0002060206800F44040009000982068800419
:1057E000FCD52D48215841F002012150205800F0ED
:1057F00002000090009800200090206840F4404093
:105800002060206800F440400090286840F00100CB
:105810002860286800F0010000900098206880044B
:10582000FCD5092009904FF480300A9001200E9099
:1058300002200521CDE912001491C021CDE91510F7
:105840000421CDE9171008240025199409A8CDE9F1
:105850001A55FDF71FFA18B1EFF3108072B6FEE784
:105860003F2001900320CDE90205402004944FF42D
:105870008061CDE90500CDE9071001A80421FDF7FD
:105880003FF818B1EFF3108072B6FEE71CB0B0BD60
:10589000184802582C040058DCFCFFFF234801681C
:1058A000214A41F470010160106800F00F000628E1
:1058B00004D81068072161F30300106010B51C487C
:1058C00001681C4C41F00101016000210161036885
:1058D0002340036013681B0704D51368072464F38F
:1058E00003031360144A8161C16101628262134A39
:1058F000C262134A026341638263C163026441640A
:10590000026822F48022026001660E480068B1EB52
:10591000507FBDE8104002D101200B49086043F2DE
:10592000D2000A49086070470020005288ED00E06C
:10593000004402587FEDF6EA000202020000FF0177
:10594000800201010010005C0881005100400052FB
:10595000416ED9B180B501688A68C2F34262896834
:10596000490FDFF838C01CF80130DFF834E01EF8CA
:1059700001101B01B3FBF1F11CF802301EF80220EC
:105980001B01B3FBF2F2BDE8804001E001210122DE
:10599000A0F86A10A0F86820704700BFE88D0008E2
:1059A000F08D0008816A0A0708D50268D0F838C06F
:1059B000536823F4004343EA0C035360CA0708D03A
:1059C0000268D0F82CC0536823F4003343EA0C0378
:1059D00053608A0708D50268D0F830C0536823F4B2
:1059E000803343EA0C0353604A0708D50268D0F8B5
:1059F00034C0536823F4802343EA0C035360CA067F
:105A000008D50268D0F83CC0936823F4805343EA79
:105A10000C0393608A0608D50268D0F840C09368EA
:105A200023F4005343EA0C0393604A0612D502683C
:105A3000D0F844C05368BCF5801F23F4801343EAB8
:105A40000C03536006D1536823F4C00C836C43EA03
:105A50000C035360090658BF70470168C06C4A6860
:105A600022F400221043486070470000BCB50021BA
:105A70000446C0F89010FBF737FD216805460A6818
:105A8000120718D525484FF4001100900022204637
:105A90002B4600F041FA68B1206850E8000F2168F9
:105AA00020F0800041E80002002AF5D12020C4F84F
:105AB000880024E021680868400722D517484FF481
:105AC00080010090002220462B4600F025FAC0B14C
:105AD000206850E8000F216820F4907041E800022F
