:020000040800F2
:1000000088310024AD02000879620008195E0008FA
:1000100071610008C10B0008357C00080000000079
:10002000000000000000000000000000ED7100086A
:10003000690F0008000000007B620008EF710008F3
:10004000C7020008C7020008C7020008C70200086C
:10005000C7020008C7020008C7020008C70200085C
:10006000C7020008C7020008C7020008C50B000845
:10007000D10B0008C7020008C7020008C702000829
:10008000C7020008C7020008C7020008C70200082C
:10009000C7020008C7020008C7020008C70200081C
:1000A000C7020008C7020008C7020008C70200080C
:1000B000C7020008C7020008C7020008C7020008FC
:1000C000C7020008C7020008C7020008C7020008EC
:1000D000C7020008297C0008C7020008C702000800
:1000E000C7020008C702000800000000C70200089D
:1000F000C7020008C7020008C7020008C7020008BC
:10010000C702000841650008C7020008C7020008CE
:10011000C7020008C7020008C7020008C70200089B
:10012000C7020008C7020008C7020008C70200088B
:10013000C7020008C7020008C7020008C70200087B
:1001400000000000000000000000000000000000AF
:10015000C7020008C7020008C7020008C70200085B
:10016000C7020008C7020008C7020008C70200084B
:10017000C7020008C7020008C7020008000000000C
:10018000C7020008C7020008C7020008C70200082B
:10019000C7020008C7020008C7020008C70200081B
:1001A000C7020008C7020008C7020008C70200080B
:1001B000C7020008C7020008C7020008C7020008FB
:1001C000C7020008C7020008C7020008C7020008EB
:1001D000C7020008C7020008C7020008C7020008DB
:1001E000C7020008C7020008C7020008C7020008CB
:1001F000C7020008C7020008C7020008C7020008BB
:10020000C7020008C7020008C7020008C7020008AA
:10021000C7020008C7020008C7020008C70200089A
:10022000C7020008C7020008715E00080000000055
:10023000C7020008C702000800000000C70200084B
:10024000C7020008C7020008C7020008C70200086A
:10025000C7020008C7020008C7020008C70200085A
:10026000C7020008C7020008C7020008C70200084A
:10027000C7020008C7020008C7020008000000000B
:10028000C7020008C7020008C702000800000000FB
:1002900000000000C7020008DFF80CD000F068FA88
:1002A00000480047E19E0008883100240648804746
:1002B00006480047FEE7FEE7FEE7FEE7FEE7FEE74B
:1002C000FEE7FEE7FEE7FEE7F97200089902000884
:1002D0002DE9F05F0546002092469B46884606467B
:1002E000814640241BE0284641464746224600F00E
:1002F00077F853465A46C01A914110D31146184612
:10030000224600F05EF82D1A67EB01084F462246A0
:100310000120002100F055F817EB00094E41201E86
:10032000A4F10104DFDC484631462A464346BDE8D5
:10033000F09F10B5431A934209D28318881803E03E
:1003400010F8011D03F8011D521EF9D210BD40EA3C
:1003500001039B0703D009E008C9121F08C0042A43
:10036000FAD203E011F8013B00F8013B521EF9D22A
:1003700010BDD2B201E000F8012B491EFBD270473C
:100380000022F6E710B513460A4604461946FFF761
:10039000F0FF204610BD30B50B460146002020225C
:1003A000012409E021FA02F59D4205D303FA02F582
:1003B000491B04FA02F52844151EA2F10102F1DCE2
:1003C00030BD202A04DB203A00FA02F100207047F9
:1003D0009140C2F1200320FA03F319439040704783
:1003E000202A04DB203A21FA02F00021704721FA8A
:1003F00002F3D040C2F120029140084319467047F1
:100400002DE9FE4F804681EA0300C00F0C460090A4
:1004100021F0004123F00045B8EB0200A94105D2CC
:100420004046214690461C460B46024623F00040BB
:10043000104347D0270DC7F30A00C3F30A510290B7
:10044000401A019040286BDAC3F3130040F4801B7C
:100450000098924620B10023D2EB030A63EB0B0B0A
:1004600001985946C0F140025046FFF7AAFF0646E0
:100470000D4650465946019A00F08CF910EB0800E1
:100480006141002487EA115284EAE7731A4340D09D
:10049000009A62B3019A012A4FEA075215DC001B49
:1004A00061EB02014FF0004202EA0752CDE900423F
:1004B000001C41F5801132462B4600F08CF903B048
:1004C000BDE8F08F40462146F9E7001B61EB0201D1
:1004D000001C41F5801300185B412018A2F500179D
:1004E00047EB030140EAD570B6196D4111E06D0884
:1004F0004FEA360645EAC0754FEA0752001B61EB2A
:100500000201001C41F5801149084FEA3000001932
:10051000514132462B4603B0BDE8F04F00F04CB9D4
:100520000098012240000023D0EB020263EBE0734D
:10053000009821464FEAE074B8EB000061EB04013B
:10054000E9E783F000435BE781F0004158E72DE9DC
:10055000FE4F81EA030404F0004421F000410094BE
:100560004FF0000B23F0004350EA01045ED052EA42
:1005700003045BD0C3F30A54C1F30A552C44A4F21C
:10058000F3340194A0FB0254C1F3130141F4801130
:10059000C3F3130343F4801301FB024400FB034E37
:1005A000840A970A44EA815447EA8357A4FB076800
:1005B00002958D0A05FB07854FEA932C04FB0C542A
:1005C0002705029D4FEA065847EA1637B5EB08059E
:1005D0006EEB070C870E920E47EA811742EA8312F0
:1005E000A7FB0201B6EB0B0164EB00042B0D43EA01
:1005F0000C335E1844EB1C50DA465146E7FB02010F
:10060000C5F313044FEA0B3343EA14534FEA0432A1
:10061000019C43EA0603A4F10C040294009CCDE97A
:1006200000B400F0D8F803B0BDE8F08F0020014618
:10063000F9E72DE9F04D81EA030404F0004B21F0C5
:10064000004514464FF0000A23F0004150EA05022D
:1006500020D054EA01021DD0C5F30A570246C5F363
:100660001303C1F31300C1F30A5640F4801543F499
:100670008013A7EB0608101BD64608F2FD3873EB73
:10068000050002D308F1010801E092185B41B8F1BE
:10069000000F03DA00200146BDE8F08D00204FF482
:1006A0008011064684460EE0171B73EB050705D341
:1006B000121B63EB050306434CEA010C49084FEAA1
:1006C000300092185B4150EA0107EDD152EA030075
:1006D00012D082EA040083EA0501084305D0101B0A
:1006E000AB4106D20122002306E000224FF0004376
:1006F00002E06FF0010253101AEB06004CEB0851B8
:1007000010EB0A0041EB0B01BDE8F04D00F054B8CE
:10071000C1F30A52C1F3130140F2FF3341F48011D7
:100720009A4202DA00200146704740F233439A426F
:10073000A2F2334202DC5242FFF752BEFFF741BE43
:1007400030B5041E71F1000404DB4FF00044404258
:1007500064EB0101141E73F1000405DB1C464FF02D
:100760000043524263EB0403994208BF904230BDFC
:10077000064C074D06E0E06840F0010394E80700EE
:1007800098471034AC42F6D3FFF78AFD48B800080A
:1007900068B80008202A06DBCB17203A41FA02F09D
:1007A00043EAE07306E041FA02F3D040C2F12002CE
:1007B000914008431946704710B5141E73F10004A8
:1007C00008DA401C41F1000192185B411A4301D143
:1007D00020F0010010BD2DE9F04D92469B4611B16D
:1007E000B1FA81F202E0B0FA80F220329046FFF7CF
:1007F000E8FD04460F4640EA0A0041EA0B01534671
:100800005A46084313D0114653EA010019D0C8F1E3
:1008100040025046FFF7E4FD05460E465046594655
:100820004246FFF7CEFD084305D0012004E02046F4
:100830003946BDE8F08D0020054346EAE0762C43BA
:1008400037430A986305E40AA0EB08000022FD0A7A
:1008500044EA47540A3002D500200146E9E7010581
:1008600010196941DDE9084500196941BDE8F04DFD
:10087000A2E700002DE9F041494C0020A0470120EB
:10088000A047DFF82081C820C0470020A047C8202B
:10089000C0470120A047444F38684000C0470524A6
:1008A00042A508E02846214609F0D4FD4FF47A70AD
:1008B00001F028FF013C002CF4D14A484A4EB047D1
:1008C00005F0CEFA4948B047386801F01BFF4848A8
:1008D000B04706F0BBF947A0B04706F0FBF908B1F6
:1008E000524800E0524809F0B5FD386801F00AFFAF
:1008F0005048B04709F0D2FB4F48B0474F48B04787
:1009000009F0D6FB08B14E4800E04E4809F0A2FDC0
:100910003868C0473868C0474B48B047314C20461C
:10092000B0474A48B04705F025FC2046B047484844
:10093000B04700F047FC2046B0474648B04746A0C5
:1009400000F0E8FD2046B0474448B047444D4FF41E
:10095000FC610B220F23284600F050FE2046B047D2
:100960004048B047284600F079FD2046B0473E4851
:10097000B047284600F0CCFC2046B0473B48B04783
:10098000284600F0BDFB2046B0473948B0473868DC
:10099000C0473848B0472046B0470020BDE8F08146
:1009A0001D5E000805270008140000245B494E491D
:1009B0005449414C495A4154494F4E5D20436F754B
:1009C0006E7420446F776E20666F72205570636F6F
:1009D0006D696E672054657374696E673A2025648B
:1009E000200A0D00FEB2000855A400085EB0000801
:1009F00063B200085B494E495449414C495A41543D
:100A0000494F4E5D20534452414D20496E697469EF
:100A1000616C697A6174696F6E202D2046494E4978
:100A2000534845440D0A0A0D0000000050AF00086D
:100A300077AF000893B20008EAAF0008CFB2000811
:100A40002BB0000892B00008C8B0000880B10008C0
:100A5000DAB1000807B20008303A2F0058B1000898
:100A600001B3000830B10008ADB100080CB10008B6
:100A7000A1AF000832B200084D49024608461146AF
:100A800004F03EB980B54A4804F04BF9043818BF69
:100A9000012080BD80B500F013F8012804D144483E
:100AA00004F046FB10B180BD022080BD40484FF4E9
:100AB000804103F097FF002818BF012080BD00BFD0
:100AC00081B001208DF803009DF8030001B070474C
:100AD0002DE9F8430023354C63609446BFF34F8FF4
:100AE00027688846C7F34E33C7F3C90781466FEAC4
:100AF000070EBD0743F6E07000EA43162F46724624
:100B000047EA06010132C4F8EC1107F14047F7D17A
:100B1000002BA3F10103EFD1BFF34F8FBFF36F8F12
:100B2000234849464246634604F0F8FC002818BFB3
:100B3000012001B0BDE8F083014801210160704748
:100B4000640200242DE9F8430023184C63609446A6
:100B5000BFF34F8F27688846C7F34E33C7F3C907E3
:100B600081466FEA070EBD0743F6E07000EA4316C0
:100B70002F46724647EA06010132C4F8EC1107F12C
:100B80004047F7D1002BA3F10103EFD1BFF34F8F03
:100B9000BFF36F8F064849464246634604F028FD7E
:100BA000002818BF012001B0BDE8F08380ED00E00F
:100BB0002C06002401480121016070479C04002498
:100BC000FEE70000014800F0F3BF00BFAC040024C2
:100BD000014800F0EDBF00BF240500240168CA4AA7
:100BE000914223D0C94A91421CBFC94A91421DD0AB
:100BF000C84A91421CBFC84A914217D0C74A914285
:100C00001CBFC74A914211D0C64A91421CBFC64A76
:100C100091420BD0C54A91421CBFC54A914205D0B2
:100C2000C44A91421CBFC44A91421AD180B56FF0A8
:100C30000F02DFF848C052FA81F21823B2FBF3F337
:100C400040F2FF3E21EA0E015F2A03F007031CF881
:100C50000330C36588BF0431BDE880408165084624
:100C60007047B64A9142E1D0B64A9142DED0B44ACA
:100C70009142DBD021F0FF01F0E700BF38AF000860
:100C80000268B1498A421F491CBFB04B9A4205D045
:100C9000AF4B9A421CBFAF4B9A4213D1D3B2A3F1D0
:100CA00008021423B2FBF3F301F1800201EB83018C
:100CB00003F01F0301664FF0010C0CFA03F1C0E9C9
:100CC00019217047A44B9A42E8D0A64B9A42E5D02E
:100CD000A24B9A42E2D0A1F55B7CD3B26245DED052
:100CE000A3F110011823B1FBF3F1084B03F1AA0C97
:100CF0009A420B4688BF0833624528BF0B4602491B
:100D0000D2E700BF00580258000802400F0402401A
:100D100001790139072988BF704702688A4B9A42D6
:100D20001CBF8A4B9A4205D0894B9A421CBF894B03
:100D30009A420BD18A000E4B4FF0010C1A444033FB
:100D4000C2660CFA01F1C0E91C317047824B9A422D
:100D5000F0D0844B9A42EDD0804B9A42EAD0804B3F
:100D60009A424FEA8102E6D0004BE5E700090240D3
:100D700000590258F0B5D0F800C0634CA445D0F833
:100D800058E03BD0614DAC451CBF614DAC4535D002
:100D9000604DAC451CBF604DAC452FD05F4DAC45A0
:100DA0001CBF5F4DAC4529D05E4DAC451CBF5E4DB0
:100DB000AC4523D05D4DAC451CBF5D4DAC451DD051
:100DC0005C4DAC451CBF5C4DAC4517D05B4DAC4594
:100DD0001CBF5B4DAC4511D05A4DAC451CBF5A4DA4
:100DE000AC450BD0594DAC451CBF594DAC4505D059
:100DF000584DAC451CBF584DAC456DD1C66ED0E9C1
:100E00001957002E6F6002D0D0E91C566E60A445C1
:100E100029D03E4CA4451CBF3D4CA44523D03D4C9D
:100E2000A4451CBF3C4CA4451DD03C4CA4451CBF54
:100E30003B4CA44517D03B4CA4451CBF3A4CA445A1
:100E400011D03A4CA4451CBF394CA4450BD0394CA9
:100E5000A4451CBF384CA44505D0384CA4451CBF44
:100E6000374CA4451CD1C46D3F2504F01F04806895
:100E700005FA04F4CEF80840DCF8007027F4802767
:100E8000CCF800704028CCF8043004D1CCF808200D
:100E9000CCF80C10F0BDCCF80810CCF80C20F0BD4C
:100EA0002F4CA4451CBF284CA4450BD0274CA4456F
:100EB0001CBF274CA44505D0264CA4451CBF264C7E
:100EC000A44516D1C46D012504F01F04806805FAFD
:100ED00004F4CEF80440D5E7204DAC453FF48EAF86
:100EE0001F4DAC453FF48AAF1E4DAC453FF486AF75
:100EF000D5E71A4CA445E5D01A4CA445E2D0114CD4
:100F0000A445B0D0CBE700BF10000240280002404B
:100F10004000024058000240700002408800024039
:100F2000A0000240B8000240100402402804024021
:100F30004004024058040240700402408804024009
:100F4000A0040240B8040240085402581C5402583D
:100F50003054025844540258585402586C540258A1
:100F600094540258805402587047EFF3108072B6C0
:100F7000FEE70022AFF3008080B5DFF848E09EF87E
:100F80000930002B01D0012080BD9EF80930844635
:100F900000200EF803009EF809300EEB8303C3F81F
:100FA00004C09EF8093073441A729EF80920531C3D
:100FB00030328EF809300A7042F63A72A1F80120F8
:100FC000C87080BDA004002410B50B6802460468F8
:100FD000002BD1E907E0D1F824C00ED024F4F84367
:100FE00040EA0E00184340EA0C00106047F6FF7319
:100FF00052F8040F98434B6809E047F6FF7324EA60
:10100000030340EA0E0018434B6840EA0C00184303
:10101000D1E9023418430B6920434C6918438969AC
:10102000204301430020116010BD0246406943F691
:10103000FE73984340EA410100205161704710B5AA
:10104000044600696FF315000B68D1F808E06FF0F3
:101050001F0C4A6818430CEB4E1CC968104340EA49
:101060000C0040EA41210020216110BDB0B50446CA
:101070001F4D54F808CF002ACB681E4A05EB033EEB
:101080004B6902EB035210D01B4B42EA0E0203EAFB
:101090000C031A43826050F80C2F04460B6802F0D0
:1010A0007042013B43EA020C08E00CF070400B6810
:1010B00042EA0E02013B104340EA030C0B690F4D5C
:1010C0006FF0FF0205EB03438D68886902EB052290
:1010D00049686FF00F0505EB011141EA0C0111435E
:1010E0000138194341EA006100202160B0BD00BF12
:1010F00000F0FFFF0000F0FFFF0F0FFF0000FFFFF9
:1011000010B5ADF50C7D04460FA0214609F0A2F9FB
:1011100068460022214607F0B5FE28B9684607F068
:10112000BDFA10A009F010FE204608F076F920B1B3
:10113000014611A009F08EF902E019A009F004FEA1
:101140000DF50C7D10BD00BF0D0A2A2A2A2044652A
:101150006C6574652046696C653A2025732A2A2AD5
:101160000D0A00004F70656E2073756363657373BD
:1011700066756C6C79210D0046696C652064656C40
:101180006574696F6E206661696C65642C20657298
:10119000726F7220636F64653A2025640D0A000047
:1011A0005468652066696C65207761732064656C9E
:1011B00065746564207375636365737366756C6CC1
:1011C00079210D002DE9FE4322A001A902AA07F012
:1011D00086FA20B120A009F0B7FDBDE8FE832348C0
:1011E000DFF88C80C0470298816942890239019BEF
:1011F00003FB02F5204C01FB02F701781D484FEA82
:10120000D529FE0AA0471D48C0471D48A0471DA07C
:101210004FF40071A047029841891C48A0470298EA
:101220008069811E1A48A0471A483946A0477A0D9E
:1012300019483146A047019918A0A0471EA0294689
:10124000A0476A0D23A04946A0472BA0C047BDE890
:10125000FE8300BF303A0000665F676574667265A2
:10126000652829206572726F720D000073B4000842
:1012700049AD000829B5000855A40008B6B4000817
:1012800013B5000825640D0A00000000D5B300085E
:101290003CB4000858B40008B3B300084672656552
:1012A00020636C757374657220636F756E74203D76
:1012B00020256C640D0A0000467265652073656325
:1012C000746F7220636F756E74203D20256C640D01
:1012D0000A00000046726565207370616365203DF9
:1012E00020256C64284D4229203D20256C64284728
:1012F00042290D0A00000000476574204641542031
:101300006469736B20696E666F204F4B0D0000009F
:10131000B0B5C6B0054614A0294609F09BF86C4646
:101320002846214608F00FF8042814D00146B0B929
:10133000009916A01C4DA8479DF808101BA0A847AF
:1013400004F116011FA0A847BDF80400BDF806105F
:1013500000F054F806E00C4809F0F6FC02E01EA08C
:1013600009F078F846B0B0BD0D0A2A2A2A2046694D
:101370006C6520696E666F206F663A202573202A9F
:101380002A2A0D0A00000000DCB4000846696C65DA
:101390002073697A6528627974657329203D202558
:1013A0006C640D0A0000000055A4000846696C65D5
:1013B00020617474726962757465203D20307825EF
:1013C000780D0A0046696C65204E616D65203D20F0
:1013D00025730D0A00000000665F7374617428298C
:1013E000206572726F722C206572726F7220636F4B
:1013F00064653A2025640D0A0000000010B540F233
:10140000BC7202EB502CC0F343120C4600F01F03D9
:1014100006A0614609F01EF8E10AC4F3451204F083
:101420001F0308A0BDE8104009F014B846696C65B8
:101430002064617465203D2025642F25642F256478
:101440000D0A000046696C652074696D65203D20B9
:1014500025643A25643A25640D0A000070B5ADF59F
:10146000267D044616A0214608F0F4FF1AA80122A2
:10147000214607F007FD042814D00146B0B901AC9D
:101480001AAD19A608E0642120462A4607F0A3F900
:101490003046214608F0DEFF1D9820998142F2D1A6
:1014A00012A000E00F4809F04FFC02E010A008F085
:1014B000D1FF1AA807F0F2F80DF5267D70BD00BF28
:1014C0000D0A2A2A2A2052656164696E67205458E1
:1014D000542066696C653A202573202A2A2A0D0A51
:1014E00000000000DCB40008257300000D000000BF
:1014F000665F6F70656E2829206572726F722C208E
:101500006572726F7220636F64653A2025640D0AFC
:10151000000000002DE9F041D4B0044647A8214660
:1015200007F0CCFD40B1054647A807F0C9F816A062
:10153000294608F08FFF24E01DA0214608F08AFF0D
:1015400001AC04F1160547AE0FF2940821A70CE098
:101550009DF81A0078B19DF80C00C00601D44046F1
:1015600000E03846294608F075FF3046214607F06E
:10157000BFFE0028ECD01DA009F0E6FB47A807F04D
:101580009FF854B0BDE8F0810D0A665F6F70656E1C
:101590006469722829206572726F722C20657272DC
:1015A0006F7220636F64653A2025640D0A000000A5
:1015B0000D0A2A2A2A20416C6C20656E74726965B6
:1015C0007320696E206469723A202573202A2A2AC2
:1015D0000D0A00004449523A2025730D0A0000000C
:1015E00046494C453A2025730D0A00005363616E4D
:1015F00020646972204F4B0D0000000010B5ADF55E
:10160000127D044613A0214608F024FF06A80A22F2
:10161000214607F037FC10B1014617A012E01FA0C9
:10162000D0E901C2D0E9033140690590CDE9033129
:10163000CDE901C2194806A90090684607F086FD69
:101640001CA0214608F006FF06A807F027F80DF5B4
:10165000127D10BD0D0A2A2A2A2043726561746921
:101660006E67205458542066696C653A20257320B3
:101670002A2A2A0D0A0000004F70656E2066696CE8
:1016800065206572726F722C206572726F722063B2
:101690006F64653A2025640D0A0000004C696E6590
:1016A000313A2048656C6C6F2C2046617446732A71
:1016B0002A2A0A0057726974652066696C65204F92
:1016C0004B3A2025730D0A00F8B5044601F002F9E3
:1016D000002C00F0AA80054694F83500022840F05E
:1016E000A6802768AC4EB74238463CD0AB4887420C
:1016F000384638D0AA488742384634D0A94887426D
:10170000384630D0A848874238462CD0A748874270
:10171000384628D0A6488742384624D0A548874274
:10172000384620D0A448874238461CD0A348874278
:10173000384618D0A2488742384614D0A14887427C
:10174000384610D0A048874238460CD09F48874280
:10175000384608D09E488742384604D09D48874284
:1017600040F0E9809B48016821F01E0207F1140156
:1017700002606FF080000A68B74200EA0200086069
:101780003CD0F44887421CBFF348874236D0F34828
:1017900087421CBFF248874230D0F24887421CBFC4
:1017A000F14887422AD0F14887421CBFF04887425F
:1017B00024D0F04887421CBFEF4887421ED0EF4834
:1017C00087421CBFEE48874218D0EE4887421CBFB4
:1017D000EE48874212D0EC4887421CBFEC48874253
:1017E0000CD0EC4887421CBFEB48874206D0EB4840
:1017F00087421CBFEA48874240F0B680206E0168ED
:1018000021F480710160386820F001003860386888
:10181000C00710D001F05EF8401B0628F7D3202047
:101820006065032084F8350003E0012081E080201A
:10183000606501207AE02068B0421CBFC54988423B
:101840001DD0C54988421CBFC449884217D0C4492D
:1018500088421CBFC349884211D0C34988421CBF7B
:10186000C24988420BD0C24988421CBFC149884244
:1018700005D0C14988421CBFC04988425FD1A16DD3
:10188000E26D3F2302F01F0203FA02F28A60B042C7
:101890003BD0B04988421CBFAF49884235D0AF49E0
:1018A00088421CBFAE4988422FD0AE4988421CBF37
:1018B000AD49884229D0AD4988421CBFAC49884215
:1018C00023D0AC4988421CBFAB4988421DD0AB49EC
:1018D00088421CBFAA49884217D0AA4988421CBF27
:1018E000AA49884211D0A84988421CBFA849884209
:1018F0000BD0A84988421CBFA749884205D0A749F8
:1019000088421CBFA64988423BD1E06ED4E9191237
:1019100000284A6006D0016821F480710160D4E992
:101920001C014160012084F835000020002184F86A
:10193000341001B0F0BD6FF00E0039461BE790493E
:1019400088429CD09149884299D08E49884296D04D
:101950008D498842A16D93D0E26D012302F01F02F0
:1019600003FA02F24A6092E78E4887423FF446AF9C
:101970008D4887423FF442AF8C4887423FF43EAFE8
:1019800041E788498842C0D087498842BDD087490D
:101990008842BAD0C6E700BF1000024028000240CB
:1019A000400002405800024070000240880002409F
:1019B000A0000240B8000240100402402804024087
:1019C000400402405804024070040240880402406F
:1019D000A0040240B804024010B5002844D090F89A
:1019E000351002293ED10168594A914223D0594B02
:1019F00099421CBF584B99421DD0584B99421CBF6D
:101A0000574B994217D0574B99421CBF564B99429E
:101A100011D0564B99421CBF554B99420BD0554B98
:101A200099421CBF544B994205D0544B99421CBF5C
:101A3000534B99423CD10423914280F835300BD06E
:101A4000444881421CBF4448814205D043488142FA
:101A50001CBF434881420AD1086820F00100086099
:101A6000002102E0802141650121084610BD3D486A
:101A70008142F1D03C488142EED03C488142EBD0DB
:101A80003B488142E8D03B4881421CBF3A488142F2
:101A9000E2D03A4881421CBF39488142DCD0394803
:101AA0008142D9D038488142D6D038488142D3E7E4
:101AB000344B9942BFD0344B9942BCD0334B9942FE
:101AC000B9D00A6822F00E020A60314A91420A68CF
:101AD00022F001020A600BD02E4A91421CBF2E4A0E
:101AE000914205D02D4A91421CBF2D4A914225D1E9
:101AF000D0E916C2D0E9183E196802F01F0221F49D
:101B000080710124196004FA02F1CCF80410816E8E
:101B1000CEF80410C16E31B10A6822F480720A60F6
:101B2000D0E91C124A60012180F835100021026DB5
:101B3000002A80F8341098D0904791E7194A9142D2
:101B4000D6D0194A9142D3D0184A9142D0D0EAE770
:101B500010000240280002404000024058000240AD
:101B60007000024088000240A0000240B80002401D
:101B7000100402402804024040040240580402407D
:101B80007004024088040240B8040240A0040240ED
:101B9000085402581C5402583054025844540258F5
:101BA000585402586C5402589454025880540258A5
:101BB0002DE9FC410021C64F01910446DFF8AC1F1E
:101BC0000068A56DB842D1F800802E6829682AD037
:101BD000C04A90421CBFC04A904224D0BF4A9042A3
:101BE0001CBFBF4A90421ED0BE4A90421CBFBE4A94
:101BF000904218D0BD4A90421CBFBD4A904212D0BC
:101C0000BC4A90421CBFBC4A90420CD0BB4A904296
:101C10001CBFBB4A904206D0BA4A90421CBFBA4A87
:101C2000904240F0A181E16D082201F01F018A403D
:101C3000324236D0BC46B8424FF0040324D0A54F00
:101C4000B8421CBFA44FB8421ED0A44FB8421CBF1C
:101C5000A34FB84218D0A34FB8421CBFA24FB842FE
:101C600012D0A24FB8421CBFA14FB8420CD0A14F16
:101C7000B8421CBFA04FB84206D0A04FB8421CBF0C
:101C80009F4FB84240F0988107681F42674608D0CE
:101C9000036823F004030360AA60626D42F001024E
:101CA000626501228A4032422ED0B84224D0894B4C
:101CB00098421CBF884B98421ED0884B98421CBF4C
:101CC000874B984218D0874B98421CBF864B98424E
:101CD00012D0864B98421CBF854B98420CD0854B46
:101CE00098421CBF844B984206D0844B98421CBF3C
:101CF000834B984240F06D8143691B0604D5AA606E
:101D0000626D42F00202626504228A4032422ED0A5
:101D1000B84224D06F4B98421CBF6F4B98421ED0E4
:101D20006E4B98421CBF6E4B984218D06D4B984238
:101D30001CBF6D4B984212D06C4B98421CBF6C4B31
:101D400098420CD06B4B98421CBF6B4B984206D00C
:101D50006A4B98421CBF6A4B984240F04881036826
:101D60009B0704D5AA60626D42F0040262651022EE
:101D700002FA01F131423FD0B8424FF0080224D0BC
:101D8000D24B98421CBFD24B98421ED0D14B9842A6
:101D90001CBFD14B984218D0D04B98421CBFD04B9F
:101DA000984212D0CF4B98421CBFCF4B98420CD0D8
:101DB000CE4B98421CBFCE4B984206D0CD4B98429A
:101DC0001CBFCD4B984240F020810368134213D0D2
:101DD000A96001684903016806D4C90506D40168F1
:101DE00021F00801016001E0080301D4216C00E04A
:101DF000A16C09B120468847E06D00F01F0120204A
:101E000000FA01F2324200F0858020681023B842C7
:101E100024D0AE4EB0421CBFAD4EB0421ED0AD4E2F
:101E2000B0421CBFAC4EB04218D0AC4EB0421CBF4A
:101E3000AB4EB04212D0AB4EB0421CBFAA4EB04225
:101E40000CD0AA4EB0421CBFA94EB04206D0A94E3B
:101E5000B0421CBFA84EB04240F0E48007681F4269
:101E600058D0AA6094F83520042A02681BD122F0C9
:101E700016020260426922F080024261226C0AB9B5
:101E8000A26C1AB1026822F0080202603F2088406A
:101E9000A860012084F835000020216D002984F815
:101EA00034005DD15EE0510301680CD4C9052DD426
:101EB000016821F010010160012084F83500002044
:101EC00084F8340022E0080320D4616C1FE000BFD6
:101ED000100002402800024040000240580002402A
:101EE0007000024088000240A0000240B80002409A
:101EF00010040240280402404004024058040240FA
:101F00007004024088040240A0040240E16B09B161
:101F100020468847606D28B3606DC0071ED04FF41F
:101F20001650B8FBF0F0042184F8351021680A68D7
:101F300022F001020A60019A01328242019202D823
:101F40000A68D207F7D10868C0074FF0030008BF3E
:101F5000012084F83500002084F83400E16C09B1D8
:101F600020468847BDE8FC81664A90421CBF664A0D
:101F700090420CD0654A90421CBF654A904206D000
:101F8000644A90421CBF644A904240F091800268CB
:101F9000E36D570703F01F0351D504279F4017EA4D
:101FA00001064CD011046F6060D4910662D40168C0
:101FB00021F0040101605DE0504FB8423FF464AE8F
:101FC0004F4FB8423FF460AE544FB84218BF082399
:101FD0005AE64A4B98423FF48FAE494B98423FF441
:101FE0008BAE4E4B98423FF487AE02688CE6434B73
:101FF00098423FF4B4AE424B98423FF4B0AE474BE8
:1020000098423FF4ACAE0268B1E63C4B98423FF4D4
:10201000DCAE3B4B98423FF4D8AE404B984218BFE1
:102020000422D2E6354EB0423FF418AF344EB042EF
:102030003FF414AF394EB04218BF02230EE79707A2
:102040001AD502279F4017EA010615D011046F60C8
:1020500028D491062AD4016821F00A0101600120E8
:1020600084F83500002084F834001FE0D00301D448
:10207000A16C74E7216C72E712077FF573AF082239
:102080009A4011403FF46EAF0168012221F00E0129
:10209000016002FA03F068600020626584F8352070
:1020A000E16CFBE6D00301D4616C58E7E16B56E7C5
:1020B000F04A90423FF46BAFEF4A90423FF467AF73
:1020C000EE4988423FF4AFAD4CE700BF2800024024
:1020D0004000024058000240700002408800024068
:1020E000A0000240B8000240100402402804024050
:1020F0004004024058040240700402408804024038
:10210000A004024094540258085402581C54025827
:10211000305402584454025858540258B8040240EB
:10212000F8B5044600F0D6FB002C7BD005462068AD
:10213000C14FB8422AD0C14988421CBFC049884219
:1021400024D0C04988421CBFBF4988421ED0BF4925
:1021500088421CBFBE49884218D0BE4988421CBF75
:10216000BD49884212D0BD4988421CBFBC49884243
:102170000CD0BC4988421CBFBB49884206D0BB4931
:1021800088421CBFBA49884240F0F280022184F89C
:102190003510002184F83410016821F0010101603C
:1021A00005E000F097FB401B052836D82068016841
:1021B000C907F6D10168B24A1140D4E9022311439C
:1021C0002269194363691143A2691943E36941EA2A
:1021D0000205616A2B43256A042943EA050303D1FA
:1021E000D4E90B562B433343A64D2E68B6F1005F5E
:1021F0001CD36568292D19D32F2D15D3A5F13F06C2
:10220000042E11D3472D11D3492D0DD3A5F14F061F
:10221000032E98BF43F4801308E02020606503205C
:1022200084F835000120A1E043F480130360042901
:10223000436923F0070341EA030127D1D4E90A5394
:10224000002B41EA050121D0B2F5005F06D08AB922
:10225000022D12D0012D07D07DB117E0032D15D826
:10226000DFE805F00E0B0E02A3F1C072B2FA82F2A3
:10227000520904E0032D03D308D1C3F300622AB14D
:1022800040206065012084F835006FE04161204600
:10229000FEF7A4FCE16D3F2201F01F0102FA01F1FB
:1022A00081602068B8423BD0644988421CBF6449C1
:1022B000884235D0634988421CBF634988422FD089
:1022C000624988421CBF6249884229D061498842DC
:1022D0001CBF6149884223D0604988421CBF6049C5
:1022E00088421DD05F4988421CBF5F49884217D091
:1022F0005E4988421CBFF949884211D0F84988429A
:102300001CBFF84988420BD0F74988421CBFF749E7
:10231000884205D0F64988421CBFF64988427ED1E2
:102320002046FEF7ADFCA068802802D10020606046
:1023300000E06068C2B2216E0138D4E9193707287D
:102340000A605F6009D82046FEF7E2FC04F16C02E7
:1023500007CA002303604A6003E00020C4E91B00B1
:10236000606700200121606584F8351001B0F0BD80
:10237000E24988421CBFDB4988420BD0DA498842D7
:102380001CBFDA49884205D0D94988421CBFD949C7
:10239000884238D1022184F83510002184F83410A5
:1023A0000168A2686FF31011A2F18003B3FA83F3FE
:1023B0005B099B03402AE26808BF102341EAD2016F
:1023C00022691943636941EAD201A26941EAD30152
:1023D000E36941EAD201226A41EAD30141EA1211DA
:1023E00040F808191421C0B2B0FBF1F08000E0659C
:1023F0002046FEF7F3FBE16D012201F01F0102FA16
:1024000001F141604DE7BC498842C3D0BC498842D4
:10241000C0D0B34988423FF4B9AE4020FEE6B64989
:1024200088423FF47DAFB54988423FF479AFB44963
:1024300088423FF475AF94E7100002402800024044
:1024400040000240580002407000024088000240F4
:10245000A0000240B80002401004024028040240DC
:1024600040040240580402407004024088040240C4
:10247000A00402406C54025880540258B804024030
:102480003F8010FE0010005CB0B5002800F0E7802F
:10249000054690F83400012801D10220B0BD01208A
:1024A00085F8340095F83500012840F0D2800220EC
:1024B00085F83500002068652868046824F0010468
:1024C00004602846FEF756FC286876498842024692
:1024D0003CD0754A9042024638D0744A9042024637
:1024E00034D0734A9042024630D0724A904202463B
:1024F0002CD0714A9042024628D0704A904202463F
:1025000024D06F4A9042024620D06E4A9042024642
:102510001CD06D4A9042024618D06C4A9042024646
:1025200014D06B4A9042024610D06A4A904202464A
:102530000CD0694A9042024608D0684A904202464E
:1025400004D0674A904240F08C80654A12680B23A1
:1025500063F3440202602A6C1AB1026842F0080276
:10256000026088423BD0504A90421CBF4F4A904282
:1025700035D04F4A90421CBF4E4A90422FD04E4A0F
:1025800090421CBF4D4A904229D04D4A90421CBFF8
:102590004C4A904223D04C4A90421CBF4B4A904236
:1025A0001DD04B4A90421CBF4A4A904217D04A4A1B
:1025B00090421CBF494A904211D0494A90421CBFE8
:1025C000484A90420BD0484A90421CBF474A90422A
:1025D00005D0474A90421CBF464A904257D12A6EC6
:1025E0001368DB0303D5136843F480731360EA6E4A
:1025F0001AB1136843F480731360884223D02A49C8
:1026000088421CBF294988421DD0294988421CBFE5
:102610002849884217D0284988421CBF2749884248
:1026200011D0274988421CBF264988420BD0264931
:1026300088421CBF2549884205D0254988421CBFD5
:10264000244988421AD1016841F00101016000204B
:10265000B0BD4FF400606865002085F834000120AB
:10266000B0BD0268052363F3430202602A6C002AAE
:102670003FF477AF026842F0040271E716498842DE
:10268000E1D017498842DED014498842DBE71A4A74
:102690009042A4D0194A9042A1D0194A90429ED0AB
:1026A000D1E700BF10000240280002404000024075
:1026B000580002407000024088000240A000024022
:1026C000B8000240100402402804024040040240C6
:1026D000580402407004024088040240A0040240F2
:1026E000B8040240085402581C540258305402588E
:1026F00044540258585402586C5402589454025886
:1027000080540258B0B5044600F0E4F89E49621CBB
:102710000978054618BF0C4400F0DCF8401BA042C5
:10272000FAD3B0BD2DE9FC4F5F4A0A275F4C024443
:102730004FEAB223A04208BF0927092B38BF4FEA4E
:10274000B2274FF0000C009701274FF0000E002633
:102750009EE007FA06F912EA090B00F094804A6835
:1027600002F00308A8F1010ABAF1010F13D80324FB
:10277000856804FA0EF325EA0303CD6805FA0EF521
:102780002B4383604368C2F3001523EA0903B54075
:102790002B43436004E0B8F1030F4FF003041FD054
:1027A000C36804FA0EF5AB438D6805FA0EF52B43AA
:1027B000B8F1020FC36013D16FF0030202EA5602B0
:1027C00002440CF01C03D2F820800F259D4028EA1B
:1027D00005080D6905FA03F343EA080313624A6822
:1027E000036804FA0EF5AB4302F0030505FA0EF593
:1027F0002B4312F4403F036045D0294A13462C4C2A
:1028000012680F2542F002021A601A6802F00202F2
:10281000019226F00302019B0CF00C0352F8048095
:102820009D40009F28EA050507FA03F32B43135147
:102830004FF0B048D8F800204B6842EA0B05DF02A1
:1028400058BF22EA0B05174A1446C8F800509F02E9
:10285000126842EA0B0558BF22EA0B059F03256068
:102860004FF00107D4F8802042EA0B0558BF22EA56
:102870000B05DB03C4F88050E26F42EA0B0558BF3A
:1028800022EA0B05E56701360EF1020E0CF1040C8D
:102890000A6832FA06F47FF45CAFBDE8FC8F00BF33
:1028A000F4440258040000580000FEA70024025817
:1028B000080400580069084018BF01207047002A2A
:1028C00008BF09048161704701480068000C704727
:1028D0000010005C05480068704700BF2A48007877
:1028E00002490A6810440860704700BF800900244C
:1028F00080B5032000F00CFA01F044FB0F490A6890
:10290000C2F3032209680E4B01F00F019A5C595C77
:1029100002F01F02D0400B4A01F01F0120FA01F122
:102920001160924908600F2000F00EF808B10120F4
:1029300080BD00F0AFF9002080BD00BF18440258F0
:102940006CAD00081000002470B50F4E3178C1B195
:1029500004464FF47A70B0FBF1F084490968B1FB8A
:10296000F0F002F0ADFE0F2C4FF001050AD848B987
:102970004FF0FF3000222146002500F0A9F97460D5
:1029800000E00125284670BD04000024002806D080
:1029900090F83C30012B05D14FF0020C27E04FF0AE
:1029A000010C24E04FF0010C80F83CC090F83D3061
:1029B000012B19D1D0F800C0DCF810305B000AD42C
:1029C000CCF830100029CCF83420DCF8101005D0F9
:1029D00041F0004104E04FF0010C05E021F000411E
:1029E000CCF810104FF0000C002180F83C1060462D
:1029F00070470000BCB500210191044600684FF00B
:102A0000A4435A4900F5F8620D68C2F3841101220B
:102A100002FA01F11A6811426DD00168C90729D084
:102A2000C168890726D5C16821F00201C1608168AB
:102A30000A06A36E4FF0020258BF01221A438B050B
:102A4000A26603D5A26E42F00402A266CA0503D5AF
:102A5000A26E42F00802A2664A0503D5A26E42F0B9
:102A60001002A266090503D5A16E41F02001A166FE
:102A7000012141600168C90644BFC1685FEA816104
:102A80003AD40168090744BFC1685FEAC1613CD418
:102A90000168490744BFC1685FEA01713ED401681B
:102AA000890744BFC1685FEA417140D4A06E10B38A
:102AB0004FF41650B5FBF0F1042084F83D00206877
:102AC000C26822F00102C260019A01328A42019278
:102AD00002D8C268D207F7D1002184F83C10C06840
:102AE000C0074FF0030008BF012084F83D00616D6E
:102AF00009B120468847BCBD10214160A16C002966
:102B0000BFD0204688472068BBE708214160E16CC0
:102B10000029BDD0204688472068B9E704214160DC
:102B2000216D0029BBD0204688472068B7E7C168DF
:102B300021F03E01C16094F83D10042907D1002026
:102B400084F83C00012084F83D00A16DD0E702210B
:102B50004160002084F83C00012084F83D00616C55
:102B60000029A3D020468847A0E700BF0C0000241E
:102B7000B0B50446FFF7AEFE002C51D0054600204C
:102B800084F83C00022084F83D002068C16821F0F0
:102B90000101C16005E0FFF79DFE401B052841D8FB
:102BA0002068C168C907F6D1D4E903231A43D4E9E0
:102BB00001C5C260BCF1804FD4E9052342EA03029B
:102BC000E36942EA0302236A42EA0302636AE16AB2
:102BD00042EA0302236B41EA0201A26A41EA0301CD
:102BE0001E4B03EB824241EA050141EA0201016109
:102BF00003D1016941F04041016100214161626BF3
:102C0000B2F1FF3F04DC4169524241F4802141614D
:102C100091B20162A26BB2F1FF3F07DD12040CE03A
:102C20000120B0BD01200322402113E041690023AF
:102C300041F400214161A3EB0242016A11435FFAB2
:102C40008CF2016200218262012241620020C4E90B
:102C500017116166A16684F83D20B0BD0000FCFF3D
:102C6000BFF35F8F0A48016821F4803101600021C1
:102C70000167704740F0010005490867086840F4A3
:102C800080300860BFF34F8FBFF36F8F704700BF76
:102C900024ED00E081B00648016841F002010160C6
:102CA000006800F002000090009801B0704700BF7B
:102CB000F4440258002808DB00F01F01012202FA48
:102CC00001F1024A400942F82010704700E100E09B
:102CD00080B5154B1B68C3F3022C8CF0070EBEF1B8
:102CE000040F28BF4FF0040EBCF103034FF0FF3C6C
:102CF00038BF00230CFA0EFE21EA0E0199400CFAAF
:102D000003F39A431143BDE8804004F095BF00BF30
:102D100005490A684FF6FF031A4060F30A22034888
:102D200010430860704700BF0CED00E00000FA059A
:102D3000B0B5104D29684907296805D401F007018D
:102D4000081A18BF0120B0BD21F007010843286010
:102D5000FFF7C0FD044655F8080C800407D4FFF7C0
:102D6000B9FD001BB0F57A7FF5D90120B0BD002078
:102D7000B0BD00BF0C48025880B501F0C3F805494A
:102D8000054A0968C1F30211515C01F01F01C840F6
:102D900080BD00BF204402586CAD000810B53D4C0A
:102DA000A36AA26AC2F3051CE26A616B02F0010227
:102DB000C1F3CC01BCF1000F11FB02F100EE101ABF
:102DC000B8EE400A0CD003F00303022B0CD0012B09
:102DD0000DD013B9216889060CD49FED311A13E088
:102DE0000021C0E9001153E09FED2C1A0CE09FED8B
:102DF0002A1A09E021682B4AC1F3C10122FA01F124
:102E000001EE101AB8EE411A02EE10CA9FED263AF2
:102E1000B8EE422A216B6FF35F2181EE021A02EEB7
:102E2000101AB8EE422A216BC1F3462100EE032AA4
:102E3000B7EE000A03EE101A32EE002AB8EE433A5B
:102E400021EE021A33EE002A81EE022ABCEEC22ADB
:102E500080ED002A216BC1F3064102EE101AB8EE94
:102E6000422A32EE002A81EE022ABCEEC22A80ED0E
:102E7000012A216BC1F3066102EE101AB8EE422A54
:102E800032EE000A81EE000ABCEEC00A10EE101A03
:102E9000816010BD004402580024744A20BCBE4B1F
:102EA0000024744C0090D0030000003910B53C4C55
:102EB000A36AA26AC2F3053CE26AC2F30012E16BA4
:102EC000C1F3CC01BCF1000F11FB02F100EE101AAE
:102ED000B8EE400A0AD003F00303022B0AD063B90C
:102EE000216889060CD49FED311A13E00021C0E956
:102EF000001153E09FED2C1A0CE09FED2A1A09E017
:102F000021682B4AC1F3C10122FA01F101EE101A26
:102F1000B8EE411A02EE10CA9FED263AB8EE422AE8
:102F2000A16B6FF35F2181EE021A02EE101AB8EE68
:102F3000422AA16BC1F3462100EE032AB7EE000A34
:102F400003EE101A32EE002AB8EE433A21EE021ACE
:102F500033EE002A81EE022ABCEEC22A80ED002A5E
:102F6000A16BC1F3064102EE101AB8EE422A32EE0E
:102F7000002A81EE022ABCEEC22A80ED012AA16B52
:102F8000C1F3066102EE101AB8EE422A32EE000AD0
:102F900081EE000ABCEEC00A10EE101A816010BD6E
:102FA000004402580024744A20BCBE4B0024744CD8
:102FB0000090D0030000003910B53C4CA36AA26A0F
:102FC000C2F3055CE26AC2F30022616CC1F3CC017A
:102FD000BCF1000F11FB02F100EE101AB8EE400A2E
:102FE0000AD003F00303022B0AD063B921688906D3
:102FF0000CD49FED311A13E00021C0E9001153E019
:103000009FED2C1A0CE09FED2A1A09E021682B4A4B
:10301000C1F3C10122FA01F101EE101AB8EE411A12
:1030200002EE10CA9FED263AB8EE422A216C6FF3E9
:103030005F2181EE021A02EE101AB8EE422A216CCC
:10304000C1F3462100EE032AB7EE000A03EE101A80
:1030500032EE002AB8EE433A21EE021A33EE002A8D
:1030600081EE022ABCEEC22A80ED002A216CC1F357
:10307000064102EE101AB8EE422A32EE002A81EE24
:10308000022ABCEEC22A80ED012A216CC1F306613E
:1030900002EE101AB8EE422A32EE000A81EE000A61
:1030A000BCEEC00A10EE101A816010BD0044025838
:1030B0000024744A20BCBE4B0024744C0090D00302
:1030C00000000039F8B580F400220A4300F07F8048
:1030D00080F400720A4332D080F480620A4300F028
:1030E000878080F400620A4338D080F480520A431B
:1030F00000F08B8080F400520A4300F0948080F44A
:1031000080420A4337D080F400420A4342D080F420
:1031100080320A434ED080F48070084340F0DF8054
:103120008749086D00F00702042A00F2D880884819
:10313000DFE812F0770087008E00D6009600804905
:10314000086DC0F38212042A00F2C9808048DFE8CB
:1031500012F0680078007F00C70087007849886D0A
:10316000C0F30262042A00F2BA807948DFE802F074
:10317000596970B878007248816DC1F302710529F0
:1031800000F2AD80DFE801F003869198A28DFFF791
:10319000F3FDA5E06A48016D01F04051B1F1005F17
:1031A00000F07880B1F1805F00F09680002940F057
:1031B000968076E06248C16CC903006840F18D805A
:1031C000000140F18C8001A8FFF770FEA1E05C488F
:1031D000816D01F44031B1F5003F00F08880B1F518
:1031E000803F00F09080002940F07980006829E05D
:1031F0005349886DC0F34252042A00F2708054484B
:10320000DFE802F00F1F266E2E004D49086DC0F357
:103210000232042A63D84E48DFE802F003131A6230
:103220002200086859E04648016DC1F302410529B2
:1032300055D8DFE801F0032F3A414B3600F082FE0B
:103240004EE0086800014AD501A8FFF72FFE05E00F
:103250000868800043D501A8FFF7AEFE01983FE063
:10326000C86C10F040520B68086802D113F00403D8
:1032700026D1B2F1805F02D110F4807051D108687C
:1032800010F400301CBF47F64000C0F27D10B2F1D0
:10329000005F52E00068000121D501A8FFF706FE9B
:1032A00023E000682749800313E00068800016D5FA
:1032B00001A8FFF781FE18E0016849070FD50068F3
:1032C000C0F3C100214921FA00F009E000681E495D
:1032D000C00501EAE07003E00068800102D400202C
:1032E00004B080BD01A8FFF759FD0298F8E7C16C52
:1032F00011F04051036802680DD113F004030AD0A5
:10330000C2F3C100DEE700688000E8D501A8FFF73E
:1033100053FE0398E4E7B1F1805F04D112F48072A8
:1033200001D00948DCE7006810F400301CBF47F604
:103330004000C0F27D10B1F1005F18BF0020CFE760
:103340000044025840787D0100093D000090D00300
:103350000080BB002DE9F0470446C078B04F00075D
:1033600022D5A06E4FEA3051032908D8DFE801F0DA
:1033700002090F17F96941F40031F9610FE00126E4
:1033800013E004F10800022102F078FF04E004F1E8
:103390002800022102F0F2FF064630B9A06E396C17
:1033A00021F440110843386400266078BA46C0070B
:1033B00001D135462AE0A06D04280BD83546DFE858
:1033C00000F0030C12181800F869354640F400307C
:1033D000F8610EE00125012719E004F10800002141
:1033E00002F04CFF04E004F12800002102F0C6FFC7
:1033F0000546002D2F460AD1DAF84000002520F0BE
:103400000700A16D08435246CAF84000374660786D
:1034100080072DD5E06D4FEAB01004280CD8DFE806
:1034200000F0030E141A1A00DAF81C00514640F49A
:103430000030CAF81C000EE00125012619E004F155
:103440000800002102F01AFF04E004F12800002126
:1034500002F094FF0546002D2E460AD1DAF840000E
:10346000002520F4E070E16D08435246CAF84000A0
:103470003E466078400702D4B04657462CE0D4F868
:10348000A80057464FEA7050042809D8DFE800F03A
:10349000030C12181800F86940F40030F8610FE0CE
:1034A00001254FF0010817E004F10800002102F0A7
:1034B000E5FE04E004F12800002102F05FFF05466C
:1034C000002DA84608D1B86C002520F46000D4F87F
:1034D000A8100843B046B864607800072CD5D4F82B
:1034E000AC004FEA3060042809D8DFE800F0030B95
:1034F00011171700F86940F40030F8610EE001255B
:1035000001271AE004F10800002102F0B7FE04E0F0
:1035100004F12800002102F031FF0546002D2F465E
:103520000BD1DAF84800002520F0E060D4F8AC10A8
:1035300008435246CAF848004746E078800726D537
:10354000E06C4FEA301003280BD8DFE800F01302DC
:103550000D13DAF81C00514640F40030CAF81C0084
:1035600008E00125012613E004F10800022102F021
:1035700085FE0546002D2E460AD1DAF83C000025CE
:1035800020F03000E16C08435246CAF83C003E4649
:103590006078C0062DD5206E4FEA303004280CD854
:1035A000DFE800F0030E141A1A00DAF81C00514686
:1035B00040F40030CAF81C000EE00125012719E094
:1035C00004F10800002102F059FE04E004F1280093
:1035D000002102F0D3FE0546002D2F460AD1DAF86D
:1035E0004000002520F4E040216E08435246CAF80E
:1035F000400037466078800627D5606E4FEA30403D
:1036000005280AD8DFE800F014030E14141404F19E
:103610000800012102F032FE09E00125012615E033
:103620001044025804F12800012102F0A7FE0546CB
:10363000002D2E460AD1DAF84000002520F4E020C3
:10364000616E08435246CAF840003E466078400624
:1036500027D5D4F8B0004FEA307005280AD8DFE843
:1036600000F012030C12121204F10800012102F002
:1036700005FE07E00125012714E004F128000121DF
:1036800002F07CFE0546002D2F460BD1DAF84800EB
:10369000002520F0E040D4F8B01008435246CAF8A4
:1036A000480037466078000622D5206F98B1B0F107
:1036B000005F0AD0B0F1805F2ED1DAF81C005146CD
:1036C00040F40030CAF81C0005E004F108000121B4
:1036D00002F0D4FD0546002D2E460AD1DAF840004E
:1036E000002520F04050216F08435246CAF84000A0
:1036F0003E46E078C00702D1B046574624E0A06CB1
:10370000574603280BD8DFE800F014020E14F869BE
:1037100040F40030F8610CE001250126E9E70125BD
:103720004FF0010810E004F10800022102F0A6FDAC
:103730000546002DA84607D1F86B002520F00300B0
:10374000A16C0843B046F863A078400601D4474610
:1037500017E0D7F8F00340F48070C7F8F003FFF7E4
:10376000B9F80646D7F8F003C00507D4FFF7B2F85A
:10377000801B6428F6D90325032702E0002D2F467D
:1037800012D02078C00750D0E06F4FEAF000052833
:1037900035D8DFE800F03D03373D3D3D04F108003A
:1037A000012102F06BFD32E0DAF860105346D4F8E4
:1037B000B400414011F4407F0BD0196E1A6E21F411
:1037C000407142F480321A661A6E22F480321A6610
:1037D0001966B0F5807F40F07282FFF77BF80646ED
:1037E00041F2883903250327DAF86000800700F1E9
:1037F0006382FFF76FF8801B4845F5D9C1E70125C3
:10380000012613E004F12800012102F0B7FD05466E
:10381000002D2E460AD1DAF84400002520F03800A9
:10382000E16F08435246CAF844003E4620788007BC
:1038300023D5A06F05280AD8DFE800F012030C1288
:10384000121204F10800012102F018FD07E0012521
:10385000012713E004F12800012102F08FFD054645
:10386000002D2F460AD1DAF84400002520F0070089
:10387000A16F08435246CAF84400374620784007F3
:1038800025D5D4F8940005280AD8DFE800F0120303
:103890000C12121204F10800012102F0EFFC07E003
:1038A0000125012614E004F12800012102F066FD43
:1038B0000546002D2E460BD1DAF84800002520F0F1
:1038C0000700D4F8941008435246CAF848003E4610
:1038D0002078800627D5D4F890004FEA307005286C
:1038E0000AD8DFE800F012030C12121204F10800EB
:1038F000002102F0C3FC07E00125012714E004F1D8
:103900002800022102F03AFD0546002D2F460BD17A
:10391000DAF84400002520F0E040D4F89010084385
:103920005246CAF8440037462078400627D5D4F8D6
:103930009C004FEAB02005280AD8DFE800F0120307
:103940000C12121204F10800002102F097FC07E0AB
:103950000125012614E004F12800022102F00EFDE9
:103960000546002D2E460BD1DAF84800002520F43C
:10397000E050D4F89C1008435246CAF848003E462E
:103980002078000627D5D4F8A0004FEA703005282B
:103990000AD8DFE800F012030C12121204F108003A
:1039A000002102F06BFC07E00125012714E004F17F
:1039B0002800022102F0E2FC0546002D2F460BD123
:1039C000DAF84800002520F46040D4F8A01008433D
:1039D0005246CAF8480037462068010717D5D4F880
:1039E0008410B1F5805F0AD104F12800022102F0B1
:1039F000C5FC0028206818BF0127D4F88410DAF825
:103A00004420534622F440521143CAF84410C106E0
:103A100017D5D4F89810B1F5807F0AD104F12800A9
:103A2000022102F0ABFC0028206818BF0127D4F85F
:103A30009810DAF84820534622F440721143CAF82D
:103A40004810000322D5D4F8A400B0F5003F0FD0F1
:103A5000B0F5803F06D088BB04F10800002102F0D9
:103A60000DFC04E004F12800022102F087FC054669
:103A7000002D2E460BD1DAF84800002520F4403006
:103A8000D4F8A41008435246CAF848003E46A0782D
:103A900040072AD5D4F88800B0F5401F17D0B0F5FC
:103AA000001F0ED0B0F5801F40F00181DAF81C0035
:103AB000514640F40030CAF81C0008E001250126F8
:103AC000E5E704F12800012102F058FC0546002D2D
:103AD0002F460BD1DAF84400002520F44010D4F82A
:103AE000881008435246CAF844003746A078C007F9
:103AF00001D13E4622E0206DB0F5803F08D0D8B914
:103B0000DAF81C00514640F40030CAF81C0005E009
:103B100004F10800022102F0B1FB0546002D2E46FB
:103B20000CD1DAF83C00002520F48030216D0843E8
:103B30005246CAF83C00DCE70125012621688800CE
:103B400001D4606809E004F12800022102F016FCAB
:103B5000002818BF0126D4E900108A031BD5D4F829
:103B600080206FF0010303EB3223022B0BD34FEACB
:103B7000322343B1012B40F09D80DAF81C3043F42E
:103B80000033CAF81C303DB9DAF8443023F44073EE
:103B90001A43CAF844203546CA0207D5DAF840204D
:103BA00022F00042636F1A43CAF84020CA0008D5C9
:103BB000DAF8002022F48042D4F8B8301A43CAF868
:103BC00000208A0207D5DAF8402022F08072E36EE6
:103BD0001A43CAF840204A000CD5DAF8002022F433
:103BE0000042CAF80020D4F8BC20DAF800301A43AA
:103BF000CAF80020B1F1FF3F07DCDAF83C2022F0E0
:103C00004052636D1A43CAF83C20090208D5DAF81D
:103C1000441021F44001D4F88C201143CAF8441018
:103C2000C10708D004F10800002102F027FB00289A
:103C300018BF05466068810708D504F10800012116
:103C400002F01CFB002818BF05466068410708D534
:103C500004F10800022102F011FB002818BF0546FC
:103C60006068010708D504F12800002102F086FBF6
:103C7000002818BF05466068C10608D504F1280071
:103C8000012102F07BFB002818BF05466068800612
:103C900003D44DB10120BDE8F08704F128000221D2
:103CA00002F06CFB2843F5D10020BDE8F087012528
:103CB00001271BE701256FE75346D4F8B40000F451
:103CC00040711A68B1F5407F22F47C5103D1064A55
:103CD00002EA1012114319606FF31F30196E0025AC
:103CE0000843186633E500BFCFFFFF002DE9F84316
:103CF000002800F0FE800446804B186800F00F009A
:103D0000884688420BD2186820F00F0040EA08006D
:103D10001860186800F00F00404540F0EA80206805
:103D2000CF4F41070AD52169BA6902F0700291426A
:103D300004D9BA6922F070021143B96101070AD5AA
:103D40006169FA6902F07002914204D9FA6922F0BD
:103D500070021143F961C1060AD5A169FA6902F43A
:103D6000E062914204D9FA6922F4E0621143F961F8
:103D700081060AD5E1693A6A02F07002914204D9DB
:103D80003A6A22F070021143396281070AD5E1686C
:103D9000BA6902F00F02914204D9BA6922F00F0207
:103DA0001143B961C10736D0B86920F47061D4E914
:103DB000010211430328B96105D0022807D13968EF
:103DC00089030DD495E03968890109D491E001286F
:103DD000396802D1C90503D48BE0490740F18980D5
:103DE0003969994621F0070108433861FEF772FDF1
:103DF000064641F28835386900F038006168B0EB5A
:103E0000C10F06D0FEF766FD801BA842F3D9032040
:103E100070E020684B4681070AD5E168BA6902F074
:103E20000F02914204D2BA6922F00F021143B96124
:103E3000196801F00F0141450AD9196821F00F01F5
:103E400041EA08011960196801F00F01414550D19C
:103E500041070AD52169BA6902F07002914204D281
:103E6000BA6922F070021143B96101070AD561698C
:103E7000FA6902F07002914204D2FA6922F07002EB
:103E80001143F961C1060AD5A169FA6902F4E06239
:103E9000914204D2FA6922F4E0621143F96180068A
:103EA0000AD5E069396A01F07001884204D2396AA2
:103EB00021F070010843386200F064F8B969C1F379
:103EC00003212F4A515CBB6903F00F03D25C01F060
:103ED0001F0120FA01F102F01F00184A21FA00F038
:103EE0001060174A064800681160BDE8F843FEF705
:103EF0002BBD012001B0BDE8F08300BF00200052BF
:103F00000800002480B500F03DF80B490A68C2F3B0
:103F1000032209681A4B01F00F019A5C595C02F008
:103F20001F0220FA02F201F01F00044922FA00F0F9
:103F3000086003490A6080BD18440258100000243C
:103F40000C00002480B5FFF7DDFF0C490C4A09681E
:103F5000C1F30211515C01F01F01C84080BD00BFD8
:103F600080B5FFF7CFFF0549054A0968C1F3022173
:103F7000515C01F01F01C84080BD00BF1C440258C5
:103F80006CAD000836490869C0F3C20003280CD0A4
:103F9000022828D048BB08688006374858BF7047B9
:103FA0000968C1F3C101C84070478A6A886AC0F3D2
:103FB000051CCB6A486B03F00103C0F3CC00BCF1D5
:103FC000000F10FB03F000EE100AB8EE400A0ED00E
:103FD00002F00302022A0CD072B9086880060ED4DF
:103FE0009FED241A15E0204870471E4870470020B6
:103FF00070479FED1F1A0CE09FED1C1A09E008683E
:104000001D4AC0F3C10022FA00F001EE100AB8EE1A
:10401000411A02EE10CA9FED193AB8EE422A086B17
:104020006FF35F2081EE021A02EE100AB8EE422A08
:10403000086BC0F3462000EE032AB7EE000A0130F9
:1040400032EE000A21EE000A01EE100AB8EE411A23
:1040500080EE010ABCEEC00A10EE100A704700BFE5
:104060000044025800093D0040787D010024744A54
:1040700020BCBE4B0024744C0090D00300000039DB
:10408000F8B5002800F0B48104460078D74EC00788
:1040900021D12078800740F1B180306910F03801DB
:1040A000B06A3CD0182908BF5FEA807037D0E0685A
:1040B000002831685CD021F0190108433060FEF718
:1040C00009FC05463068400743D4FEF703FC401B5B
:1040D0000228F7D9A0E1306900F03801B06A102950
:1040E00005D018290AD100F00300022806D1306853
:1040F0008003CED560680028CBD179E160680028C4
:1041000047D0B0F5803F06D0B0F5A02F30685ED123
:1041100040F480203060306840F480305DE03068EA
:104120004007E06802D5002800F06281316821F084
:10413000190108433060FEF7CDFB054630684007A3
:1041400007D4FEF7C7FB401B02284FF00300F5D948
:1041500063E1FEF7B9FB41F20301884230D82069E0
:104160007168402821F47C3145D141F4003044E0AD
:1041700021F001003060FEF7ADFB054630684007D6
:104180003CD5FEF7A7FB401B02284FF00300F5D9F2
:1041900043E1306820F480303060306820F48020C3
:1041A0003060FEF797FB0546306880037FF571AFFE
:1041B000FEF790FB401B64284FF00300F4D92CE17C
:1041C000706820F0FE40216940EA016015E020F4AB
:1041D00080303060306820F480203060FEF77AFB59
:1041E0000546306880033FF554AFFEF773FB401B74
:1041F0006428F6D910E141EA003070602078C006EA
:1042000053D5306900F03801B06A082905D0182963
:104210000BD100F00300012807D13068C00519D583
:10422000E069802840F0E48014E0E069002830680C
:1042300027D040F080003060FEF74CFB0546306828
:10424000C00507D4FEF746FB401B02284FF00300D1
:10425000F5D9E2E0FEF738FB41F20301884208D8C5
:10426000206A7168202821F0F8411BD141F080407C
:104270001AE0F06820F07C50216A40EA0160F060AA
:1042800013E020F080003060FEF724FB0546306824
:10429000C0050AD5FEF71EFB401B02284FF00300A5
:1042A000F5D9BAE041EA806070602078000723D534
:1042B00060690028706F0ED040F001007067FEF753
:1042C00009FB0546706F800716D4FEF703FB401B01
:1042D0000228F7D9A0E020F001007067FEF7FAFA93
:1042E0000546706F800707D5FEF7F4FA401B0228D9
:1042F0004FF00300F5D990E02078800623D5A0691F
:10430000002830680ED040F480503060FEF7E2FAAA
:1043100005463068800416D4FEF7DCFA401B0228FC
:10432000F7D979E020F480503060FEF7D3FA0546E3
:104330003068800407D5FEF7CDFA401B02284FF005
:104340000300F5D969E02078400753D4656A002D51
:1043500000F00D81306900F0380018286ED1B16A84
:10436000012D306B44D001F00302A36A9A423FD181
:10437000C1F30511E26A91423AD10146226B6FF313
:104380005F21013A914233D1C0F34621626B013A79
:1043900091422DD1C0F30641A26B013A914227D13F
:1043A000C0F30660E16B0139884221D1706BC0F324
:1043B000CC00A16C814200F0DA80F06A20F00100AC
:1043C000F062FEF787FA0546FEF784FAA842FBD0B2
:1043D000706B4FF6F8718843A16C40EAC1007063BE
:1043E000F06A40F00100F062C1E000BF00440258F2
:1043F000012012E0D6F8000440F48070C6F80004F2
:10440000FEF768FA0546D6F80004C00507D4FEF7A3
:1044100061FA401B6428F6D9032001B0F0BDA06802
:1044200060B3012806D00528306F40F0A28040F02C
:1044300004003067306F40F00100A0E0306820F0E9
:1044400080703060FEF746FA022D05460AD13068CA
:1044500080012CD5FEF73EFA401B02284FF00300E6
:10446000F5D9DAE73068800140F18180FEF732FA51
:10447000401B02284FF00300F4D9CEE7306F20F044
:1044800001003067306F20F004003067FEF722FA39
:10449000054641F28837306F80077FF557AFFEF74A
:1044A00019FA401BB8424FF00300F4D9B5E7B06ADF
:1044B00040F2F3318843A16A226B0843511E626BBC
:1044C0004FF47E4303EB4222E36A6FF35F2192B223
:1044D00040EA0310B0625018A16B4FF4FE0202EBE9
:1044E000014101F4FE010844E16B4FF0FE4202EB92
:1044F000016101F0FE41084430634FF6F871F06A43
:1045000020F00100F062706B8843A16C40EAC100AA
:104510007063F06A20F00C00216C0843F062F06ACE
:1045200020F00200616C0843F062F06A40F48030D1
:10453000F062F06A40F40030F062F06A40F48020EB
:10454000F062F06A40F00100F062306840F0807084
:104550003060FEF7BFF904463068800107D4FEF7EB
:10456000B9F9001B02284FF00300F5D955E70020E8
:1045700053E720F001003067306F20F0040030670F
:10458000FEF7A8F9054641F28837306F80073FF5FE
:10459000DDAEFEF79FF9401BB8424FF00300F4D99F
:1045A0003BE70000B0B588B3044690F8210028B975
:1045B000002084F82000204600F03EF8022084F815
:1045C00021002068C168C9062FD4CA214162532145
:1045D0004162204601F06AFFA0B994E80310E36845
:1045E000144D82682A40826022691143A2691143F6
:1045F00082681143816043EA0C410161204601F069
:1046000077FF28B12168FF224A62B0BD0120B0BD0A
:1046100020686169E269C36C114323F00303C3643A
:10462000C26C1143C164FF214162012084F8210062
:104630000020B0BDBFFF8FFF10B5B0B00446684684
:10464000C021FBF79DFE20680B49884212D1002053
:1046500001904FF4800000904FF400702D90684658
:10466000FEF778FE08B1FCF780FC0448016841F4CD
:104670000041016030B010BD004000587044025845
:104680002DE9F843044690F8200001284FF002007D
:1046900047D0012384F82030002A84F8210091F8C3
:1046A00000804F788D78C87803D0000440EA072650
:1046B00012E0FA0604D507F0EF0202F10A074F7084
:1046C000DFF83891C8470646F8B2C847000240EA0A
:1046D00006462846C84705462068CA21416253213C
:1046E0004162204601F0E2FE0028216802D0FF224C
:1046F0004A6213E046EA05024FEA483022F0C0025F
:1047000010434860204601F0F3FEFF212268002894
:10471000516203D1012084F821000020002184F897
:10472000201001B0BDE8F0832DE9F047044690F871
:10473000200001284FF002005ED00D46012184F8D0
:104740002010CA2184F821001646206841625321B6
:104750004162204601F0AAFE0028276802D0FF210E
:10476000796246E0B868002E00F0400004D040B105
:10477000E8784FEA805908E070B1E8784FEA80594C
:104780000EE04FF0000985F8039069782A78A87840
:10479000090241EA024610E04FF0000985F8039053
:1047A0002878DFF858A0D047697880460846D04777
:1047B0000102A87841EA0846D0473043104940EA50
:1047C000090008403860B86820F48020B860D5E956
:1047D00003010843B9680843B860204601F088FE29
:1047E000FF2122680028516203D1012084F82100B2
:1047F0000020002184F82010BDE8F08781640008C3
:104800007F7F7F00B0B5044600680949C160FEF7AC
:1048100061F805462068C068800607D4FEF75AF89C
:10482000401BB0F57A7FF5D90320B0BD0020B0BDA4
:104830005FFF0300704770477047704708B3B0B51B
:10484000044690F82C000D4628B9002084F82D006D
:10485000204600F01BF8022084F82C00211D20685F
:10486000FCF7B2FBD4E900022946FCF7FFFB06483F
:10487000016841F000410160012084F82C00002013
:10488000B0BD0120704700BF004000522DE9F04745
:10489000B8B033A81421FBF773FD33480178002921
:1048A0005ED1012102AC017004F10800B821FBF7D0
:1048B00067FD4FF080704FF0000802902046CDF861
:1048C0000C80CDF85080FEF745FD08B1FCF74DFB9C
:1048D0002648016833AD41F48051254C254E0160D6
:1048E0004FF0020900684FF0030A00F48050019075
:1048F0000C27019829464FF63F00339004F50060DD
:10490000CDE93498CDF8D8A03797B0472C20CDE921
:10491000330904F580502946CDE9358A3797B047E9
:1049200048F23710CDE9330904F540602946CDE956
:10493000358A3797B0474FF68370CDE9330904F5D0
:1049400080602946CDE9358A3797B0474CF203702D
:10495000CDE9330920462946CDE9358A3797B04756
:1049600038B0BDE8F08700BF40000024D4440258AE
:10497000000C025825270008B0B5054690F82C0019
:10498000022801D102240DE095F82C000124012811
:1049900008D1022085F82C002868FCF746FB85F832
:1049A0002C4000242046B0BDB0B5044690F82C0041
:1049B0000D46052803D002280ED001280BD1022075
:1049C00084F82C0029462068FCF739FB2868022867
:1049D00003D1052002E00120B0BD012084F82C00A5
:1049E0000020B0BD2DE9FF41032280F830200446AD
:1049F000806B0D4603280BD14FF08050616BBF4F89
:104A000008436063606B40B320688763012596E0CC
:104A1000002D4CD0B5F5004FEED0B5F5804F5CD1F0
:104A20000020CDE902002068002102F0D1F88001C9
:104A300056D402A9204602F015FA0028DED19DF8CE
:104A40000E00400746D5616C2068090401F07EFD28
:104A50000028D3D1206802215AE04FF48030002191
:104A6000FEF730FBF0B13F49B0FBF1F36669D4E9E2
:104A70000112D4F810C09E425AD2BE46A76DB7F5B7
:104A8000007F54D0B7F5807F2DD1002E354B42D01A
:104A90007700B0FBF7F79F42774649D9334BB0FB1D
:104AA000F3F645E0606B40F000606063AEE7002025
:104AB000CDE902002068002102F08AF880010FD4BD
:104AC00002A9204602F0CEF9002897D19DF80E00E9
:104AD000C00713D14FF0806090E74FF000608DE782
:104AE0004FF400608AE7002E1F4F1AD0B8467700B7
:104AF000B0FBF7F0404588BF1E4618E0616C2068A7
:104B0000090401F023FD00287FF478AF206800211C
:104B100001F064FD72E7984208D9144BB0FBF3F63C
:104B200005E0B84298BF00231E4600E00026774605
:104B300020682B46CDE900C602F04EF8002520681B
:104B40004FF4007101F031FD28B1216801258F6318
:104B5000616B08436063012084F83000284604B08C
:104B6000BDE8F08180F0FA0240787D0100E1F505B2
:104B70007047000080B5D0F838C0D0E9173E9A0FD2
:104B80000A70C3F38362BCF1010F4A70C3F3016280
:104B90008A704FEA1342CA704FEA13220A714FEA31
:104BA0001E524B714FF00003CA80CEF303420A72CB
:104BB000CEF3C0324A72CEF380328A72CEF34032E4
:104BC000CA72CEF300320A734B7337D0BCF1000FB8
:104BD00040F0878040F6FC72436E02EA8E0242EAA1
:104BE00093720A61426EC2F3C2630B75C2F3026331
:104BF0004B75C2F342538B75C2F38243CB75C2F33C
:104C0000C2330B76D1F810C00B7E0CF1010C03F00F
:104C1000070302330CFA03FCC0F848C00B7A03F018
:104C20000F0E012303FA0EFE4FEA5E2303FB0CF383
:104C3000C0E913E34FF40073436512E0B0F8662057
:104C40000EF03F0342EA03420A614FF480630A69AF
:104C500003EB82224FF40073C0E91223C0E914234E
:104C6000426EC2F380334B76C2F3C61302F07F026A
:104C70008B76CA76806EC20F0A77C0F341724A778C
:104C8000C0F382628A77C0F38352CA77C0F340527E
:104C900081F82020002281F82120C0F3004381F810
:104CA0002230C0F3C03381F82330C0F3803381F861
:104CB0002430C0F3403381F82530C0F3003381F84D
:104CC0002630C0F3812381F82730C0F30123C0B21E
:104CD00081F82830400881F82900012081F82A0055
:104CE00009E001687A4A8A630122416B41F08051F0
:104CF000416380F83020104680BD00BFFF0FE01FE9
:104D000080B500F1380E9EE80C5081E80C50826CA2
:104D10000A61C26C4A61026D8A61426D0020CA61FB
:104D200080BD10B5416C04460068090401F042FDE5
:104D300020B1616B08436063002010BD2068002132
:104D400001F046FFC0F3432010BD00002DE9F04301
:104D500097B0044690F83000032801D1012543E0C4
:104D60000D465B4EFDF7B6FD80462068002101F040
:104D70002FFF800123D42068402101F016FCD0B918
:104D8000616C2068090401F0E1FBA0B94FF0FF302D
:104D90001190402012906020139002201490002067
:104DA00015900120169011A9206801F0ADFD206832
:104DB00001F032FDE0B10146606B606301E04FF449
:104DC0000061206801258663626B1143616384F88A
:104DD00030504FF4007101F0E8FB28B12168012543
:104DE0008E63606384F83050284617B0BDE8F083C6
:104DF00001AFB1462068416B11F4957F416B16D12C
:104E000008040BD5002605E0206801F000FF47F8F4
:104E100026000136082EF7D120374E46FDF75AFD01
:104E2000A0EB080001304FF00041E3D1C9E70907CA
:104E300047D4416B890746D4416B89060CD52021A4
:104E4000BFE701F0E4FE3860FDF744FDA0EB080089
:104E500001303AD004372068416BC904F1D4B3491A
:104E600081636FF0FF0EDDE9011CCBB2DDE9037653
:104E70009A092A70C3F340120EEA112343EA116122
:104E80006A7069809CFA8CF16960390A2F72F2B2FB
:104E90006972C7F303510EEA1743A972D118A981A9
:104EA000C6F38521A973C6F30121E9731109297499
:104EB00006F00F0169744E469DF81710A97400257D
:104EC00087E708217DE702217BE74FF0004178E783
:104ED000FF0FE01FF8B504460068E56A15F0080604
:104EE000416B18BF11F400415ED1416BC90579D403
:104EF000002E416B18BF11F4804140F0C080416B1F
:104F000011F03A0F416B00F0E080890703D5616B27
:104F100041F002016163416B090703D5616B41F008
:104F200008016163416B890603D5616B41F0200183
:104F30006163416BC90603D5616B41F01001616388
:104F40007A498163C16B21F49D71C163C16821F00D
:104F50004001C160C16A41F40051C162C16841F0C1
:104F60008001C16001F072FC2168002E626B40EA92
:104F7000020060634FF40062C86820F08000C860DF
:104F80008A6340F0A580280640F1A180606B00286C
:104F900000F09D80C86B20F08050C8630020086539
:104FA000012084F8300098E0A06A2028C0F08F80AB
:104FB000656A00260CE0206805EB860701F027FEF5
:104FC000010A38707970010C000EB970F870013662
:104FD000082EF0D105F12000A16A6062A1F1200045
:104FE000A062F8BD4FF4807181634CF23A12C16B3C
:104FF000002E21EA0201C163C16B21F08051C1631F
:10500000C16821F04001C1601ED129065FD500268C
:1050100015F0220F8662C662066508D001F016FC04
:1050200028B1616B084360632046FFF7A1FD0120B2
:1050300015F0300F84F83000E66202D0204600F010
:10504000D5FAA80716D142E015F0220F08D001F0DA
:10505000FDFB28B1616B084360632046FFF788FDC4
:1050600020683249012281630020A90784F830209A
:10507000E06237D02046BDE8F84000F0B5BA206ABB
:10508000202824D30027E6696D4614E006EB87004C
:1050900001780091427841EA02210091827841EA48
:1050A00002410091C07841EA0060009029462068E2
:1050B00001F0C6FD0137082FE8D106F12000216A72
:1050C000E061A1F120002062F8BDC9000FD4F8BD55
:1050D000012084F830000020E0622046BDE8F8405E
:1050E000FFF746BD2046BDE8F84000F07FBA4FF01C
:1050F00080518163006D400705F0200005D450B158
:105100002046BDE8F840FFF798BB48B12046BDE80F
:10511000F840FFF791BB2046BDE8F840FFF78BBB96
:105120002046BDE8F840FFF785BB00BF3A0F0018E6
:10513000B0B586B050B3044690F8300020B90020D6
:105140002076204600F082F9042084F830002046C2
:1051500000F03CF8D0B901A92046FFF7F7FDA8B947
:105160009DF814009DF81510A26B012A04D1084384
:1051700004D04FF4007003E0002001E04FF4807091
:10518000A0652046E168FFF72DFC10B1012006B0B4
:10519000B0BDFDF79FFB05462046FFF7C2FD042882
:1051A0000CD0FDF797FB401B0130F5D14FF00040CC
:1051B0006063012084F830000320E8E7002001212B
:1051C0006063E06284F83010E1E700002DE9F0430D
:1051D0008FB081464FF4803000210027FDF772FF29
:1051E000D8B3964CB0FBF4F60546D9F80000002180
:1051F000009700220023019601F0EEFCD9F8000090
:1052000001F0FEFCA54205D3B5EB460F08D37000B4
:10521000B5FBF0F58A48B0FBF5F00130FDF772FA06
:1052200000200490D9F8000001F0F2F9002871D1B3
:10523000D9F8000001F016FAB0F1004F13D10020A8
:10524000C9F83C00D9F8000001F0E2F9002861D16A
:10525000D9F83C00012809D00FE001214FF000608F
:1052600089F830105CE00120C9F83C00D9F8000052
:10527000002101F06BF900284AD10021724D4FF650
:10528000FE76002010E0D9F80000294601F077F9F9
:10529000F0BBD9F80000002101F09AFC049901311B
:1052A0000491C0F38071C00F0028049809D1B04266
:1052B00007D8D9F80000002101F048F90028E2D011
:1052C00028E004984FF6FF72904202D34FF08070AE
:1052D00020E00020C9F83810ADF80E00FDF7FAFA0A
:1052E0000546D9F8000001F06FFCF8B1D9F8380094
:1052F00003281ED1D9F80000042101F069FC000D3B
:10530000C9F8400004A94846FFF734FC002871D0D2
:105310004FF08050012189F83010D9F83420104323
:10532000C9F8340008460FB0BDE8F0834FF0806044
:10533000F0E7D9F8000001F0F8F90028EAD1D9F82F
:1053400000000021DFF8FC80C047C9F86C00042190
:10535000D9F80000C047C9F870000821D9F800004A
:10536000C047C9F874000C21D9F80000C047D9F82B
:1053700038100329C9F87800BCD000200DF10E06C2
:1053800041F287370DE0D9F80000314601F02BFAE1
:105390000028BFD1FDF79EFA401BB8424AD8BDF89D
:1053A0000E000028EFD0D9F838100329A2D081B21E
:1053B000C9F844100904D9F8000001F0CCF900281C
:1053C000A8D1D9F800000021C047C9F85C00042129
:1053D000D9F80000C047C9F860000821D9F80000DA
:1053E000C047C9F864000C21D9F80000C047C9F8CB
:1053F00068007FE7D9F84410D9F80000090401F0EB
:105400007BF900287FF486AFD9F800004FF40071D3
:1054100001F0CBF860B1D9F80010A84A8A63D9F836
:10542000341008430121C9F8340089F8301079E7B5
:10543000002177E74FF000406CE700BF00350C001B
:1054400010210100D16B0008000010C12DE9F043CC
:10545000B7B0044632A81421FAF792FF02A8C0217F
:10546000FAF78EFF20682A4988424ED14FF48030E7
:105470004FF00008029002A8CDF80C80CDF85880BB
:10548000FDF768FF08B1FBF770FD2248016832ACF8
:1054900041F48031204D01604FF00209016803267C
:1054A00001F4803101910C270199C16841F0040198
:1054B000C160C16801F0040101910199C16841F026
:1054C0000801C1602146C06800F008000190019801
:1054D0004FF4F85032902846CDE9339835963697F8
:1054E000FDF720F90420CDE9320905F58060214659
:1054F000CDE934863697FDF715F9312000210022D9
:10550000FDF7E6FB3120FDF7D5FB37B0BDE8F083B2
:1055100000700052D444025800080258F0B587B019
:105520000029044610D094F83000012812D10E460C
:105530000021616315469818226D1F4690420BD9D1
:10554000606B40F0007002E0606B40F000606063F0
:10555000012046E0022044E0032084F830004FF0B0
:10556000FF332068A26BC162012A01934FEA4723EF
:10557000C4E9096302934FF0900303934FF00203D1
:105580000493059118BF6D02069101A901F0BCF9C1
:105590002068022FC16841F04001C1604FF0010155
:1055A0008665016505D38221E162294601F072F822
:1055B00004E08121E162294601F085F80028216894
:1055C0000AD03E4A8A63616B084360630120002170
:1055D00084F83000E16204E0C86B40F49570C86361
:1055E000002007B0F0BD00BFFBF7A6BAFBF7E2BA98
:1055F0002DE9F04186B00029044610D094F830001F
:10560000012812D10E460021616315469818226DBB
:105610001F4690420BD9606B40F0007002E0606B57
:1056200040F000606063012044E0022042E003207B
:1056300084F830004FF0FF3320684FF09008A26BE1
:10564000C162012A00934FEA4723C4E9076301932B
:10565000CDE90281049118BF6D020591694601F000
:1056600053F92068022FC16841F04001C1604FF03A
:1056700001018665016505D3A021E162294601F09B
:1056800011F904E02946C4F82C8001F024F900281F
:1056900021680AD0094A8A63616B0843606301206C
:1056A000002184F83000E16204E0C86B40F48D70A2
:1056B000C863002006B0BDE8F08100BFFF0FE01F07
:1056C000411E0020B0EB116F01D001207047044A49
:1056D0005160F021034B19700721906011607047F1
:1056E00010E000E023ED00E090F88410012901D1E2
:1056F000022112E02421C0F88810026813681168A2
:1057000023F0005321F00101116000214166136074
:105710002022C0F8882080F884100846704710B511
:105720000446D0F88C00202806D100294FF0010053
:1057300018BF002A02D110BD022010BD0120E06672
:1057400000202067204602F0D3F90028F3D1E06E54
:1057500001280FD120681021016200E0206850E884
:10576000000F216840F0100041E80002002AF5D146
:10577000002010BD012010BD084A904218BF70479C
:1057800010B5074C204600F063FB04484FF400724C
:105790002146FFF7C4FFBDE810407047DC06002437
:1057A000640000247047B0B5044690F884000128D6
:1057B00001D10220B0BD012084F884002420C4F867
:1057C000880020680568026822F001020260826891
:1057D00022F0606211438160204601F0E7FD2068FD
:1057E00005602020C4F88800002084F88400B0BD43
:1057F000B0B5044690F88400012801D10220B0BD64
:10580000012084F884002420C4F8880020680568FA
:10581000026822F001020260826822F060421143B5
:105820008160204601F0C2FD206805602020C4F898
:105830008800002084F88400B0BD7047704770472E
:1058400070B504460068C26940F60F05034601685A
:105850002A4253F808CF4AD0BC4D0CEA050EBC4D85
:105860000D4015EB0E054CD0D50718BF11F480750F
:1058700007D001250562D4F8905045F00105C4F821
:10588000905095070CF0010508D53DB1022606623F
:10589000D4F8906046F00406C4F89060560708D526
:1058A0003DB104250562D4F8905045F00205C4F8D6
:1058B000905015070CD501F020055EEA050607D0CB
:1058C00008260662D4F8906046F00806C4F8906096
:1058D000160567D511F0806664D04FF40066066245
:1058E000254655F8900F40F0200028605CE09306B4
:1058F00007D501F020030CF080555B1901D0616FD2
:10590000E9E001EA0203E56EDE063CD5012D3AD15D
:10591000102101628168490600F18480B4F85C10AE
:10592000B4F85E20B4F85E30002B00F0E480891AF1
:105930000A0401D1DFE0206850E8000F226820F45B
:10594000907042E80003002BF5D18348226852E8AA
:10595000022F2368024043E80226002EF6D12020C1
:10596000C4F88C000020E0666067206850E8000FF3
:10597000226820F0100042E80003002BF5D189B224
:105980000220206799E0D60240F19C801CF480063A
:1059900000F098804FF4801101622046BDE870400D
:1059A000FFF74CBF04F190052868002800F0A380A1
:1059B00090060CD501F020000CF08051401806D064
:1059C000616F21B120468847206800F108032868EC
:1059D000196800F0280001F04001401800F08580AF
:1059E000204601F071FE20688168490601D477E005
:1059F000206850E8020F216820F0400041E80202D0
:105A0000002AF5D1D4F88000002869D051490165F9
:105A1000FBF7E2FF00286ED0D4F88000016DBDE8EE
:105A200070400847D4F8802011684B689DB2002D63
:105A300061D0B4F85C108D425DD2A4F85E30D269BA
:105A4000B2F5807F01D132E0206850E8000F216874
:105A500020F4807041E80002002AF5D1206850E867
:105A6000020F216820F0010041E80202002AF5D16E
:105A7000206850E8020F216820F0400041E802024F
:105A8000002AF5D12020C4F88C000020E0662068B0
:105A900050E8000F216820F0100041E80002002AC1
:105AA000F5D1D4F88000FBF70FFEB4F85C100220AB
:105AB0002067B4F85E00081A81B22046BDE8704045
:105AC000FFF75ABE160617D501F080060CF4000544
:105AD000761911D0A16F71B12046BDE8704008471A
